:020000040000fa
:080000000002040000000000f2
:020000040000fa
:10040000efa321000e7f22000e01880000000000f3
:100410000c000700005c2800010020000f0007000e
:10042000000020000000e000020032000000020096
:100430000000000044a70200000000000040da00b5
:100440000000fe00408720000000e00002003200b3
:10045000002020009001880000000600a102880012
:10046000800078000000eb001a003700e2804000b6
:1004700054a0b4009101ba00e280400054a0b4003e
:100480009102ba00e280400054a0b4000002eb00e8
:10049000472bde00f507b200a6018800602ce100c2
:1004a00008003a000049eb000201e80002003900b0
:1004b0003420ec0002f0a0008301e900f9ff3e00c7
:1004c000040037006128e100010032000082eb00e7
:1004d000040007001101ba000200e000e3ff3a0047
:1004e0000000060004d0a300e20f49001c00390000
:1004f000810278003549ba000201e80002003900a3
:100500003420ec0002f0a0008301e9000f0032006b
:100510002549ba000201e800020039003420ec004d
:1005200002f0a0008301e900080032000400e000ae
:100530000600320015c9ba000201e80002003900c5
:100540003420ec0002f0a0008301e9008180e80083
:1005500054a0b4000300e000e2ff3a0000000600ef
:100560009102ba00055978008301e900f7ff3200d3
:10057000c82ade00055978008301e900f3ff320044
:100580000400e000f1ff320011d9ba00eeff37009d
:10059000dea0040000000000e4960400000000005b
:1005a000ba95040000000000ac97040000000000b1
:1005b0004a97040000000000c497040000000000f7
:1005c00000a1040000000000d2a30400000000000d
:1005d000e0a6040000000000669b0400000000008c
:1005e00012a20400000000003ca304000000000070
:1005f000e88f0400000000009ea604000000000038
:1006000092a204000000000094a404000000000076
:10061000c898040000000000ca8c0400000000001c
:10062000c2a5040000000000800078001106b1009f
:10063000030035009101b10001003c000050a10011
:1006400000000600800078001104b10003003500ae
:100650009101b10001003c000050a0000000060024
:100660006900e100040035006d00e1000300340082
:100670000002b1000100320000000500100005007a
:100680001004b100070035009001b10004003400ef
:100690007000b100030035009001b10001003c0082
:1006a00010000500000005001004b1000300350033
:1006b0009001b10001003c001000050000000500a1
:1006c0002002e20004003d002342ab0002003200a1
:1006d0002302ab00feff32000040da00feff3700cd
:1006e0000a00fa0080017800e20f500028003e0066
:1006f00090cb8000e10f50000800320080232000e2
:100700000000e00005003200042320002523200023
:1007100046232000800178000400370004222000d6
:100720002522200046222000832220001440900031
:100730000004e000040035008009eb001440900044
:100740000074a00010429800154090000028a300fb
:1007500003003a00154090000024a0009042980049
:100760008001eb0007003700154090000008a3004f
:10077000fdff320063c078000000fb00000b780032
:100780008301e800828f5100f7ff3a00080037002c
:1007900030002000b0bf9f00c3bf9f00d1bf9f00ab
:1007a000e2bf9f006a80570000c0da006fb997006f
:1007b000020078000080fa00000006000a00fa003b
:1007c00011002000b1bf9f00c0bf9f006a8057008a
:1007d00000c0da004fb897000080fa000000060061
:1007e0000a00fa0051002000b1bf9f00c0bf9f0067
:1007f0006a80570000c0da005fb897000080fa00f6
:10080000000006000a00fa00881f780080017800c6
:100810000000e00029003a0090cb8000e10f50007a
:1008200008003200802320000000e00005003200b4
:100830000423200025232000672320008001780066
:100840000400370004222000252220006722200017
:1008500083222000144090000004e00004003500d2
:100860008009eb00144090000074a0001042980032
:100870000002eb000c003700130a2000154478003a
:100880006140640002003a008301e900fbff3a0086
:100890000402e8009541780061c061000500320063
:1008a000170078008058780004035100820f52002e
:1008b000f1ff3a0006005100080037002000200038
:1008c000a0bf9f00b3bf9f00c1bf9f00d2bf9f00ca
:1008d0006c80570000c0da005fb897004f047800c2
:1008e0000080fa0000000600889fbe0080047800a7
:1008f000a0cb80000000e00003003a0010000700d9
:100900000000e0000a003500a0cb80000900e000f4
:1009100002003a0000047800060037000004780066
:1009200009004000060007000000e00001003d0053
:100930000084eb00080078004f04be0000000600b1
:10094000800078000000e00004003a006097210079
:10095000a0cb880001017800060037000081eb0081
:10096000e0a32100808f500002003e00a1cb880050
:100970000001eb000200780000000600020ab90046
:10098000001bb9000200b800810042008100430052
:10099000000006006022b800060220000000d0001f
:1009a0008180d2000482d2008582d2000000a000a3
:1009b0000202520083825a00030031000202420008
:1009c00083824a000000a1000603e900f3ff3a0019
:1009d00000000600efff07000400be000000060054
:1009e000889fbe008a9fbe00010578000100e000dc
:1009f0000400350008003c000000e0002000320048
:100a00000500370060001000e080180002003b0085
:100a100001f02c001a0037000004be006011b8007d
:100a20006b0920000982cf00020039000882cf0044
:100a30000441b000694252000e00320008003b0041
:100a400082817100610164008904d1000884d300af
:100a50008b05e8000442e800f9ff3a000500370082
:100a60000804440089844c008b05e9000442e90035
:100a7000fbff3a00250207000af0a70001f0a000e2
:100a80004f05be004f04be000000060003f0a200a8
:100a9000889fbe008a9fbe008c1f7800410207001d
:100aa000480233006450e1004f0032006420e1004e
:100ab0005200320003826c0007003b000905d000a1
:100ac0000306d000820f54000c065d0002003900be
:100ad0000200320089017800030678008582550003
:100ae00004003d000003fd008103fd008502ea00d3
:100af0008b854200840f720002003b0060001000f2
:100b0000e08018006011b8000005eb007a28e100d1
:100b10000a00390006007800c75ddd00f707b20063
:100b2000878075002d003700828171000a017800ee
:100b3000610560008180d1000080d3008502e9005a
:100b4000f9ff3b00060440008784480002003b0098
:100b500060041400e0841c000988a3000700320030
:100b60008a81710082817100610164008904d10071
:100b70000884d3008b05e800170037000978a3002c
:100b800013003a000b00e000130034008b05e9006d
:100b90000804440089844c000a4474000978a300c6
:100ba0000d003a000b00e000070034008b05e9005f
:100bb0000804440089844c0001003a000b00200026
:100bc0000978a300f7ff32000001eb0002003700b4
:100bd000828171000a017800cc0107000cf0a700a7
:100be00001f0a000000237006420e10002003a009a
:100bf000838f6c00000233000801be000200be00bb
:100c0000f9013700889fbe008a9fbe008c1f7800c4
:100c1000e4010700eb01330003866c006450e1003f
:100c20002e0032006420e100330032006150e10008
:100c30002f0032006120e10031003200858555002f
:100c4000eb07b00009002000080420000500370071
:100c50000804440089844c000a0031000603430064
:100c600087834b000001530081815b00f8ff330054
:100c70000203be000800a0000804440089844c0060
:100c8000f6ff3900c639dd00830173000100320030
:100c9000130020008904d1000884d3000998a30020
:100ca000050032000800a7000300a0008904d1005d
:100cb0000884d3008b05e8008904d1000884d300a0
:100cc0000001eb000281d2009001070001f0a100b9
:100cd0000cf0a70001f0a000c30137006420e10080
:100ce000c50132000801be000200be00f7ff370058
:100cf0006120e100c00132006000b800f3ff37005e
:100d00000000200001f82700f0ff37008103780081
:100d1000bc0107000001be006000b8000478a30019
:100d200013003a006220e10015003e000d0039007a
:100d30008301d1000281d3008180d3008301d100df
:100d40000281d3008180d3008301d1000281d300ce
:100d50008180d3000538b000c42add00f300b20062
:100d60008381720007f0a70003f0a00000000600d6
:100d7000f3ff2700f2ff2f006110b900fbff3700df
:100d800003ff2700f7ff37002800fa00889fbe0006
:100d90008a9fbe008c9fbe0003866b00ae010700d9
:100da0006400e100440032006408e1004a003200bf
:100db0006100e100460032006108e10049003200b4
:100dc000ec0647006000b8003d02be003d03be00d7
:100dd000f48657006011b8003d04be003d05be001a
:100de0007d0320000b0037000000a0008d06e90005
:100df000130032000402420085824a0006034b00c1
:100e000087834b00000040008180480002014900b8
:100e1000838149000802520089825a000a035b005c
:100e20008b835b00f0ff3b000802420089824a008e
:100e30000a034b008b834b008d06e900edff3a005f
:100e40008482720086827200f707b2008782720085
:100e500001003200150020001e0490003e0b90009f
:100e600006035400e63fb0000368a3000700320009
:100e70000000a7000500a0008301d1000281d3007b
:100e80008180d3000080d3000603e8008301d100f5
:100e90000281d3008180d3000080d3000002eb00e8
:100ea0000482d2008501070003f0a1000cf0a70026
:100eb00003f0a0007c013700640247006408e100f1
:100ec000760132003400be003401be00f6ff370068
:100ed0006108e100710132006011b8006000b800e3
:100ee000f1ff370003ff270002002000fbff37005f
:100ef000809fbe00829fbe00841f78000002eb002e
:100f00009a0107004f027800009abe00028abe00d4
:100f10004f01be004f00be00030032002403be009c
:100f20001402be00d50137000570a70000000600be
:100f30006000b80002002000cf19de00cf19dd00ec
:100f4000000006002800fa00889fbe008a9fbe00ad
:100f50008c9fbe0003866b003f0107000028a300a2
:100f600064003a000128a30067003a000008a300cb
:100f700062003a000108a30065003a001e009000dc
:100f8000be08900081064000ed3fb100f48057009c
:100f9000ee019000111ab8008e099000311bb800c4
:100fa0009e099000311cb800511db800f48557000f
:100fb00046000700fe0190003a0007008b85e8001c
:100fc0003e0007008e09900040000700ee019000ef
:100fd000340007008b85e800380007008e09900078
:100fe000400007009e0990001b18b80089044000cb
:100ff0000a854800fe019000340007008b85e80058
:1010000038000700ee019000300007008e099000c4
:101010001b18b800890440000a8548000a98a300fc
:1010200008003a000402420085824a0006034b0091
:1010300087834b0008044c0089844c000a054d004e
:101040008d06e90084827200850273004c3add004f
:10105000850272000100320015002000443ade00d3
:101060001400b2004538de00cb45dd000b007000f7
:10107000c540de00cb4ddd008b8070004549de00b1
:10108000cb55dd000b017100c551de000d0378006a
:101090000a01070003f0a1000cf0a70003f0a00074
:1010a000010137001b18b800850240000683480084
:1010b000e0834b0060044c00070037001b18b800a9
:1010c0000603400087834800faff37001b18b8006a
:1010d0008703400008844800e0844c0060054d0010
:1010e000000006001b18b80008044000898448006e
:1010f000faff37000108a300e8003a005800be00dc
:101100005801be00e3ff37000008a300e3003a00e7
:1011100009047800f9ff37002800fa00889fbe0014
:101120008a9fbe008c9fbe000706780087866900f4
:101130000c003b00030478008704780008f0a1004d
:1011400009f0a100840f5000858f5800860f5900c8
:10115000890f5c00030033000cf0a20001003a008c
:101160000cf0a100bc0007006400e1005f00320049
:10117000780147006408e100610032006c0147001b
:10118000748557003200be001201be003a04be0052
:101190001a05be001e039000be0a9000850353008e
:1011a00006003d000004fd008104fd000205fd0075
:1011b0008305fd008703ea00050378000df8a3000e
:1011c0000400320060041400e0841c0060051d006f
:1011d000e0851d006022b8007d0320000d38e1008d
:1011e0008006eb000b0039004433dd00f300b20051
:1011f0008301730039003700848272000d02780089
:10120000e10664008b85d1000a85d3008984d30070
:101210000884d3008703e900f7ff3b000800400083
:10122000898048000a0149008b81490004003b0085
:1012300060001000e080180060011900e0811900d2
:101240000358a300090032008d827200848272006c
:10125000610260008301d1000281d3008180d3004c
:101260000080d3000603e8001b0037000348a300fa
:1012700017003a000600e000170034000603e900fa
:101280000d00a300000048008180480002014900d1
:10129000838149000348a3000f003a000600e000e4
:1012a000090034000603e900000040008180480086
:1012b000020149008381490001003a000003eb006c
:1012c0000348a300f5ff32006022b8000200370097
:1012d00084827200618266007800070003f0a1003a
:1012e0000cf0a70003f0a0006f0037006401470076
:1012f0006408e10002003a000df8a30067003a001c
:101300003200be001201be006700370081002000dd
:10131000618055000b003d000b00200061fe2f0096
:101320000100e1001d003400828171006101640050
:101330008904d1000884d3000000e800faff3a00d5
:101340007100200061006400030070000200600072
:101350000900320061044400e0844c000988a500c3
:10136000050032008b05e8006808e10002003a0041
:101370008904d1000884d300f20f20000258e10054
:1013800005003d00c75ddd00f907b20089807500ea
:1013900008007800000006000bf827008b0078009a
:1013a000000005000004be00160007000003be0098
:1013b0000405be000200be0012000700844f750045
:1013c000000006000200be006450e1000500360087
:1013d0006420e100020036000968a30001003a0021
:1013e0000800be000160a0004f0678004f05be0057
:1013f0004f04be0000000600f0ff2f00f1ff2700a1
:10140000f9ff3700c70ade00f107b200f50fb2009e
:1014100008003200e1cf4200020032000170a0005b
:1014200024000500810f700001003200040805004f
:1014300044000500810f700002003a00140005000e
:101440008502e9000000400081c04800fcff3b002d
:101450000170a00024000500680447000294be004b
:101460000094be00fc0447008694be008494be0035
:101470000900780083000700080078008100070059
:1014800099007800814f70000b003b000800be00ff
:10149000a30007004f00b10003003700f3ff27004f
:1014a000f2ff2f006110b9004f06be004f05be00cd
:1014b0004f04be000080fa00000006001800200063
:1014c00057002000080453000d003d0006002000d6
:1014d00097fc2f000740e1001e0034008482720058
:1014e000610260008301d1000281d3008180d300ba
:1014f0000080d3000804e800f8ff3a00470020000d
:101500006104600005047400040464000d003200ee
:1015100061004000e080480060014900e08149002e
:1015200003b8a500070032000603e8006538e100b3
:1015300004003a008301d1000281d3008180d300ee
:101540000080d300f87f20000830e1000300350060
:10155000080378006000b8006011b8004433dd0073
:10156000f300b20083017300000006001400fa00cb
:10157000889fbe008a9fbe008c9fbe000406780034
:10158000e80247008292be008092be00050078000b
:101590003c0007006200e10033003a006000b80040
:1015a0006011b8001e0390000c035300f63fb10019
:1015b000220035004b0320000b30e1002a003d00e3
:1015c000fb012000faff2f006154b9006c014700b5
:1015d0008b05d1000a85d3008984d3000884d30009
:1015e0000603e900faff3b003200be001201be0014
:1015f0000002640081826400020365008383650049
:101600000502720006027200070272001600320024
:101610000884ea008984ea000a85ea008b85ea00ea
:101620000000640081806400020165008381650020
:101630006022b8001e039000a0ff0700de039000a8
:1016400007f0a70003f0a0000082eb000400e00018
:101650008e0290004f06be004f05be004f04be0034
:101660000080fa000000060064014700040020002a
:101670003200be001201be00f4ff370007f0a200e6
:10168000a5fe3700800078005002be005003be0067
:101690004439de00f700b200f37f2000030161004f
:1016a000090032000218e10016003a0085017200bc
:1016b00083017300838173000008200015003a0045
:1016c0004000200013003700850172008301730081
:1016d0008381730005003a0004a8be0006a8be007e
:1016e000100020000b0037000201e9000402420054
:1016f00085824a0006034b0087834b000748a300fe
:10170000f9ff32000740a00004a8be0006a8be00f2
:101710002000200080009800920098000000060041
:10172000e48240001078a300070032006402400009
:101730001178a3003400be001401be000400320082
:101740000330a700000006003500be001501be00f2
:101750000330a00000000600881f78000004780015
:101760005001be004000be000400400085804800db
:101770000601490087814900009cbe000294be001a
:101780000400e1000588e1000690e1000798e1000f
:1017900002003100680044001008e8004f0478009f
:1017a00000000600f4874700889fbe008a9fbe00a5
:1017b0008c9fbe008e1f78000205be000004be0094
:1017c000d4b79f00e5b79f00f6b79f0087bf9f0083
:1017d0000000eb00c0b79f00b0b79f00a0b79f000c
:1017e00090b79f0080b79f000d042000bfb0970006
:1017f0004fb09700000140000000e0000f003d00e6
:101800004f08de0000007100c0b79f009e00070077
:1018100001003d0012002000a100070001003d0072
:1018200012002000a6000700b1000700b600070064
:101830000f004000c8ff0700220037004f08de00fd
:1018400000067100ccb79f008f00070001003d002b
:10185000120020009200070001003d00120020004d
:1018600097000700a20007000fb297009fb29700f1
:101870002fb39700bfb39700a900070000005200e4
:1018800081805a0002015b0083815b0080b79f006a
:1018900091b79f00a2b79f00b3b79f000007eb006e
:1018a0009f0007000020e10001a8e10002b0e10074
:1018b00003b8e100010031001e0020000e005600b8
:1018c000c0b79f004fb297000400e000070035004a
:1018d00010002000010020006011b8000804700012
:1018e000898470000a0571008b8571008d06e900fe
:1018f000beff3a000400e00003003d008200070044
:101900000f00400094ff07004fa897000000e00080
:1019100004003a000fb497009fb497002fb59700ca
:10192000bfb59700940007004f0778004f06be0030
:101930004f05be004f04be004f01b100000006007d
:10194000881f780018002000881f780095ff070086
:101950008f87e9004f04780000000600801feb002d
:1019600090ff07008f87e90000000600889fbe00f7
:101970008a9fbe008c1f78006e00070007003d00a4
:1019800073000700e00f5b00e08f5b0007003d0085
:10199000320007000006eb000400370034000700a7
:1019a00002003d002a0007001c0020007200070012
:1019b000e3ff07000203be000002be000c00e000cf
:1019c00001003200220007000400be000601be0034
:1019d0004f0678004f05be004f04be000000060011
:1019e000889fbe008a9fbe008c1f780051000700b0
:1019f00005003d0056000700e00f5b00e08f5b0034
:101a000006003d00040037001900070003003d00f8
:101a10006000b8006011b800100007005600070011
:101a2000ceff07000203be000002be000c00e00073
:101a300001003200060007000400be000601be00df
:101a40004f0678004f05be004f04be0000000600a0
:101a50006000b8006011b8000000370004025000b8
:101a6000858258000603590087835900000006004c
:101a70000006eb00e00f5200e08f5a00e00f5b0021
:101a8000e08f5b00000006000180400090b79f00df
:101a90000001eb008fb097000100e000000006009d
:101aa0000200700090b79f000180400080b79f0047
:101ab0000001eb00ffa897000100e0000000060015
:101ac0000200700080b79f00018040006faa97005d
:101ad000cf20de0001007000f0af9f000402420042
:101ae000250007004f18de0000027200000006000b
:101af000e4af9f000804440089844c000a054d00af
:101b00008b854d00000006003fb29700cfb29700d2
:101b10005fb39700efb3970000fe2f0000000600b0
:101b20003fb09700cfb097005fb19700efb197003b
:101b3000000006000205be000004be00e00f5000d9
:101b4000e08f5800e00f5900e08f590000000600b8
:101b50006000b8006011b800080450008984580083
:101b60000a0559008b8559001c002000e00f520027
:101b7000e08f5a00000006000800be000a01be0007
:101b8000000006008f1fd100e90007008f87e900e1
:101b90000000e00000000600801feb00e4000700ea
:101ba0008f87e9000000e000000006001400fa0042
:101bb000889fbe008a9fbe008c9fbe0004067800ee
:101bc0000004be000205be00680047000a90be0087
:101bd0000890be00abfe07006200e1000800be00f6
:101be0000a01be00040020000b003a001e02900013
:101bf000e43fb1006e009000fe0090000e099000de
:101c00009e099000f300b20005fe2300858171005b
:101c10000bf0a70003f0a000040e780022fe3700ae
:101c2000809feb00c20007008f87e9000000e00002
:101c3000000006001400fa00889fbe008a9fbe00c4
:101c40008c9fbe000004be000205be006800470075
:101c50000a90be000890be008afe07000070a70030
:101c60000bf0a1000bf8a30020003a009e099000a1
:101c70000e099000fe0090006e0090009e02900001
:101c8000344320008482520007fe32000a003c00e8
:101c9000b4fc2f000428e100140034008301d100bb
:101ca0000281d3008180d3000080d3008502e80048
:101cb000faff3a00fcfd3700b40020000428e100e0
:101cc00007003c00000040008180480002014900fc
:101cd000838149008502e900faff3a00f2fd3700ee
:101ce0000300280002002000010037006011b80046
:101cf0006000b800ecfd3700889fbe0083047800c8
:101d00000300e0002c00350003003c00008270005e
:101d1000040271002600320036432000c500200076
:101d20008383cf000a0039000541b1008283cf00d0
:101d3000070039000541b1008183cf00040039005c
:101d40000541b1008083cf00010039000541b10099
:101d500085c353006022b800120032000a003b0025
:101d600084827200610260008301d1000281d3008d
:101d70008180d3000080d3000603e8008743e80099
:101d8000f7ff3a000700370000004000818048005c
:101d900002014900838149000603e9008743e90005
:101da000f9ff3a00c5fd070009f0a70003f0a00005
:101db0004f04be000000060060001000e080180024
:101dc00060011900e0811900d3ff3b00033e2c00a5
:101dd000f7ff37001400fa00889fbe008a9fbe00fc
:101de0008c9fbe000005be000206be0068004700d2
:101df0000c90be000a90be0022fe07006400e100c5
:101e00001a00320016003e006100e1001a003200a4
:101e10006e049000fe0490000e0b90009e0b90004c
:101e20006011b8009e0590000b38b100d50120006c
:101e300082817100610164008703d1000683d300b1
:101e40008984d3000884d3008502e900f8ff3a00b2
:101e50002efd07000df0a70001f0a00092fd370055
:101e6000f1ff2700f0ff2f008ffd370001f827005a
:101e700000002000f7ff37006000b800f5ff3700d2
:101e80005400070005097800000006001400fa005d
:101e9000889fbe008a9fbe008c9fbe000004be00cb
:101ea0000205be00680047000a90be000890be0010
:101eb000f4fd07000070a7000bf0a1000bf8a300d1
:101ec00016003a009e0290003043200080825200ab
:101ed000b0fe2f000028e1000d003c00b0fc2f00f8
:101ee0000028e1000d0034001e0990008e089000cb
:101ef0007e0090000501b0000201d1008180d30076
:101f00000080d3008502e800fbff3a0066fd370041
:101f1000010028000000200063fd37006000b800c9
:101f200061fd37004f89de008201780072ff3700c3
:101f3000889fbe008a9fbe008c9fbe000404be0026
:101f40000605be00809fbe00829fbe002e000700d7
:101f5000040678000800be000a01be002a0007003f
:101f6000840678004f03be004f02be008d4f7600fe
:101f70007fb0970013003300f0ff2f008b8f6b00b2
:101f800006003b000d0666000c00a7000a003700a3
:101f900007f0a600100020000a003700880f52004a
:101fa000898f5a008a0f5b008b8f5b00030039001a
:101fb0001000200001003e000000200007f0a700f4
:101fc0000000ea004f06be004f05be004f04be00f1
:101fd000000006000003be000afd07006220e100c9
:101fe000020032000600be0005000500e507b10052
:101ff000f107b20004f023008480700007f0a7000e
:1020000001f0a0002400050005ff27000582610003
:10201000070032000428e10001003200240005001e
:102020000600070001003a0044000500040805000e
:1020300002000700f9ff3a00140005006f826100fa
:1020400081027000850271008502720000000600a6
:102050008001eb000200370061f079008301e800a5
:10206000828f5100fcff3a0000000600104178000a
:10207000b141510003003a000000e8000204e00012
:10208000faff3a000300fb000000060000017800a0
:1020900000c2b300010037000201e800924078005e
:1020a00080cf5000fcff3200e9cf5000faff320031
:1020b000d0c2b30080cf500003003a000201e80014
:1020c00014c0b300050037000042eb00b0c2b300fb
:1020d00080cf500001003a000201e8008000eb00d0
:1020e00005fd2f00040037006a08b9000080410098
:1020f000850040000201e8009201fb0005804100dc
:10210000e90f5000f8ff36000404e000010032003f
:102110008100ea000100780000000600104178000c
:10212000814f5100040032000000e8000204e0008a
:10213000faff3a000000eb00000006008001eb000f
:1021400002003700817178008301e800828f51001e
:10215000fcff3a0000000600800078003004e00038
:10216000feff3a00010050000000e90000000600f8
:102170000003780080027800020278008001eb0002
:10218000080037000402e90063c07800805a780034
:102190008301e8000004e00002003a008000eb0048
:1021a00006003700828f5100f6ff3a00fbff370030
:1021b0000040eb0080f07a008100e800848f50003e
:1021c000fbff3a0006007800000006000000fa005d
:1021d000cfb8970068815700240c07000080fa00f0
:1021e00000000600810178000000e9000081eb009a
:1021f000e50f500004003e00800040006095210083
:102200006081780003b078000200780000000600ca
:10221000000178000000e900e50f50000f003e00cb
:102220008000400060952100e08078000100e0001f
:1022300002003a00100020002e010700e18f40004c
:10224000060032000000eb00e18f50000400320075
:102250000200780001000100000005000080eb0092
:102260000000060010002000e9ff07001000200019
:1022700020010700e4874700889fbe008a9fbe00b8
:102280008c9fbe008e1f7800000578000107780043
:10229000820578000000eb0040cb88000100e000e0
:1022a000010032008a0878000a047800b8447800f7
:1022b0000900fb00eaf807000000e000020032001d
:1022c00008057800f8ff3700d0c2b30080cf540073
:1022d00005003a00984478000a84e80010c0b30072
:1022e00090f79f00070037000041eb0092f79f0036
:1022f000b0c2b30080cf540002003a009844780086
:102300000a84e80000c3b30080cf540017003a00ed
:1023100008057800ba4478000b00e00002003200a3
:10232000f08f550009003a0080c7b30080cf5400f9
:102330000300320080c5b30080cf540007003a008c
:102340009a4478000885e8000b0120006066b80018
:102350000040eb0080f79f00100037000b00e0000a
:10236000faff3a008b002000f8ff37000b00e00076
:1023700003003a0008057800ab002000f3ff3700a7
:1023800008057800f1ff37002002200040cb8800cc
:102390000205780012c0b300240037000904fb00d6
:1023a00008007800b6f807000000e00005003200e1
:1023b000080078009cf8070091ccb300014440006d
:1023c0000500370001fd2f0001004400e90f500017
:1023d00015003e0001c444000800fb008b0f5000b4
:1023e00011003d006159b9000c00be0063f90700ff
:1023f0000801fb00cf91de00000041008180490010
:102400000a01e800800f5600818f5e00deff3e006b
:102410009a4478000205780012c0b30082f79f004a
:102420000006be00ddff37000041eb000e00e000bb
:10243000030032000ff097000004e00004003a00af
:102440009e00780000c3b300914f100001003a00d5
:102450000a0fe900e14f510003003a000086eb004b
:102460008086eb00050037001ff197000204e000b2
:102470000200320060061600e0861e000c00be005e
:102480004f0778004f06be004f05be004f04be0048
:102490004f00b10000000600889fbe008a9fbe006a
:1024a0008c1f78008005780001057800020678000e
:1024b0000000eb0040cb88000b04780001003700df
:1024c0000804e800984478000900fb0064f807005d
:1024d0000000e000faff3a00d0c2b30080cf540001
:1024e0000500320000c0e90080cf54000200320035
:1024f00080447800010037000804e8000c017800ef
:102500008a007800080078005aff07000001be002a
:102510009a0f540001003a000b0d78009a8f550075
:1025200003003a00e00f5100e08f59000f003a001d
:10253000b0c2b30080cf540004003a00e00f510055
:10254000e08f590015003d0008003700d0c2b300ed
:1025500080cf540011003a00000020000100280044
:10256000800f5100818f59000a00360020022000a0
:1025700040cb880002002000030028006b40400090
:1025800080cf540005003200f2ff2f00f3ff270038
:102590000200370060011100e08119000200be0056
:1025a0004f0678004f05be004f04be000000060035
:1025b0000c00fa00889fbe0000047800f0ff27009e
:1025c000d0bf9f008004eb0099bf9f0088bf9f0091
:1025d000a8bf9f00200c2000b0bf9f007080570054
:1025e000f10007000fb89700094878000fb897006e
:1025f00008045000080078004f04be000080fa0074
:10260000000006000c00fa00889fbe00000478005d
:10261000cfb09700f0ff2700d0bf9f008004eb00f1
:1026200099bf9f0088bf9f00a8bf9f00200c20007b
:10263000b0bf9f007881570070805700da00070014
:102640000fb89700094878000fb8970008045000a9
:10265000080078004f04be000080fa000000060069
:102660000c00fa00a0bf9f00c0bf9f00bafe070089
:10267000b0bf9f00f0bf9f00100c2000d0bf9f0094
:1026800074815700efb097006c805700e008070096
:102690000080fa00000006000c00fa00889fbe00cf
:1026a00000047800cfb09700f0ff2700d0bf9f0054
:1026b0008004eb0099bf9f0088bf9f00a8bf9f00c8
:1026c000200c2000b0bf9f00788157007080570019
:1026d000e60a07000fb89700094878000fb897007e
:1026e00008045000080078004f04be000080fa0083
:1026f00000000600000478001b10070008007800a6
:10270000eff70700889fbe008a9fbe0080407800d8
:10271000d0c6b30080cf5000290036000185fb00f1
:1027200042062000110009000285d800000178004f
:10273000010478004311dd00cb6321000b0141004f
:102740006022b8000600200007fe230002889000e7
:1027500092889000b289900022899000f9f90700d0
:10276000a9002000809fbe00110009000984d80044
:10277000000478004f00be004344dd000b04440019
:1027800048229000d822900068239000f8239000ff
:10279000ecf90700801f78000102780011000900a1
:1027a0000985d8000102fd004f0078004322dd00ba
:1027b0000b0242005403be004402be001f0037005b
:1027c0000180fb00c9632100eacf500014003600ed
:1027d000a2002000110009000280d800000178004a
:1027e000010478004311dd00090141006022b800b6
:1027f0000600200007fe230042209000d220900017
:10280000f221900062219000cef907004344dd00e0
:10281000090444003802be002803be000700370048
:102820004300dd00090040006022b80006002000df
:1028300007fe23005001be004000be00c1f90700a2
:102840004f05be004f04be0000000600889fbe007a
:102850008a1f7800804078000004e00021003d00dd
:102860008040ea00d0c6b30080cf50000900340099
:102870008104fb0042062000110009008204d800f8
:1028800000017800010078004311dd00ca632100d7
:102890001f0037000100fb00c3632100390037002f
:1028a000a2002000110009000200d80000017800f9
:1028b000010078004311dd00030141004300dd0009
:1028c000030040003002be002003be004220900002
:1028d000d2209000f22190006221900099f9070027
:1028e0002e003700d0c6b30080cf50002300340044
:1028f0008104fb0042062000110009008204d80078
:1029000000017800010078004311dd00ca6e21004b
:102910000a014100a8002000110009000800d800a9
:102920004300dd000a00400040229000d0229000c9
:1029300060239000f023900002889000928890001d
:10294000b2899000228990007ef90700801f7800ec
:1029500001027800110009008804d8000102fd007e
:102960004f0078000402fb004322dd000a0242000f
:102970005403be004402be00d8ff37000100fb0034
:10298000c36e2100eacf5000c5ff3c004300dd00cc
:10299000030040005001be004000be004f0578001b
:1029a0004f04be0000000600ef04b000889fbe0088
:1029b0008a9fbe008c9fbe008e1f78006022b800e8
:1029c0006033b800e4a79f00f5a79f0086af9f0083
:1029d00097af9f00a0af9f00b1af9f00c2af9f0015
:1029e0008002eb00a5a79f00d00737008001eb0015
:1029f00050c2b30080cf5000090032000100fb003c
:102a0000afa89700110f0700e10f4000c707320081
:102a10002fa397000603e800a6a79f00c30737006f
:102a2000bfab970097407800b0c2b30080cf500092
:102a30001900320007003c006b40500080cf50006e
:102a4000100032006340400080cf500021003a0067
:102a500016003700d0c2b30080cf5000040032000f
:102a60006340400080cf50001a003a001400370045
:102a70000330a0003fac97000804e800b8af9f0007
:102a8000e7ff37000300a000bfac97008904e8000f
:102a9000b9af9f00e2ff37000310a0003fad9700e1
:102aa0000a05e800baaf9f00ddff370003b0a000c1
:102ab000bfad97008b05e800bbaf9f00d8ff370084
:102ac0000320a0003fa897000000e800b0af9f00df
:102ad000d3ff37000318a300010032000300a10058
:102ae0000338a300010032000320a1000100fb0015
:102af00002fd2f0002004000e90f500010003e00d0
:102b00008000eb00e1979f00020278006f91970030
:102b10006a10b900bfaa97001501fb00000141002f
:102b200004014100e2979f005500fb00b5af9f00f4
:102b300004004000e90f50000d003e00f3ff370095
:102b40000003eb00e6979f00a0c2b30080cf5000c7
:102b500007003a00cfab970047047800c7af9f004b
:102b6000e8979f00bfac97008904e800b9af9f00c9
:102b7000e0c2b3003fad97009a4f100021003a0029
:102b8000830678000de0a0008a00e8006440500051
:102b9000914f100004003200b1af9f008005eb00a0
:102ba000bba79f00100037004fa89700c000780017
:102bb000c0af9f00b1a79f003fa997000281e80026
:102bc000b2af9f00130037003fa297006a20b90000
:102bd0000000410003004000b0a79f00bfaa97007b
:102be0008502e800b5af9f003fab97001601fb00e0
:102bf00003fd2f0003004100e90f5000f2ff3600f3
:102c000004003700830678000dc0a0008003eb00ad
:102c1000b7a79f003fac9700b8407800b8af9f00bf
:102c2000e1679f0070c6b30080cf50003c003200c7
:102c300017003c006440500080cf50008f003200ed
:102c40000e003c007c40500080cf5000330032002a
:102c500006003c000104e0003a07320000c0e90031
:102c600080cf5000aa003a002900370080c5b30089
:102c700080cf5000a6003a002d00370050c6b300a8
:102c800080cf5000230032001f003c00a700370017
:102c900000c7b30080cf5000250032000a003c007e
:102ca0006440500080cf500011003200634040006b
:102cb00080cf50001c0032006640500080cf500092
:102cc00093003a009900370050c7b30080cf5000fe
:102cd000950032006340400080cf50001500320064
:102ce0006540500080cf500089003a001300370043
:102cf000000028000d48a30001003a000001200058
:102d000080867600c3ff37000da0a0008700370043
:102d10000d50a0000d80a000840037000d50a000d1
:102d20000d90a000810037000d60a0007f003700eb
:102d30000d50a0000d70a0007c003700cfac9700b4
:102d400049007800c9af9f00e0a79f000000e000a5
:102d500002003a00cb8d2100eba79f000000eb00a2
:102d6000f0a79f00020037008100e800f1a79f0054
:102d7000ffa097006fa19700028040001004e000c0
:102d8000f9ff3a00bfa197000300e0000400320001
:102d90007fa29700848f510001003100f3a79f00ac
:102da0007fa097000005eb006f939700800f530002
:102db00001003600000553004368de00e1046000b6
:102dc00019003a000904780009003700afa89700fd
:102dd000000220001d0e0700e10f4000030032003a
:102de000afa397008703e800a7a79f000804e800a7
:102df0008a0f5400f5ff3a000085eb000a00370007
:102e0000efa097003100fb00e1a79f00afa897005b
:102e10000e0e0700e10f4000030032002fa49700c0
:102e20000804e800a8a79f00ffa597000b00e90091
:102e3000f0a79f00e10f4000f1ff3a000004eb0013
:102e40000900e0000a003a00b8063700afa8970072
:102e500000022000fd0d0700e10f400003003200da
:102e60002fa197000201e800a2a79f000804e80034
:102e70008a0f5400f5ff3a00ac063700cfa997003f
:102e800043007800c3af9f00cf80de0001017800cf
:102e9000820178000203be000002be00e0a79f008e
:102ea000f1a79f0082af9f0093af9f004822de00f2
:102eb000482cdd0004027400e4679f000d48a30065
:102ec0000c0032000404e0000a003200e14f42002e
:102ed0000800320079fa2f00098047000448780082
:102ee0004fcd97001a4098002b002000fba79f00b1
:102ef00003003700f0679f0010002000f0a79f003c
:102f000071fa2f0081804700e1a79f009dff3700e5
:102f100062fa2f000f014100e2a79f00130020007a
:102f2000f3a79f0097ff37000d0cb300007020003f
:102f300000826600820432000dc8a3000200320045
:102f400064002000b4a79f000d48a30009003200d0
:102f50004fa897004005be004004be00c0af9f00d0
:102f6000e89f9f00f99f9f008aa79f009ba79f0053
:102f7000080037004fa997004200be00c2af9f0073
:102f800062f70700e09f9f00f19f9f0082a79f00cc
:102f900093a79f006022b8006033b8006f98970035
:102fa000ff9897000fa197009fa19700f5fa0700df
:102fb0000000e0000a003d006f9a9700ff9a97001a
:102fc0000fa397009fa3970007f0a200e49f9f0024
:102fd000f59f9f0086a79f0097a79f003d00b30025
:102fe0000000eb00d0979f006022b8006033b8006b
:102ff0006f989700ff9897000fa197009fa19700e7
:10300000e5fa07000000e000340032006f989700f6
:10301000ff9897000fa197009fa197006dfb0700f5
:10302000a5fa2f000581470095fb07005f909700e8
:103030000000e9006300b900a200200011000900af
:103040000200d8008000fd00d1979f000100e00041
:1030500002003d000100e900d0979f005f949700b7
:103060000840ea00f9fd07006f9a9700ff9a970061
:103070000fa397009fa39700b2f70700a09f9f00a0
:10308000b19f9f00c29f9f00d39f9f006022b80006
:103090000600200007ff2300bafa07000000e00046
:1030a00002003d000800e9000b0037006022b80074
:1030b00006002000470224002f989700bf98970031
:1030c0004f999700df999700d5fa07000000e000bc
:1030d000020035000800e800d0979f005f9397003a
:1030e000d6a79f000600e00003003c0010c0b3001c
:1030f000e0679f0002003700afcb9700e7679f00b3
:103100000d0678000c10b20008003a000d98a300dc
:10311000770232005fa49700e40f440003003500fb
:10312000bfa49700890f5400f20135003fa5970016
:103130000a00e000040032000d98a30002003200f3
:103140000a05e900baa79f00bfa5970020c1b300f8
:10315000f28f550001003e006fc09700e0679f00ae
:103160006022b8006033b8006f989700ff9897000e
:103170000fa197009fa1970087fa07000000e000c9
:103180006d0032006f659700afc897000ac050000d
:10319000aefd07000002be000203be006f9897005c
:1031a000ff9897000fa197009fa19700f6f60700e0
:1031b000e09f9f00f19f9f0082a79f0093a79f0021
:1031c00032fb07000004be0056fb0700e00f54006e
:1031d000e08f5c0004003d006022b8000600200083
:1031e000071f2400ccf707000002be000203be0048
:1031f0006f989700ff9897000fa197009fa19700e5
:103200001ef907006022b8000600200007fe230018
:1032100083fa07000000e0000c0035006022b800cf
:103220000600200007fe23006f989700ff98970084
:103230000fa197009fa19700b7f70700e09f9f009d
:10324000f19f9f0082a79f0093a79f006f98970010
:10325000ff9897000fa197009fa197000bfb070015
:103260000002be006033b8000a00fb004304dd002a
:10327000c979210009004400d0009000600190004d
:10328000f0019000400090000020e10001a8e10062
:1032900002b0e10003b8e100100039000400200092
:1032a00005002a009699290097fb23006f98970044
:1032b000ff9897000fa197009fa1970021f70700a3
:1032c000e09f9f00f19f9f0082a79f0093a79f0010
:1032d0005fa197000200e8001600370009004400d3
:1032e0005001be004000be000020e10001a8e10046
:1032f00002b0e10003b8e1000f0031006022b80025
:1033000006002000470224006f989700ff9897005e
:103310000fa197009fa197000af70700e09f9f0069
:10332000f19f9f0082a79f0093a79f00dfa19700b6
:103330000300e900d0979f004968de00610060004b
:1033400080cf9f000004e000400032000080200099
:10335000008666003d003a00bfa29700f48f52003d
:103360000200340046012000b6a79f006f98970026
:10337000ff9897000fa197009fa19700c3fa07003d
:103380000004be000c0578008c0578000b003700a7
:10339000bfa397008703e900b7a79f00a400200000
:1033a000050020006033b8000800be000a01be001e
:1033b00063f907000205be000004be00e00f5400e0
:1033c000e08f5c00e00f5d00e08f5d000b003200dd
:1033d000a4002000050020006033b8000800be00f3
:1033e0000a01be005df90700e00f5000e08f5800b1
:1033f000e00f5900e08f5900e5ff3200ef609700c1
:103400000100fb003fa49700800f54000f003d0017
:1034100008c050000dfd07000002be000203be0000
:103420006f989700ff9897000fa197009fa19700b2
:1034300055f60700e09f9f00f19f9f0082a79f0025
:1034400093a79f00efc49700e9679f006f959700cf
:10345000bfa597000b005500650650000b00e0006b
:1034600002003a000db8a3000100320066065000c9
:1034700063806600010032000c06e9000d28a300fd
:1034800026003200e18066000d18a3000c00320017
:10349000d00220000100e00001003a000080e900b5
:1034a000afa89700690c0700e10f40001800320038
:1034b0002fa097000000e800a0a79f00140037008d
:1034c0000100e00012003200afa8970000022000c7
:1034d0005e0c0700e10f40000d003200afa0970026
:1034e0008100e800a1a79f0009003700afa897005e
:1034f00000032000550c0700e10f400003003200dc
:103500002fa197000201e800a2a79f000c06e90086
:103510000c00e000f5ff3c002e0037000d38a30042
:103520000a0032000b003700afa89700000220000d
:10353000460c0700e10f400003003200afa19700e6
:103540008301e800a3a79f000c06e9000c00e0003f
:10355000f5ff3c00e18066000d18a3001300320067
:10356000d00220000100e00001003a000080e900e4
:10357000afa89700350c0700e10f4000150032009e
:103580002fa297000402e800a4a79f0011003700b3
:10359000e8a79f00f9a79f008aaf9f009baf9f00fd
:1035a0008042eb00e5679f00800037000100e000eb
:1035b00008003200afa8970000022000230c07008b
:1035c000e10f4000030032002fa397000603e8003c
:1035d000a6a79f006f989700ff9897000fa19700ec
:1035e0009fa1970029fa07000004be006055b800ab
:1035f000ef6397000700fb004300dd00ce79210058
:103600000e0040003002be002003be000800be00d5
:103610000a01be00caf807000003b000afa8970077
:103620000a0c0700e10f4000030032002fa09700b2
:103630000000e800a0a79f00ef6097000100fb00da
:103640004300dd000e0040003002be002003be003b
:103650000800be000a01be00c0f807000205be0057
:103660000004be00e0a79f00f1a79f0082af9f006b
:1036700093af9f00bfa297000500e00002003a0050
:103680000db8a30049003200afa89700e002200067
:10369000ee0b0700e10f4000030032002fa397005c
:1036a0000603e800a6a79f00ef6397000700fb0052
:1036b000bfa0970000805000809f9f00240037002b
:1036c0000fc997000204e00005003200e00f54002b
:1036d000e08f5c00e00f5d00e08f5d00acff32002a
:1036e0000000fb004300dd00ce7921000e00400009
:1036f0003002be002003be000800be000a01be006a
:103700008ff807000003b000afa89700cf0b0700a9
:10371000e10f400003003200afa197008301e800f1
:10372000a3a79f006f6297000400fb004300dd0029
:103730000e0040003002be002003be000800be00a4
:103740000a01be0085f807000205be000004be00a5
:10375000ef6297000540e900e0679f00e14f4000fd
:10376000d7ff3a00e8a79f00f9a79f008aaf9f0004
:103770009baf9f000004eb0009003700afa8970043
:1037800000032000b10b0700e10f400003003200ee
:103790002fa397000603e800a6a79f000804e800ef
:1037a0008f9b9700870f5400f4ff3a000d58a30039
:1037b00009003200afa8970050042000a30b0700b7
:1037c000e10f40000c0032002fa497000804e8002d
:1037d000a8a79f0008003700afa897005006200058
:1037e0009a0b0700e10f400003003200afa49700de
:1037f0008904e800a9a79f005f9097000000e000ff
:103800000b003d000000ea00d0979f00afa8970092
:10381000d00220008d0b0700e10f40000c003200a9
:103820002fa597000a05e800aaa79f000800370007
:10383000afa89700b0022000840b0700e10f400002
:1038400003003200afa597008b05e800aba79f00ef
:103850005f909700a8002000110009000800d80020
:103860000003b000afa89700780b0700e10f4000fd
:10387000030032002fa097000000e800a0a79f00df
:10388000df909700110009008800d8008000fd003b
:103890000003b000afa897006c0b0700e10f4000d9
:1038a00003003200afa097008100e800a1a79f00ad
:1038b0000d38a3001d0432000c00e0001b0434008e
:1038c0000004eb00afa89700000220005f0b070088
:1038d000e10f4000030032002fa197000201e80031
:1038e000a2a79f000804e8008c0f54000f043200c8
:1038f000f4ff3700dfa197000300e00004003d0063
:103900003fa29700030052000000e900b0a79f000b
:103910006f989700ff9897000fa197009fa19700bd
:10392000c4f807000205be000004be000c42780087
:10393000c57921000b0037000400fb004300dd00c7
:10394000050040005001be004000be000040e10004
:1039500001c8e10002d0e10003d8e1000300390012
:103960000442e800f44f5200f3ff3a00e4679f007e
:103970000400fb00bfa2970000875200f80f570019
:103980000d003c000e4078005efb07000002be0008
:103990000203be006f989700ff9897000fa1970051
:1039a0009fa19700dcf50700e09f9f00f19f9f001b
:1039b00082a79f0093a79f000e407800a3fb0700fb
:1039c000d0af9f00e1af9f00f2af9f0083b79f0091
:1039d000e00f5400e08f5c00e00f5d00e08f5d00c1
:1039e000040035000800be000a01be00c2f807004e
:1039f0001300370010002000010020006011b80003
:103a000008006000898060000a0161008b8161000c
:103a10008b03d1000a83d3008982d3000882d300ac
:103a200000007200818072000201730083817300c4
:103a3000b1f807000002be000203be00b6f50700a1
:103a40000002be000203be006f989700ff98970027
:103a50000fa197009fa1970008f707000002be0082
:103a60000203be005fa89700efa897007fa9970008
:103a70008fb1970033f507006ef807000205be000e
:103a80000004be000006eb0008003700a400200080
:103a9000050020006033b8000800be000a01be0027
:103aa000a7f707000205be000004be000c03570084
:103ab000b6a79f008e0f56001d0032000c06e800ce
:103ac000a4002000050020006033b8000800be00fc
:103ad0000a01be00a1f70700e00f5000e08f580078
:103ae000e00f5900e08f5900e8ff32001000370066
:103af000bfa39700f88f53000d003c0007407800eb
:103b000000fb07000002be000203be006f98970092
:103b1000ff9897000fa197009fa197007ef50700df
:103b2000e09f9f00f19f9f0082a79f0093a79f00a7
:103b30005fa49700e90f540015003c006022b80014
:103b40006033b8006f989700ff9897000fa1970017
:103b50009fa1970010f807000000e0003600320037
:103b60006f989700ff9897000fa197009fa197006b
:103b700030f80700e00f5000e08f5800e00f5900c8
:103b8000e08f59002c003a00e10f54002a00340065
:103b90000400200005002e00b6e0220017012400da
:103ba0002f989700bf9897004f999700df9997003b
:103bb000f4f707000000e00003003d00dfa49700d9
:103bc00073805400020037005fa597007200550013
:103bd000d0979f002f6897001cfb0700a09f9f00b5
:103be000b19f9f00c29f9f00d39f9f000002be0015
:103bf0000203be006f989700ff9897000fa19700ef
:103c00009fa1970060f407000af80700e0a79f0053
:103c1000f1a79f0082af9f0093af9f006000b800a4
:103c20006011b800d0b79f00e1b79f00f2b79f00c6
:103c300083bf9f00340037006f989700ff9897006c
:103c40000fa197009fa19700faf70700e0a79f0038
:103c5000f1a79f0082af9f0093af9f00e00f50003d
:103c6000e08f5800e00f5900e08f59000200350046
:103c700021f8070017003700100020000100200085
:103c80006011b8006fa29700ffa297000fab9700da
:103c90009fab970004006000858060000601610012
:103ca000878161008703d1000683d3008582d3001a
:103cb0000482d30000007200818072000201730050
:103cc000838173000cf807000002be000203be00ef
:103cd00011f507000002be000203be006f989700b6
:103ce000ff9897000fa197009fa1970063f6070028
:103cf000d0b79f00e1b79f00f2b79f0083bf9f003e
:103d00000000eb00d0979f0014c0b300c5792100dc
:103d10000f0037000400fb004300dd0005034000f6
:103d20003600be002601be006fa49700ffa49700d6
:103d30000fad97009fad97000040e10001c8e10082
:103d400002d0e10003d8e100030039000442e8009a
:103d5000f44f5200efff3a00e4679f000400fb00bd
:103d6000bfa4970000804400df909700010040004e
:103d70006f959700000655004b68de0061006000fb
:103d8000004778000004e00002003a000900e0006b
:103d9000010032000c06e900638066000100320079
:103da0000c06e9000d28a30026003200e180660021
:103db0000d18a3000c003200d00220000100e0002a
:103dc00001003a000080e900afa897001f0a070031
:103dd000e10f400018003200afa597008b05e80006
:103de000aba79f00140037000100e0001200320072
:103df000afa8970000022000140a0700e10f40005e
:103e00000d0032002fa097000000e800a0a79f003f
:103e100009003700afa89700000320000b0a070035
:103e2000e10f400003003200afa097008100e800de
:103e3000a1a79f000c06e9000c00e000f5ff3c0084
:103e40003f0037000d38a3000a0032000b00370096
:103e5000afa8970000022000fc090700e10f400016
:103e6000030032002fa197000201e800a2a79f00e3
:103e70000c06e9000c00e000f5ff3c00e180660064
:103e80000d18a3000c003200d00220000100e00059
:103e900001003a000080e900afa89700eb09070095
:103ea000e10f400026003200afa197008301e80037
:103eb000a3a79f00220037000100e000200032008d
:103ec000afa8970000022000e0090700e10f4000c2
:103ed0001b0032002fa297000402e800a4a79f0055
:103ee000170037000000fb004300dd00c17921000e
:103ef000010040003002be002003be006fa097000a
:103f0000ffa097000fa997009fa997008cf60700c4
:103f1000a4002000050020006033b8008ff60700e1
:103f20000003b000afa89700c8090700e10f4000e8
:103f300003003200afa297008502e800a5a79f000a
:103f40006f6397000640e900e0679f00e14f400083
:103f5000e4ff3a000b003700afa8970000032000f1
:103f6000ba090700e10f400003003200afa3970039
:103f70008703e800a7a79f005f9097000000e90073
:103f8000d0979f005f9097000000e000f2ff3c0098
:103f90003fa49700f20f54000300340020c1b30087
:103fa000e0679f0002003700efc49700e9679f00b9
:103fb000ef6097000100fb003fa59700000055004f
:103fc000f0979f000104e00002003a000e04e000b8
:103fd00008003200afa89700e00220009b0907000c
:103fe000e10f400003003200afa597008b05e80009
:103ff000aba79f006f60970014fa07000002be0095
:104000000203be005fb09700efb097007fb197004a
:104010008fb99700cbf3070006f707001e003700a3
:104020000000fb004300dd00ce7921000e004000bf
:104030003002be002003be000800be000a01be0020
:104040003ff60700a4002000050020006033b80000
:1040500042f607000003b000afa897007b090700f5
:10406000e10f4000030032002fa097000000e8009d
:10407000a0a79f00ef6097000100fb004300dd0058
:104080000e0040003002be002003be000800be004b
:104090000a01be0031f607000205be000004be00a2
:1040a0006f6197000240e900e0679f00e14f400028
:1040b000dbff3a00e8a79f00f9a79f008aaf9f00a7
:1040c0009baf9f000004eb0009003700afa89700ea
:1040d000000320005d090700e10f400003003200eb
:1040e000afa197008301e800a3a79f000804e800a0
:1040f0007f929700840f5400f4ff3a000d38a3001c
:104100000a0232000c00e000080234000004eb0058
:10411000afa89700000220004c090700e10f400003
:1041200003003200afa297008502e800a5a79f0018
:104130000804e8008c0f5400fc013200f4ff370043
:104140000d007800000cb20032003a000d00e000d3
:1041500009003d004fa897004005be004004be0086
:10416000c0af9f00e8a79f00f9a79f008aaf9f00fc
:104170009baf9f00160037000d48a30009003200d6
:104180004fa997004200be00c2af9f004f89de00da
:10419000cf91de000002be000203780082037800a7
:1041a00007003700cfa9970043007800c3af9f00f6
:1041b00000027800cfa2de000503780086037800b5
:1041c000e4a79f00f5a79f0086af9f0097af9f00d1
:1041d0006fa49700ffa497000fad97009fad9700c5
:1041e000e00f5400e08f5c00e00f5d00e08f5d00a9
:1041f00026003d003d00b3006000b8006011b8002b
:1042000008045000898458000a0559008b8559001c
:104210001a0037000d00e00005003d004faa97008e
:104220004401be004400be00c4af9f000700370039
:104230000d48a3000a003200cfaa97004500be0037
:10424000c5af9f000401780084017800e0a79f00bb
:10425000f1a79f0082af9f0093af9f000b00370034
:104260004fab970046007800c6af9f00000478006f
:10427000090020000a0020000b002000e8a79f0092
:10428000f9a79f008aaf9f009baf9f00bfa4970034
:104290000900e0000b003a006fa09700ffa0970014
:1042a0000fa997009fa99700e00f5000e08f5800da
:1042b000e00f5900e08f590002003a001100200081
:1042c000b1a79f000d0678000c0cb200000420007e
:1042d000800f56003700320003003c000c00e00065
:1042e000070032004b00370000082000800f560006
:1042f00018003200000c2000800f560045003a00e4
:1043000014c0b300c57921000f0037000400fb0082
:104310004300dd00050040005001be004000be002b
:104320006fa49700ffa497000fad97009fad970073
:104330000040e10001c8e10002d0e10003d8e10043
:10434000330039000442e800f44f5200efff3a0016
:104350002f00370000012000010020006011b8008c
:1043600014c0b3006fa49700ffa497000fad97008f
:104370009fad97000040e10001c8e10002d0e100dc
:1043800003d8e10022003900490020000000d000dd
:104390008180d2000281d2008381d2008904e900a9
:1043a000faff3a000442e800f04f5200edff3a00f5
:1043b0001700370080002000010020006011b800c5
:1043c00014c0b3006fa49700ffa497000fad97002f
:1043d0009fad97000040e10001c8e10002d0e1007c
:1043e00003d8e1000a003900390020000000d000a5
:1043f0008180d2000281d2008381d2008904e90049
:10440000faff3a000442e800f54f5200edff3a008f
:10441000e4679f006f6597000a00fb00bfa5970047
:104420008b0f500002003d00eb679f000400370037
:10443000bfa09700808f500001003d00b0a79f00f3
:104440006f9197000200e000040032006380660074
:10445000020032000201e900e2979f000de8a3008c
:104460000b003200ef9197003fa29700848f51001c
:1044700003003c008002eb00e5979f00040037003a
:104480006f939700bfa3970007035300e6979f0021
:10449000408c20000080660001842000810f5000c5
:1044a00006003a006f9497000800e0001100320007
:1044b0000804e900e8979f000e003700008c2000f8
:1044c0000080660001882000810f500009003a003a
:1044d000ef949700e28f540003003c000005eb00ce
:1044e000ea979f0003003700ef9597008b85e9005e
:1044f000eb979f00ef6097000100fb000007eb00c7
:104500006f919700800f51000100340000075100a7
:104510000d28a3004b003200e18066000d18a300b7
:104520000c003200d00220000100e00001003a003f
:104530000080e900afa8970044080700e10f4000a1
:1045400027003200afa197008301e800a3a79f00d6
:10455000230037000100e00009003200afa89700f7
:104560000002200039080700e10f40001c00320063
:104570002fa297000402e800a4a79f0018003700ac
:10458000008c20000080660001882000810f500010
:1045900013003a00afa89700000320002b08070083
:1045a000e10f400003003200afa297008502e8004f
:1045b000a5a79f00800520000d58a30001003a0028
:1045c00080072000afa8970020080700e10f4000f7
:1045d000030032002fa397000603e800a6a79f0060
:1045e0000e00e0000d0032000004eb00afa89700c1
:1045f0000003200015080700e10f4000030032000f
:10460000afa397008703e800a7a79f000804e8006e
:104610008e0f5400f5ff3a000007eb003fa497000f
:10462000c340dd0040792100808540004240dd002c
:10463000640550006340b900909f9f0063045000e0
:10464000a20037000e00e0000f0032006880660014
:104650000d003a0000047800afa897000002200087
:10466000fa070700e10f400003003200afa49700f3
:104670008904e800a9a79f000804e8008e0f5400f1
:10468000f5ff3a000007eb00e18066000d18a3007b
:104690000c003200d00220000100e00001003a00ce
:1046a0000080e900afa89700e8070700e10f40008d
:1046b0000e0032002fa597000a05e800aaa79f0068
:1046c0000a0037000100e00008003200afa89700a0
:1046d00000022000dd070700e10f40000300320068
:1046e000afa597008b05e800aba79f00008c2000ca
:1046f0008080660000842000808f500009003a000e
:10470000afa8970000032000d0070700e10f40008a
:10471000c2ff32002fa097000000e800a0a79f0072
:10472000beff370000882000808f5000bbff3a009a
:10473000afa8970000032000c4070700e10f400066
:1047400003003200afa097008100e800a1a79f00fe
:10475000800520000d58a30001003a0080072000ca
:10476000afa89700b9070700e10f4000abff320088
:104770002fa197000201e800a2a79f00a7ff370022
:1047800000042000800f56003100320003003c007e
:104790000c00e00007003200400037000008200055
:1047a000800f560012003200000c2000800f5600cf
:1047b0003a003a003b02be002b03be006fa09700f8
:1047c000ffa097000fa997009fa997005cf407002e
:1047d000a4002000050020006033b8005ff407004b
:1047e00004c3b30004424000e4679f002b0037007d
:1047f000398e21000d58a30001003a00498f210095
:1048000014002000050020006033b8000a00780082
:104810000000e900050033000402d0008582d200c8
:104820000683d2008783d200f9ff37006fa097007c
:10483000ffa097000fa997009fa9970040f40700d9
:104840006f006000e9447800e9679f0013003700bb
:1048500014002000050020006033b80088007800b4
:104860008100e900050033000402d0008582d200f7
:104870000683d2008783d200f9ff37006fa097002c
:10488000ffa097000fa997009fa997002cf407009d
:10489000674060000043b000e0679f006f619700d1
:1048a0000200fb00afa8970068070700e10f400077
:1048b00003003200afa197008301e800a3a79f0087
:1048c000e88555006405550063045400d0ff2f00af
:1048d0003fa2970000a0b9009f9a97000080420075
:1048e00063005000800f5400a5ff3a000d38a3006c
:1048f0000e0032000e00e0000c0034000004eb005b
:10490000afa897000002200050070700e10f400009
:10491000030032002fa397000603e800a6a79f001c
:104920000804e8008e0f5400f5ff3a00bfab970073
:10493000b7407800b7af9f00e1679f000104e00037
:104940002af83a002fa097004f0778004f06be00c4
:104950004f05be004f04be00ef04b100000006008a
:10496000889fbe00000478008144780000fd2f007d
:1049700000004400e90f500002003e0000017800f2
:104980000d0037000800780047ef07000000e00046
:1049900003003200080078002aef070000047800c6
:1049a0000800780036ef07000000e0000700320042
:1049b00090fa2f00000144000980fb00800f510095
:1049c00002003d000280fb0001003700f00f2000d4
:1049d0004f04be0000000600881f780050cb800006
:1049e0006f070700000478001def07000000e000db
:1049f000faff3a00e10f44000300320051cb80007f
:104a0000080078009a0707004f04780000000600ad
:104a10008f04b000889fbe008a9fbe008c9fbe009e
:104a20008e1f780081bf9f008206780050cb8800df
:104a30000040eb00e0ef9f00a50137008884fb00f9
:104a40000900780006ef0700800078000000e00011
:104a500002003200e0ff07009d01370050c2b300a2
:104a6000804f540084013a000fbd970022c0b3006c
:104a7000c2ef9f00d1ef9f0001477800030037008d
:104a800041c0b300c1ef9f000fbd97000fb9970061
:104a9000b240780082bf9f008184fb0070c6b300e3
:104aa00080cf50001d003e0000c0e90080cf5000c4
:104ab0003a0031007940500080cf5000a800320009
:104ac0000e003e006740500080cf5000330032009f
:104ad00006003e000104e000280032007b40500048
:104ae00080cf5000ed003a002800370070c4b300ba
:104af00080cf5000e9003a002800370030c6b300ec
:104b000080cf5000cf0032009b003e006b40500031
:104b100080cf5000e1003a0003013700f0c6b30037
:104b200080cf50009600320008003e0066405000e2
:104b300080cf5000900032000e00390063404000ea
:104b400080cf5000d5003a008500370050c7b30031
:104b500080cf5000880032006340400080cf50007a
:104b6000f10032006540500080cf5000cb003a0089
:104b70008500370020c0b3007d003700efe89700c4
:104b80000104e000e5003a00010137005fe9970009
:104b90000241e800d2ef9f00bbff37008eff070005
:104ba0000e04e00001003a00bec3b30050cb800009
:104bb000fb06070000017800d0022000800f5100a2
:104bc00005003200c0fa2f000f004000d0b79f0050
:104bd0000044eb0014003700c1fa2f008f80400022
:104be00082587800d1b79f0050cb8000ec060700b8
:104bf000000178000e47e900f5ff37005fb097002d
:104c000002587800d0b79f00e0022000800f5100ca
:104c100001003a000844e80050cb8000e00607009d
:104c2000000178000e47e9000e04e00004003200a5
:104c300000fd2f0000004100e90f5000efff36009b
:104c40000804e00003003a00e0022000800f510059
:104c5000eaff32000e04e0002d0032005006200072
:104c6000800f51000300320050042000800f5100db
:104c700027003a005fb49700025c780050cb8000b8
:104c8000c7060700000178008e44e90002003a00e0
:104c9000d8b79f001e003700d0022000800f5100bf
:104ca000050032000080e900800f51000200320050
:104cb000d8b79f0012003700024c7800dfb0970091
:104cc0008180e800d1b79f0050cb8000b406070078
:104cd000000178008ec4e900070037005fb097003c
:104ce00002587800d0b79f0050cb8000ac06070078
:104cf000000178008944e9000904e0000400320062
:104d000000fd2f0000004100e90f5000f3ff3600c6
:104d1000dfb097008048eb00e10f41000300320054
:104d200051cb800002007800d10607005fb19700e8
:104d3000c0fa2f000f004000800f510004003a001d
:104d4000efe897000104e000eb003a009000370024
:104d50005fe997000204e000dd003a00d000370070
:104d60004fe99700e24f510045ff320080c0b30089
:104d7000c0ef9f0044ff3700acc0b3006b003700aa
:104d80008cc0b3006900370013ff0700dfe897000d
:104d90000104e00002003a004d017800d2b79f0004
:104da00050cb80007e06070000047800e10f400031
:104db000530032008e447800120037000a85e80064
:104dc0008abf9f00160037000fb997001200fb0042
:104dd000800f5400f9ff32005fe897000004e00004
:104de00003003a00dfb0970088587800d1b79f00e1
:104df0008944e9000a00320050cb800068060700b1
:104e0000000478000800e800e10f500004003600bc
:104e10000800780012ee07000000e000eaff320010
:104e20005fe997000204e000a9003a006fe89700ec
:104e30000040e800e0ef9f00dfb097008248780074
:104e4000a30037005fe997000204e00005003a0084
:104e50006fe897000040e800e0ef9f00cd00780089
:104e6000d1b79f0050cb80004d060700e10f4000f6
:104e700087003200dfe897000104e00003003a00f9
:104e80005fb1970000597800d2b79f000e47e90044
:104e90004240a9008e003400f2ff37000180fb0081
:104ea00008fd2f0008004000e90f50000e003e00f2
:104eb0000a00780075f40700004778008800780041
:104ec000030037000fb897000000e80080bf9f0084
:104ed0000fb997001200fb0001004000e90f5000dd
:104ee000f8ff3600e8fe370050cb80002c060700a4
:104ef000808f540076003200e10f400005003a0038
:104f00006fe897000004e0007e00320080407800e7
:104f10007a00370051cb8000550607006fe99700f3
:104f20000280fb00780037000cc1b300aafe070026
:104f300050cb80001a060700000578000040eb0007
:104f400080ef9f00d0022000800f550005003a003e
:104f500050cb8000120607000005780011c0b30096
:104f600081ef9f008c4078000a0078007cfe0700eb
:104f7000e14f40000b003a0051cb80000a0078005e
:104f80003b0607006fe997000204e000e3ff3a00e8
:104f900050cb8000300090000048a3005200320047
:104fa000580037008e4578006044b8000c81fb0043
:104fb000030020000800be0070ee07000004be00e1
:104fc0008c4078000a00780065fe07000080fb0036
:104fd0000100200008044000898448008b45e90056
:104fe0000700320050cb8000ed0507000005780077
:104ff0008c4078005afe0700e14f4000ebff3a007a
:105000008c4078000a00780055fe0700e14f400010
:1050100003003a0051cb80000a0078001406070014
:105020000fe897000004e000020032006004140062
:10503000e0841c00dfe897000104e00024003a004f
:105040006fe997000241e800e2ef9f004fe8970008
:10505000e44f500003003a004d0078000888be007d
:105060001b0037000d81e9008206780012007800ed
:10507000080878001600370050cb8000c8050700ec
:10508000808f540012003200e10f400018003a00f7
:105090006fe997000204e0001a003200a0ff370019
:1050a0006fe897000040e800e0ef9f000d81e90005
:1050b00082067800120478008000eb00c0fa2f000e
:1050c0000f00400007060700009cbe000294be00cf
:1050d0000fb897003044780080bf9f000804e000bc
:1050e00056fe3a00040037000000eb0006003700cf
:1050f00051cb8000de050700efe897000180fb0040
:10510000010037000080eb004f0778004f06be001b
:105110004f05be004f04be008f04b1000000060022
:10512000889fbe008a1f7800000578000000e0001c
:1051300020003d000005ea00d0062000c1632100e8
:10514000800f550040003400420620001100090085
:105150000205d80000017800010078004311dd004d
:10516000c96321001e003700a2002000811f7800c3
:10517000110009000205d800000178000100780044
:10518000cf0078004311dd00010141004300dd0044
:10519000010040003002be002003be00422090000b
:1051a000d2209000f22190006221900065ef07006c
:1051b0002b003700d0062000c16e2100800f550063
:1051c0002100340042062000110009000205d80029
:1051d00000017800010078004311dd00c96e210054
:1051e00009014100a8002000110009000800d800b2
:1051f0004300dd000900400040229000d0229000d2
:1052000060239000f0239000028890009288900024
:10521000b2899000228990004aef0700801f780031
:1052200001027800110009000805d8000102fd0004
:105230004f0078004322dd00090242005403be0003
:105240004402be00d9ff3700ea0f5500c6ff3c00fc
:105250004350dd00010040005001be004000be0090
:105260004f0578004f04be00000006008f03b00019
:10527000889fbe008a9fbe008c9fbe008e1f780054
:10528000e0b79f00f1b79f0082bf9f000000eb00d6
:10529000a0b79f00e00437008001eb0050c2b300cc
:1052a00080cf5000090032000100fb00efb09700f2
:1052b000e6040700e10f4000d7043200afb09700ca
:1052c0008100e800a1b79f00d30437007fb19700a9
:1052d00092407800d0c2b30080cf50000c00320062
:1052e00007003c006d40500080cf50000d003200a0
:1052f0006b40400080cf500019003a000e0037008c
:1053000000c3b30080cf500015003a000f003700f3
:105310000330a0007fb297000402e800f4b79f00ba
:10532000eaff37000300a000ffb297008502e80003
:10533000f5b79f00e5ff37000310a0007fb6970088
:105340000c06e800fcb79f00e0ff37000320a00038
:105350007fb097000000e800f0b79f00dbff370048
:105360000318a300010032000300a1000338a300ca
:10537000010032000320a1000100fb0002fd2f000c
:1053800002004000e90f500010003e008000eb00da
:10539000c1b79f00020278004fb197006a10b900b0
:1053a000ffb297001501fb0000014100040141001c
:1053b000c2b79f005500fb00f5b79f0004004000f6
:1053c000e90f50000d003e00f3ff37000006eb0030
:1053d000ccb79f00a0c2b30080cf500007003a00b6
:1053e0000fb89700c000780080bf9f00c1b79f0032
:1053f0007fb197000201e800f2b79f00e0c2b3005e
:105400007fb29700944f100021003a008306780085
:105410000de0a0008400e80064405000914f1000af
:1054200004003200f1b79f008002eb00b5b79f0087
:10543000100037000fbe97004c0078008cbf9f0013
:10544000b0b79f00ffb097008180e800f1b79f00e0
:10545000130037003fb297006a20b90000004100f6
:1054600003004000b0b79f00ffb297008502e8003c
:10547000f5b79f007fb697001c01fb0003fd2f00ce
:1054800003004100e90f5000f2ff3600040037002e
:10549000830678000dc0a0000000eb00b0b79f00ad
:1054a0007fb19700b2407800f2b79f00c17f9f00a4
:1054b000c0c6b30080cf50002700320014003c006b
:1054c0006840500080cf50009d00320009003c0031
:1054d0006c40500080cf5000290032006b404000eb
:1054e00080cf5000720032000104e000500432000e
:1054f0008e00370060c6b30080cf50001c00320021
:105500006340400080cf500088003a008c00370094
:1055100030c7b30080cf50001c00320007003c00b1
:105520006440500080cf5000130032000040e8007b
:1055300080cf50007d003a001100370050c7b30003
:1055400080cf50007d0032006340400080cf50008b
:1055500076003a000b003700000028000d48a30039
:1055600001003a000001200080867600ccff370061
:105570000da0a000720037000d60a0007000370081
:105580000d50a0000d70a0006d0037008fb997007e
:105590004300780083bf9f00000478000000e00013
:1055a00001003a00689021008004eb000100370000
:1055b0008104e80089007800088044001004e000bd
:1055c000fbff3a003fb297000400e0000300320006
:1055d000890f520001003100840478000007eb00bd
:1055e000cfb29700898f5200010036000987520020
:1055f0004368de00e106600019003a000d067800fd
:1056000009003700efb09700000220000f040700e8
:10561000e10f4000030032002fb097000000e800c7
:10562000a0b79f000c06e8008e0f5600f5ff3a0069
:105630000087eb000a003700880078003100fb008b
:1056400001047800efb0970000040700e10f40006c
:1056500003003200afb097008100e800a1b79f00bf
:105660000900e90080047800e10f4000f2ff3a00f1
:105670000006eb000d00e0000a003a00e6033700e8
:10568000efb0970000022000f0030700e10f400098
:10569000030032002fb197000201e800a2b79f007b
:1056a0000c06e8008e0f5600f5ff3a00da033700cb
:1056b0008fb997004300780083bf9f00cf80de0042
:1056c00001017800820178000205be000004be00de
:1056d0000203be000002be004822de00482edd00ac
:1056e00004027600c47f9f000d48a3000a00320028
:1056f0000404e00008003200e14f420006003200de
:10570000d1fb2f0001804700044878001840980022
:105710002900200002003700d07f9f0019002000e0
:10572000d2fb2f0002844700a6ff3700c3fb2f00e7
:105730000384470019002000a2ff37000d0cb300be
:105740000070200000826600210232000dc8a30014
:105750000200320064002000b4b79f008fba9700a7
:105760006881520082bf9f003200be001201be005d
:10577000e0af9f00f1af9f0082b79f0093b79f00fb
:105780006022b8006033b8006fa89700ffa89700a8
:105790000fb197009fb19700faf007000000e000fa
:1057a0000a003d006fa89700ffa897000fb197006f
:1057b0009fb1970003f0a200e0af9f00f1af9f0000
:1057c00082b79f0093b79f003d00b3000000eb003d
:1057d00080a79f006022b8006033b8006fa89700d0
:1057e000ffa897000fb197009fb19700eaf007005c
:1057f0000000e0003300320001fc2f00018247006e
:105800006fa89700ffa897000fb197009fb197006e
:10581000e6f007000fa097000000e9006300b90060
:10582000a2002000110009000200d8008000fd0045
:1058300081a79f000100e00002003d000100e90097
:1058400080a79f000fa497000800ea0034fe07001d
:105850006faa9700ffaa97000fb397009fb3970016
:10586000b8ed0700a0af9f00b1af9f00c2af9f008f
:10587000d3af9f006022b8000600200007ff23007e
:10588000c0f007000000e00002003d000800e90051
:105890000b0037006022b8000600200047022400f9
:1058a0002fa89700bfa897004fa99700dfa99700de
:1058b000dbf007000000e000020035000800e8000f
:1058c00080a79f003fb19700f80f510057003c00a0
:1058d000d0c6b300804f5100290036000285fb007e
:1058e00042062000110009000285d800000178005e
:1058f000010478004311dd00cb6321000b0141005e
:105900006022b8000600200007fe230002889000f5
:1059100092889000b28990002289900089ed07005a
:10592000a9002000809fbe00110009000984d80052
:10593000000478004f00be004344dd000b04440027
:1059400048229000d822900068239000f82390000d
:105950007ced0700801f780001027800110009002b
:105960000985d8000102fd004f0078004322dd00c8
:105970000b0242005403be004402be001f00370069
:105980000280fb00c9632100ea4f51001400360079
:10599000a2002000110009000280d8000001780058
:1059a000010478004311dd00090141006022b800c4
:1059b0000600200007fe230042209000d220900025
:1059c000f2219000622190005eed07004344dd006b
:1059d000090444003802be002803be000700370057
:1059e0004300dd00090040006022b80006002000ee
:1059f00007fe23005001be004000be0051ed07002d
:105a00000002be000203be006fa89700ffa8970027
:105a10000fb197009fb19700bfed0700e0af9f0067
:105a2000f1af9f0082b79f0093b79f000fa497002c
:105a3000e90f540015003c006022b8006033b80044
:105a40006fa89700ffa897000fb197009fb197002c
:105a500051f007000000e000320032006fa897000c
:105a6000ffa897000fb197009fb1970071f0070052
:105a7000e00f5000e08f5800e00f5900e08f590010
:105a800028003a00e10f54002600340054692d002c
:105a900065822e00b6e02200170124002fa897008f
:105aa000bfa897004fa99700dfa9970035f007001e
:105ab0000000e00002003d007300540001003700c8
:105ac0007200540080a79f000fa0970094fd07006c
:105ad000a0af9f00b1af9f00c2af9f00d3af9f00a8
:105ae0000002be000203be006fa89700ffa8970047
:105af0000fb197009fb19700a3ec07004df007008e
:105b00000205be000004be006000b8006011b800cd
:105b1000a0a79f00b1a79f00c2a79f00d3a79f0087
:105b20002e0037006fa89700ffa897000fb19700cd
:105b30009fb197003ff007000205be000004be00c1
:105b4000e00f5000e08f5800e00f5900e08f59003f
:105b50000200350068f00700130037001000200035
:105b6000010020006011b80008006000898060001a
:105b70000a0161008b8161008b03d1000a83d3008d
:105b80008982d3000882d3000000720081807200f5
:105b9000020173008381730057f007000002be000a
:105ba0000203be005ced07000002be000203be005f
:105bb0006fa89700ffa897000fb197009fb19700bb
:105bc000aeee0700a0a79f00b1a79f00c2a79f004d
:105bd000d3a79f000000eb0080a79f0014c0b30074
:105be000c58321000b0037000400fb004300dd00eb
:105bf000050040005001be004000be000040e10032
:105c000001c8e10002d0e10003d8e100030039003f
:105c10000442e800f44f5200f3ff3a00c47f9f00b3
:105c20000400fb00bfb09700008040008fa09700e9
:105c3000010040004fb1970000075100bfb197002d
:105c40000300e000010032000e07e90063806600f7
:105c5000010032000e07e9000d28a30026003200e3
:105c6000e18066000d18a3000c003200d002200075
:105c70000100e00001003a000080e900efb0970069
:105c800072020700e10f4000180032002fb29700a7
:105c90000402e800a4b79f00140037000100e000f0
:105ca00012003200efb097000002200067020700e8
:105cb000e10f40000d003200afb297008502e8000e
:105cc000a5b79f0009003700efb097000003200040
:105cd0005e020700e10f4000030032002fb697007c
:105ce0000c06e800acb79f000e07e9000e00e000cc
:105cf000f5ff3c003d0037000d38a3000a003200dc
:105d00000b003700efb09700000220004f020700a1
:105d1000e10f4000030032002fb097000000e800c0
:105d2000a0b79f000e07e9000e00e000f5ff3c0061
:105d3000e18066000d18a3000c003200d0022000a4
:105d40000100e00001003a000080e900efb0970098
:105d50003e020700e10f400024003200afb0970080
:105d60008100e800a1b79f00200037000100e0009b
:105d70001e003200efb0970000022000330207003f
:105d8000e10f4000190032002fb197000201e80036
:105d9000a2b79f00150037000000fb004300dd00a4
:105da000c1832100010040003002be002003be007c
:105db0000800be000a01be00e1ee0700a4002000ba
:105dc000050020006033b800e4ee07000003b000d7
:105dd000efb097001d020700e10f40000300320002
:105de000afb197008301e800a3b79f004f7a9700f7
:105df0000440e900c07f9f00e14f4000e6ff3a0009
:105e00000b003700efb09700000320000f020700df
:105e1000e10f400003003200afb297008502e800b6
:105e2000a5b79f000fa097000000e90080a79f0082
:105e30000fa097000000e000f2ff3c003fb6970083
:105e400020c1b300f20f560001003c006fe0970044
:105e5000c07f9f00cf7897000100fb003fb1970003
:105e600000005100e0a79f000104e000080032009c
:105e7000efb09700e0022000f4010700e10f4000be
:105e800003003200afb197008301e800a3b79f0081
:105e90004f7a97000400fb00a1fc07000002be003f
:105ea0000203be002fa09700bfa097004fa197004c
:105eb000dfa1970023ec07005eef07001e0037000c
:105ec0000000fb004300dd00cc8321000c004000fb
