:020000040000fa
:080000000002040000000000f2
:020000040000fa
:100400004f8a21000e7f22000e01880000000000ac
:100410000c00070000ac2700010020000f000700bf
:10042000100020000000e00002003200c8020200bc
:10043000000000003a920200000000000040da00d4
:100440000000fe00205220000000e0000200320008
:10045000002020009001880000000600a102880012
:10046000800078000000eb001a003700e2804000b6
:1004700054a0b4009101ba00e280400054a0b4003e
:100480009102ba00e280400054a0b4000002eb00e8
:10049000472bde00f507b200a6018800602ce100c2
:1004a00008003a000049eb000201e80002003900b0
:1004b0003420ec0002f0a0008301e900f9ff3e00c7
:1004c000040037006128e100010032000082eb00e7
:1004d000040007001101ba000200e000e3ff3a0047
:1004e0000000060004d0a300e20f49001c00390000
:1004f000810278003549ba000201e80002003900a3
:100500003420ec0002f0a0008301e9000f0032006b
:100510002549ba000201e800020039003420ec004d
:1005200002f0a0008301e900080032000400e000ae
:100530000600320015c9ba000201e80002003900c5
:100540003420ec0002f0a0008301e9008180e80083
:1005500054a0b4000300e000e2ff3a0000000600ef
:100560009102ba00055978008301e900f7ff3200d3
:10057000c82ade00055978008301e900f3ff320044
:100580000400e000f1ff320011d9ba00eeff37009d
:100590006e8f0200000000005a8002000000000080
:1005a000f68e0200000000003691020000000000fc
:1005b00056910200000000002084020000000000ac
:1005c000e68a020000000000a08d0200000000008a
:1005d000b688020000000000b87d020000000000a4
:1005e000f48c020000000000909102000000000066
:1005f000ec8f0200000000009a770200000000006b
:1006000000000600d28c0400000000006482040098
:100610000000000042810400000000002c83040060
:1006200000000000ca8204000000000044830400af
:10063000000000007687040000000000488e0400df
:1006400000000000e291040000000000e4860400c5
:1006500000000000028f040000000000b28d0400c2
:1006600000000000dc7d040000000000a0910400f8
:1006700000000000088d0400000000009a8f0400b4
:10068000000000004884040000000000d48804003a
:1006900000000000c8900400000000008000780006
:1006a0001106b100030035009101b10001003c00ca
:1006b0000050a10000000600800078001104b10085
:1006c000030035009101b10001003c000050a00082
:1006d000000006006900e100040035006d00e10043
:1006e000030034000002b1000100320000000500e8
:1006f000100005001004b100070035009001b100a2
:10070000040034007000b100030035009001b10016
:1007100001003c0010000500000005002002e2007e
:1007200004003d002342ab00020032002302ab0074
:10073000feff32000040da00feff37000a00fa0038
:1007400080017800e20f500028003e00e0c18000e8
:10075000e10f500008003200802320000000e0007c
:10076000050032000423200025232000462320001a
:100770008001780004003700042220002522200098
:100780004622200083222000144090000004e00054
:10079000040035008009eb00144090000074a000b4
:1007a00010429800154090000028a30003003a0072
:1007b000154090000024a000904298008001eb00ba
:1007c00007003700154090000008a300fdff32002d
:1007d00063c078000000fb00000b78008301e80094
:1007e000828f5100f7ff3a000800370030002000e8
:1007f000b0bf9f00c3bf9f00d1bf9f00e2bf9f005b
:100800006a80570000c0da006fb9970002007800d4
:100810000080fa00000006000a00fa001100200023
:10082000b1bf9f00c0bf9f006a80570000c0da00c0
:100830004fb897000080fa00000006000a00fa0096
:1008400051002000b1bf9f00c0bf9f006a805700c9
:1008500000c0da005fb897000080fa0000000600d0
:10086000889fbe0080047800f0c180000000e00096
:1008700003003a00100007000000e0000a00350005
:10088000f0c180000900e00002003a000004780096
:100890000600370000047800090040000600070049
:1008a0000000e00001003d000084eb00080078003b
:1008b0004f04be0000000600800078000000e00049
:1008c00004003a0000842100f0c188000101780092
:1008d000060037000081eb00408a2100808f500025
:1008e00002003e00f1c188000001eb000200780028
:1008f00000000600020ab900001bb9000200b8009f
:10090000810042008100430000000600889fbe0075
:100910008a9fbe00010578000100e0000400350058
:1009200008003c000000e000200032000500370015
:1009300060001000e080180002003b0001f02c0075
:100940001a0037000004be006011b8006b092000d7
:100950000982cf00020039000882cf000441b000b4
:10096000694252000e00320008003b008281710093
:10097000610164008904d1000884d3008b05e8007c
:100980000442e800f9ff3a0005003700080444007b
:1009900089844c008b05e9000442e900fbff3a0022
:1009a000240007000af0a70001f0a0004f05be00d8
:1009b0004f04be00000006008103780043000700da
:1009c0000001be006000b8000478a30013003a00e4
:1009d0006220e10015003e000d0039008301d100c6
:1009e0000281d3008180d3008301d1000281d30032
:1009f0008180d3008301d1000281d3008180d300a4
:100a00000538b000c42add00f300b2008381720013
:100a100007f0a70003f0a00000000600f3ff270086
:100a2000f2ff2f006110b900fbff370003ff270022
:100a3000f7ff370081002000618055000b003d006a
:100a40000b00200061fe2f000100e1001d003400ba
:100a500082817100610164008904d1000884d3009f
:100a60000000e800faff3a00710020006100640015
:100a700003007000020060000900320061044400bd
:100a8000e0844c000988a500050032008b05e800d1
:100a90006808e10002003a008904d1000884d3000c
:100aa000f20f20000258e10005003d00c75ddd00a7
:100ab000f907b20089807500080078000000060080
:100ac0000bf827008b00780000000500c70ade0045
:100ad000f107b200f50fb20008003200e1cf42008a
:100ae000020032000170a00024000500810f700098
:100af000010032000408050044000500810f700069
:100b000002003a00140005008502e90000004000e0
:100b100081c04800fcff3b000170a00024000500dc
:100b2000881f7800000478005001be004000be001d
:100b30000400400085804800060149008781490083
:100b4000009cbe000294be000400e1000588e100a4
:100b50000690e1000798e1000200310068004400bf
:100b60001008e8004f04780000000600f4874700f2
:100b7000889fbe008a9fbe008c9fbe008e1f78009b
:100b80000205be000004be00d4b79f00e5b79f0079
:100b9000f6b79f0087bf9f000000eb00c0b79f0023
:100ba000b0b79f00a0b79f0090b79f0080b79f008d
:100bb0000d042000bfb097004fb097000001400027
:100bc0000000e0000f003d004f08de000000710053
:100bd000c0b79f009e00070001003d0012002000ea
:100be000a100070001003d0012002000a600070040
:100bf000b1000700b60007000f004000c8ff070063
:100c0000220037004f08de0000067100ccb79f00bd
:100c10008f00070001003d00120020009200070035
:100c200001003d001200200097000700a20007000d
:100c30000fb297009fb297002fb39700bfb39700f2
:100c4000a90007000000520081805a0002015b00e9
:100c500083815b0080b79f0091b79f00a2b79f0080
:100c6000b3b79f000007eb009f0007000020e100e2
:100c700001a8e10002b0e10003b8e1000100310089
:100c80001e0020000e005600c0b79f004fb2970014
:100c90000400e000070035001000200001002000e3
:100ca0006011b80008047000898470000a057100a2
:100cb0008b8571008d06e900beff3a000400e0005c
:100cc00003003d00820007000f00400094ff070072
:100cd0004fa897000000e00004003a000fb497000e
:100ce0009fb497002fb59700bfb5970094000700f9
:100cf0004f0778004f06be004f05be004f04be00f0
:100d00004f01b10000000600881f78001800200085
:100d1000881f780095ff07008f87e9004f0478004f
:100d200000000600801feb0090ff07008f87e9009e
:100d300000000600889fbe008a9fbe008c1f7800be
:100d40006e00070007003d0073000700e00f5b0026
:100d5000e08f5b0007003d00320007000006eb005b
:100d6000040037003400070002003d002a0007009d
:100d70001c00200072000700e3ff07000203be0012
:100d80000002be000c00e00001003200220007005b
:100d90000400be000601be004f0678004f05be00ed
:100da0004f04be0000000600889fbe008a9fbe0060
:100db0008c1f78005100070005003d005600070019
:100dc000e00f5b00e08f5b0006003d000400370091
:100dd0001900070003003d006000b8006011b80072
:100de0001000070056000700ceff07000203be00f8
:100df0000002be000c00e000010032000600070007
:100e00000400be000601be004f0678004f05be007c
:100e10004f04be00000006006000b8006011b8007a
:100e20000000370004025000858258000603590074
:100e300087835900000006000006eb00e00f520017
:100e4000e08f5a00e00f5b00e08f5b0000000600bf
:100e50000180400090b79f000001eb008fb0970029
:100e60000100e000000006000200700090b79f0043
:100e70000180400080b79f000001eb00ffa89700b1
:100e80000100e000000006000200700080b79f0033
:100e9000018040006faa9700cf20de0001007000a3
:100ea000f0af9f0004024200250007004f18de004b
:100eb0000002720000000600e4af9f000804440036
:100ec00089844c000a054d008b854d00000006000a
:100ed0003fb29700cfb297005fb39700efb3970090
:100ee00000fe2f00000006003fb09700cfb0970033
:100ef0005fb19700efb19700000006000205be0049
:100f00000004be00e00f5000e08f5800e00f5900d1
:100f1000e08f5900000006006000b8006011b800c2
:100f200008045000898458000a0559008b8559002f
:100f30001c002000e00f5200e08f5a000000060065
:100f40000800be000a01be00000006008f1fd1008d
:100f5000920007008f87e9000000e0000000060013
:100f6000801feb008d0007008f87e9000000e00084
:100f7000000006001400fa00889fbe008a9fbe0091
:100f80008c9fbe00040678000004be000205be006f
:100f9000680047000a90be000890be00a800070045
:100fa0006200e1000800be000a01be00040020004b
:100fb0000b003a001e029000e43fb1006e0090006a
:100fc000fe0090000e0990009e099000f300b20010
:100fd00005fe2300858171000bf0a70003f0a0003f
:100fe000040e7800d1003700809feb006b000700f3
:100ff0008f87e9000000e000000006001400fa00fe
:10100000889fbe008a9fbe008c9fbe000004be0069
:101010000205be00680047000a90be000890be00ae
:10102000870007000070a7000bf0a1000bf8a300d9
:1010300020003a009e0990000e099000fe009000ea
:101040006e0090009e029000344320008482520083
:10105000b60032000a003c00b4fc2f000428e10076
:10106000140034008301d1000281d3008180d300b9
:101070000080d3008502e800faff3a00ab00370099
:10108000b40020000428e10007003c0000004000fc
:101090008180480002014900838149008502e900fe
:1010a000faff3a00a10037000300280002002000e8
:1010b000010037006011b8006000b8009b003700e5
:1010c000889fbe00830478000300e0002c003500f8
:1010d00003003c0000827000040271002600320010
:1010e00036432000c50020008383cf000a0039006a
:1010f0000541b1008283cf00070039000541b100ee
:101100008183cf00040039000541b1008083cf0006
:10111000010039000541b10085c353006022b800c9
:10112000120032000a003b008482720061026000fb
:101130008301d1000281d3008180d3000080d300dd
:101140000603e8008743e800f7ff3a00070037008e
:10115000000040008180480002014900838149006d
:101160000603e9008743e900f9ff3a00740007002d
:1011700009f0a70003f0a0004f04be000000060025
:1011800060001000e080180060011900e081190083
:10119000d3ff3b00033e2c00f7ff3700889fbe00c3
:1011a0008a9fbe008c9fbe000404be000605be00e0
:1011b000809fbe00829fbe008d000700040678005d
:1011c0000800be000a01be008900070084067800fe
:1011d0004f03be004f02be008d4f76007fb09700d8
:1011e00013003300f0ff2f008b8f6b0006003b00d5
:1011f0000d0666000c00a7000a00370007f0a600e5
:10120000100020000a003700880f5200898f5a0012
:101210008a0f5b008b8f5b000300390010002000f9
:1012200001003e000000200007f0a7000000ea00d7
:101230004f06be004f05be004f04be000000060072
:10124000800078005002be005003be004439de002a
:10125000f700b200f37f20000301610009003200b3
:101260000218e10016003a00850172008301730044
:10127000838173000008200015003a004000200020
:1012800013003700850172008301730083817300ae
:1012900005003a0004a8be0006a8be001000200009
:1012a0000b0037000201e9000402420085824a0077
:1012b00006034b0087834b000748a300f9ff320069
:1012c0000740a00004a8be0006a8be002000200021
:1012d0008000980092009800000006006804470013
:1012e0000294be000094be00fc0447008694be0039
:1012f0008494be0009007800d1ff07000800780040
:10130000cfff070099007800814f70000b003b0071
:101310000800be00480007004f00b100030037007e
:10132000f3ff2700f2ff2f006110b9004f06be0047
:101330004f05be004f04be000080fa00000006000a
:101340001800200057002000080453000d003d0045
:101350000600200097fc2f000740e1001e0034002b
:1013600084827200610260008301d1000281d30097
:101370008180d3000080d3000804e800f8ff3a0021
:101380004700200061046000050474000404640048
:101390000d00320061004000e0804800600149001b
:1013a000e081490003b8a500070032000603e80009
:1013b0006538e10004003a008301d1000281d300c6
:1013c0008180d3000080d300f87f20000830e10046
:1013d00003003500080378006000b8006011b80011
:1013e0004433dd00f300b200830173000000060007
:1013f00005ff270005826100070032000428e10094
:1014000001003200240005000600070001003a0038
:10141000440005000408050002000700f9ff3a0037
:10142000140005006f826100810270008502710066
:101430008502720000000600e48240001078a300dc
:1014400007003200640240001178a3003400be009f
:101450001401be00040032000330a70000000600a3
:101460003500be001501be000330a00000000600dc
:1014700002025000838258006100390003037100aa
:101480006200320005037200590032000300e000e0
:101490005500330017003a000100e0004b00320015
:1014a0000208e10006003100110009004288d8005e
:1014b000010178008001eb008000eb0000000600d5
:1014c0006110e100550032000002be001100090069
:1014d0008280d800800278000400780011000900a2
:1014e0004288d800010178008001eb008500780077
:1014f00000000600889fbe008a9fbe008c9fbe0031
:101500000386cf000c06e9008c1f78008c19dd00e3
:10151000f00216000512de00848171000c11dd005e
:101520000003be008004eb00053cde008c3bdd00c8
:101530000532de00848373000c33dd000700780081
:1015400088007800110009004388d8000202b80022
:101550000306b8008c82420060854e008005eb00d7
:101560000402530085825b000a055c008b855c00e9
:101570000b0033008000eb004f0678000c21de00ea
:10158000700516000a2ddd000a0171008c29de00ad
:101590004f06be004f05be004f04be00000006000f
:1015a0000202420083824a0060054d00e0854d0042
:1015b0000000e9000b00e000eeff3d0002024200e7
:1015c00083824a000000e900eaff37000000e000e3
:1015d00012003200110009000280d80001017800d9
:1015e0008000eb00000006000401be00010037008f
:1015f0006011b800100020008000eb000000060021
:101600000001be006000b800000006000001be003e
:10161000f0ff2f00f1ff2f00000006006011b8005e
:101620000000060092ff07000200be000000060056
:1016300007f82700078361000638e10004003a003c
:10164000f7072000878361008703710001003a00db
:1016500003f0a200889fbe008a9fbe008c9fbe0040
:10166000470ade000480a100c71ade000580a10041
:10167000070028000785600087856100f70f2000bc
:101680000720e1009e0032000728e1009c003200a4
:10169000010678000400e000b4003200f7072000e3
:1016a000878060000170a0000500e000c0003200eb
:1016b000f7072000878161000370a0000506520033
:1016c0000f003a000b50e1000b0032000308e1006c
:1016d00002003a000200e1007e00320002045000e5
:1016e00083845800040031000001fd008101fd00e9
:1016f0008402fd008a05fd006044b8002100370027
:101700000520e10005003d000001fd008101fd0014
:101710008402fd008a05fd00050652007a60e100a2
:10172000050035000170a1004722dd0084807000b3
:101730008a807000630037006044b800ef026600e2
:1017400007ff2f00070666000500e00006003400d2
:10175000f08312008714dd000511de00071bdd0099
:10176000060171008519de007060e100050035009a
:101770000904780082047800030178008001eb00fe
:10178000700656000b50e10003003a0002004000d2
:10179000838048000400370060041400e0841c00cb
:1017a00002005800838058000188a3000600320020
:1017b0008100d1000080d3008984d3000884d30045
:1017c0000402e800270037000178a30025003a0052
:1017d0000100e000030032008186cf0069865600d8
:1017e0000a0037008c0020000000e00004003a00ee
:1017f00009007800880478000004eb0070025200b1
:101800008086cf000d0646000c06e9007060e100fe
:101810000600350080007800090078008804780010
:101820000004eb0070065600700252000c00e0004d
:101830000c0034008c08dd00f00316000703de0006
:10184000868070000c00dd00074bde000600700093
:101850008c4cdd000743de00868474000c44dd0000
:101860000c0252006120e10020003500610160009f
:101870000700280087816400f7ff27008783640042
:10188000070374000300e0000600320082037300c7
:10189000040032000000e800e08048000188a30056
:1018a0000e003a00f70f20000720e1004a003d003b
:1018b0000170a1004722dd00810072008a80700063
:1018c0000000be004f06be004f05be004f04be0024
:1018d000000006006000b800faff37008100d10068
:1018e0000080d3000402e800eeff37000401780016
:1018f000890174001b0107008a807000f1ff370026
:1019000042010700070278000001fd008101fd008f
:101910003e01070087027800850372000778a30064
:10192000040032000001fd008101fd0051010700ab
:10193000e4ff3700850362000768a3000800320057
:101940000b50e10003003200f0ff2f00f1ff2700f1
:10195000dcff37000001fd008101fd00d9ff3700e9
:101960000468a300d7ff3200faff3700f8ff270012
:10197000888360000b003a000000e00009003a0094
:101980008303640082837300020032000200be0001
:10199000ccff37000b50e100ceff3a000200be0042
:1019a000c8ff370014002000810064003eff3700ac
:1019b000f8ff27008883610004003a000200e0007d
:1019c00002003a008c007800beff370015002000ae
:1019d0008301640039ff370001f827000000200070
:1019e00081007500b7ff3700889fbe008a9fbe0048
:1019f0008c9fbe001b0020000202be00058668000e
:101a000006002800060666004709de00f20fb20055
:101a1000820032000243e80080003200c729de0065
:101a2000f30fb2007d0032000343e8007b00320078
:101a3000f107b2000170a000f507b2000570a00028
:101a4000c708dd004903de00868070004700dd0026
:101a5000c72add004923de00868272004722dd00ae
:101a60000305510004035000858358000300310032
:101a700000004000818048000a05e9008c1f7800c2
:101a80008a9fbe0004005000858058000402420076
:101a900085824a0000004000818048000005eb007c
:101aa0000004be006033b8000406be000d48e1002b
:101ab00056003100110009004dccd8000c01b800cf
:101ac0000d02b8008481410060824a008283530085
:101ad00003045c0084845c0060055d000a00e00093
:101ae00025003a00800578000d40e10049003100f2
:101af0008800780007007800110009004d88d800a0
:101b00000c01b8000d02b8008481410060824a00d7
:101b10006003110083835b0004045c00e0845c00cc
:101b20000900e00021003a004f01be000300e00080
:101b30002b003200e3016000070673008c81710006
:101b400001003200640070004200de004e5edd00e5
:101b50000c007000c258de0001e0a000ce000700bb
:101b6000cf017800818071004f06be004f05be0096
:101b70004f04be00000006008c8343000d044c009f
:101b8000e0844c0060054d000000e9000a00e00020
:101b9000d4ff32008c8343000d044c00e0844c00e1
:101ba00060054d000000e900ceff37000c03430044
:101bb0008d834b0060044c00e0844c000000e90081
:101bc0000900e000d8ff32000c0343008d834b0076
:101bd00060044c00e0844c000000e900d2ff3700b4
:101be0004200de004e5edd000c007000c258de00d8
:101bf00001e0a000cf0178000300e000daff32002e
:101c000060001000e0801800d7ff3700f0ff2f00c1
:101c1000aaff3700f0ff2f00b9ff37000404be0011
:101c20007a000700870678000004fd008104fd00ab
:101c300076000700078366000678a30003003200e1
:101c40000960a7000800be002c0037000d78a30033
:101c5000020032000800be00280037000778a30009
:101c600026003a0001f0a10009f0a1000668a300d7
:101c700003003200f1ff2700f0ff2f00baff37000a
:101c80000d68a300030032000800be008c807000c5
:101c9000b5ff37000768a30007003a000648a30015
:101ca00003003200f1ff2700f0ff2f00aeff3700e6
:101cb0000d48a300030032006000b8008c80700063
:101cc000a9ff37000748a3000400320001f82700ed
:101cd000000020008c807000a3ff3700c1000700c7
:101ce0000004fd008104fd0002057800bd0007002e
:101cf0000802be008a01780059ff37000160a00089
:101d00001202200092ae880097ff37000100e00029
:101d1000120032000500e00010003200889fbe0073
:101d20008a9fbe008c9fbe000006eb0001f8a30056
:101d30000300320060001000e08018000cf0a000ea
:101d400005f8a3000300320060021200e0821a00ce
:101d50000cf0a2008005eb0041ff37006000b800e6
:101d6000020005000100e0002600320061011100c0
:101d70007810e10023003c006022b8007010e10000
:101d80000400350080027800010078008000eb003c
:101d9000700151000200e0000900340070031100de
:101da000062add00822ade008603dd0087827200bb
:101db0000200de00860bdd00070070008208de00f6
:101dc00084817100f4ff2700048262008481710025
:101dd00004002800848262006102600005f0a60011
:101de0000000060004827100070032000000e800d5
:101df000e0804800000006000002be006000b8005d
:101e0000efff37006000b800000006002700200048
:101e100001f0a70017002000470bde00f60fb2000c
:101e2000040032000643e8000a0032004702b30013
:101e30000000060001037800f607b20006037000f8
:101e400002003a000703b300000006008702b30057
:101e50000000060001037800f607b20006037000d8
:101e6000020032000770a000000006000760a0001a
:101e7000000006000478a300040032000578a300e7
:101e8000030032000168a30001003a000200be0016
:101e90000160a000000006008101700027003200f0
:101ea0008002eb0001f8a300030032006000100084
:101eb000e080180015002000f40720000202420014
:101ec00020003400f7032000870360000604200090
:101ed0000003630002082000000161004700de00eb
:101ee000c909dd0000807100c708de000600e000bf
:101ef0000800320087037100060032001000b000b5
:101f00000180b0000188a30002003200c108de0099
:101f10000402e800f107b200f30f20000320e10003
:101f200003003d004722dd008100720029003700d8
:101f300001f827000000eb00260037006000b80021
:101f400000000600680212007f20e1000200340059
:101f50006000b8001f0037006011b8007020e10079
:101f60000400350080017800010078008000eb005b
:101f7000700252000400e00009003400f003120077
:101f80000719dd008419de000703dd00868171007a
:101f90000400de00070bdd00060070008408de0090
:101fa000f7ff270083836300870371000600280082
:101fb00003036300070032000700e00003003a005b
:101fc0006101600002817300020032001000b00065
:101fd0000180b0000500a6000000060001f0a0008e
:101fe000000006004f0ade004709de00f107b200dc
:101ff000f20fb2000b003200f207b1000170a00036
:10200000c708dd00c901de00838070004700dd00e5
:102010000400a6000000060060001000e080180028
:1020200000000600810f700001003a000000060069
:102030008182cf000500e00010003e008082cf00ca
:10204000ee8242007028e1000400390007003e00e3
:10205000800078000000eb000e0037007083120053
:102060008600de000500dd000a00370070835200a4
:102070008600dd000000eb0006003700e28252001f
:102080008508dd00708312000603de008680700084
:102090000500dd007507b0000501ea000400a60098
:1020a0000000060060001000e0801800000006003c
:1020b0008001eb000200370061f079008301e80045
:1020c000828f5100fcff3a000000060010417800aa
:1020d000b141510003003a000000e8000204e000b2
:1020e000faff3a000300fb00000006000001780040
:1020f00000c2b300010037000201e80092407800fe
:1021000080cf5000fcff3200e9cf5000faff3200d0
:10211000d0c2b30080cf500003003a000201e800b3
:1021200014c0b300050037000042eb00b0c2b3009a
:1021300080cf500001003a000201e8008000eb006f
:1021400005fd2f00040037006a08b9000080410037
:10215000850040000201e8009201fb00058041007b
:10216000e90f5000f8ff36000404e00001003200df
:102170008100ea0001007800000006008001eb0009
:1021800002003700817178008301e800828f5100de
:10219000fcff3a000000060010417800814f51001a
:1021a000040032000000e8000204e000faff3a00f8
:1021b0000000eb0000000600800078003004e00022
:1021c000feff3a00010050000000e9000000060098
:1021d0000003780080027800020278008001eb00a2
:1021e000080037000402e90063c07800805a7800d4
:1021f0008301e8000004e00002003a008000eb00e8
:1022000006003700828f5100f6ff3a00fbff3700cf
:102210000040eb0080f07a008100e800848f5000dd
:10222000fbff3a0006007800000006000000fa00fc
:10223000cfb8970068815700630107000080fa005b
:1022400000000600810178000000e9000081eb0039
:10225000e50f500004003e00800040004082210055
:102260006081780003b0780002007800000006006a
:10227000000178000000e900e50f50000f003e006b
:102280008000400040822100e08078000100e000f2
:1022900002003a0010002000f4000700e18f400027
:1022a000060032000000eb00e18f50000400320015
:1022b0000200780001000100000005000080eb0032
:1022c0000000060010002000e9ff070010002000b9
:1022d000e6000700e4874700889fbe008a9fbe0093
:1022e0008c9fbe008e1f78000005780001077800e3
:1022f000820578000000eb0090ae88000100e0004d
:10230000010032008a0878000a047800b844780096
:102310000900fb00eff807000000e00002003200b7
:1023200008057800f8ff3700d0c2b30080cf540012
:1023300005003a00984478000a84e80010c0b30011
:1023400090f79f00070037000041eb0092f79f00d5
:10235000b0c2b30080cf540002003a009844780025
:102360000a84e80000c3b30080cf540017003a008d
:1023700008057800ba4478000b00e0000200320043
:10238000f08f550009003a0080c7b30080cf540099
:102390000300320080c5b30080cf540007003a002c
:1023a0009a4478000885e8000b0120006066b800b8
:1023b0000040eb0080f79f00100037000b00e000aa
:1023c000faff3a008b002000f8ff37000b00e00016
:1023d00003003a0008057800ab002000f3ff370047
:1023e00008057800f1ff37002002200090ae880039
:1023f0000205780012c0b300240037000904fb0076
:1024000008007800bbf807000000e000050032007b
:1024100008007800a1f8070091ccb3000144400007
:102420000500370001fd2f0001004400e90f5000b6
:1024300015003e0001c444000800fb008b0f500053
:1024400011003d006159b9000c00be0029f90700d8
:102450000801fb00cf91de000000410081804900af
:102460000a01e800800f5600818f5e00deff3e000b
:102470009a4478000205780012c0b30082f79f00ea
:102480000006be00ddff37000041eb000e00e0005b
:10249000030032000ff097000004e00004003a004f
:1024a0009e00780000c3b300914f100001003a0075
:1024b0000a0fe900e14f510003003a000086eb00eb
:1024c0008086eb00050037001ff197000204e00052
:1024d0000200320060061600e0861e000c00be00fe
:1024e0004f0778004f06be004f05be004f04be00e8
:1024f0004f00b10000000600889fbe008a9fbe000a
:102500008c1f7800800578000105780002067800ad
:102510000000eb0090ae88000b047800010037004b
:102520000804e800984478000900fb0069f80700f7
:102530000000e000faff3a00d0c2b30080cf5400a0
:102540000500320000c0e90080cf540002003200d4
:1025500080447800010037000804e8000c0178008e
:102560008a007800080078005aff07000001be00ca
:102570009a0f540001003a000b0d78009a8f550015
:1025800003003a00e00f5100e08f59000f003a00bd
:10259000b0c2b30080cf540004003a00e00f5100f5
:1025a000e08f590015003d0008003700d0c2b3008d
:1025b00080cf540011003a000000200001002800e4
:1025c000800f5100818f59000a0036002002200040
:1025d00090ae880002002000030028006b404000fd
:1025e00080cf540005003200f2ff2f00f3ff2700d8
:1025f0000200370060011100e08119000200be00f6
:102600004f0678004f05be004f04be0000000600d4
:102610000c00fa00889fbe0000047800cfb097003d
:10262000f0ff2700d0bf9f008004eb0099bf9f0000
:1026300088bf9f00a8bf9f00200c2000b0bf9f0054
:1026400078815700708057005f0007000fb897002f
:10265000094878000fb89700080450000800780077
:102660004f04be000080fa0000000600000478005d
:10267000940507000800780028f80700889fbe002e
:102680008a1f7800000578000000e00020003d006f
:102690000005ea00d0062000415d2100800f5500b2
:1026a0004000340042062000110009000205d80055
:1026b00000017800010078004311dd00495d210030
:1026c0001e003700a2002000811f780011000900c1
:1026d0000205d8000001780001007800cf007800e2
:1026e0004311dd00010141004300dd000100400015
:1026f0003002be002003be0042209000d220900095
:10270000f221900062219000f02f07002b0037008b
:10271000d006200041682100800f550021003400c0
:1027200042062000110009000205d80000017800cf
:10273000010078004311dd004968210009014100d2
:10274000a8002000110009000800d8004300dd00a7
:102750000900400040229000d022900060239000a9
:10276000f02390000288900092889000b289900037
:1027700022899000d52f0700801f78000102780081
:10278000110009000805d8000102fd004f00780083
:102790004322dd00090242005403be004402be0091
:1027a000d9ff3700ea0f5500c6ff3c004350dd005b
:1027b000010040005001be004000be004f057800ff
:1027c0004f04be00000006008f03b000889fbe00cb
:1027d0008a9fbe008c9fbe008e1f7800e0b79f00ce
:1027e000f1b79f0082bf9f000000eb00a0b79f00e1
:1027f000e00437008001eb0050c2b30080cf5000ee
:10280000090032000100fb00efb09700e60407006a
:10281000e10f4000d7043200afb097008100e8001c
:10282000a1b79f00d30437007fb197009240780092
:10283000d0c2b30080cf50000c00320007003c0033
:102840006d40500080cf50000d0032006b404000c2
:1028500080cf500019003a000e00370000c3b300cb
:1028600080cf500015003a000f0037000330a00061
:102870007fb297000402e800f4b79f00eaff370038
:102880000300a000ffb297008502e800f5b79f00a3
:10289000e5ff37000310a0007fb697000c06e800a4
:1028a000fcb79f00e0ff37000320a0007fb0970037
:1028b0000000e800f0b79f00dbff37000318a3001b
:1028c000010032000300a1000338a3000100320020
:1028d0000320a1000100fb0002fd2f0002004000c8
:1028e000e90f500010003e008000eb00c1b79f00d0
:1028f000020278004fb197006a10b900ffb297004a
:102900001501fb000001410004014100c2b79f0016
:102910005500fb00f5b79f0004004000e90f500090
:102920000d003e00f3ff37000006eb00ccb79f0020
:10293000a0c2b30080cf500007003a000fb8970044
:10294000c000780080bf9f00c1b79f007fb1970093
:102950000201e800f2b79f00e0c2b3007fb2970027
:10296000944f100021003a00830678000de0a0008b
:102970008400e80064405000914f100004003200d1
:10298000f1b79f008002eb00b5b79f001000370041
:102990000fbe97004c0078008cbf9f00b0b79f001f
:1029a000ffb097008180e800f1b79f001300370067
:1029b0003fb297006a20b9000000410003004000c8
:1029c000b0b79f00ffb297008502e800f5b79f00ff
:1029d0007fb697001c01fb0003fd2f0003004100a0
:1029e000e90f5000f2ff360004003700830678003c
:1029f0000dc0a0000000eb00b0b79f007fb19700b2
:102a0000b2407800f2b79f00c17f9f00c0c6b300fc
:102a100080cf50002700320014003c006840500076
:102a200080cf50009d00320009003c006c405000f7
:102a300080cf5000290032006b40400080cf500012
:102a4000720032000104e000500432008e003700b2
:102a500060c6b30080cf50001c00320063404000cd
:102a600080cf500088003a008c00370030c7b30098
:102a700080cf50001c00320007003c006440500032
:102a800080cf5000130032000040e80080cf50009b
:102a90007d003a001100370050c7b30080cf5000ce
:102aa0007d0032006340400080cf500076003a0045
:102ab0000b003700000028000d48a30001003a0079
:102ac0000001200080867600ccff37000da0a0001a
:102ad000720037000d60a000700037000d50a0009c
:102ae0000d70a0006d0037008fb99700430078008b
:102af00083bf9f00000478000000e00001003a005e
:102b0000487d21008004eb00010037008104e800cb
:102b100089007800088044001004e000fbff3a00c0
:102b20003fb297000400e00003003200890f52001a
:102b300001003100840478000007eb00cfb2970059
:102b4000898f520001003600098752004368de0079
:102b5000e106600019003a000d0678000900370010
:102b6000efb09700000220000f040700e10f4000c3
:102b7000030032002fb097000000e800a0b79f00cc
:102b80000c06e8008e0f5600f5ff3a000087eb00b8
:102b90000a003700880078003100fb00010478004b
:102ba000efb0970000040700e10f4000030032007f
:102bb000afb097008100e800a1b79f000900e900cd
:102bc00080047800e10f4000f2ff3a000006eb00bd
:102bd0000d00e0000a003a00e6033700efb097006e
:102be00000022000f0030700e10f40000300320064
:102bf0002fb197000201e800a2b79f000c06e80081
:102c00008e0f5600f5ff3a00da0337008fb99700b0
:102c10004300780083bf9f00cf80de000101780071
:102c2000820178000205be000004be000203be005f
:102c30000002be004822de00482edd0004027600bd
:102c4000c47f9f000d48a3000a0032000404e00086
:102c500008003200e14f420006003200d1fb2f0095
:102c6000018047000448780018409800290020009f
:102c700002003700d07f9f0019002000d2fb2f00f8
:102c800002844700a6ff3700c3fb2f0003844700e0
:102c900019002000a2ff37000d0cb30000702000c7
:102ca00000826600210232000dc8a300020032003b
:102cb00064002000b4b79f008fba9700688152006b
:102cc00082bf9f003200be001201be00e0af9f0035
:102cd000f1af9f0082b79f0093b79f006022b800ba
:102ce0006033b8006fa89700ffa897000fb1970056
:102cf0009fb1970095f807000000e0000a003d0032
:102d00006fa89700ffa897000fb197009fb1970099
:102d100003f0a200e0af9f00f1af9f0082b79f00d9
:102d200093b79f003d00b3000000eb0080a79f0019
:102d30006022b8006033b8006fa89700ffa8970022
:102d40000fb197009fb1970085f807000000e000e1
:102d50003300320001fc2f00018247006fa897006a
:102d6000ffa897000fb197009fb1970081f8070067
:102d70000fa097000000e9006300b900a200200046
:102d8000110009000200d8008000fd0081a79f000b
:102d90000100e00002003d000100e90080a79f0063
:102da0000fa497000800ea0034fe07006faa9700fe
:102db000ffaa97000fb397009fb39700432e070019
:102dc000a0af9f00b1af9f00c2af9f00d3af9f00e5
:102dd0006022b8000600200007ff23005bf8070010
:102de0000000e00002003d000800e9000b00370091
:102df0006022b80006002000470224002fa8970098
:102e0000bfa897004fa99700dfa9970076f80700a1
:102e10000000e000020035000800e80080a79f00e5
:102e20003fb19700f80f510057003c00d0c6b300e7
:102e3000804f5100290036000285fb004206200029
:102e4000110009000285d800000178000104780013
:102e50004311dd004b5d21000b0141006022b800f1
:102e60000600200007fe2300028890009288900050
:102e7000b289900022899000142e0700a90020003a
:102e8000809fbe00110009000984d800000478006a
:102e90004f00be004344dd000b0444004822900074
:102ea000d822900068239000f8239000072e070096
:102eb000801f780001027800110009000985d80000
:102ec0000102fd004f0078004322dd000b024200aa
:102ed0005403be004402be001f0037000280fb0006
:102ee000495d2100ea4f510014003600a200200085
:102ef000110009000280d800000178000104780068
:102f00004311dd00090141006022b80006002000e5
:102f100007fe230042209000d2209000f221900072
:102f200062219000e92d07004344dd0009044400bc
:102f30003802be002803be00070037004300dd0052
:102f4000090040006022b8000600200007fe2300b0
:102f50005001be004000be00dc2d07000002be0094
:102f60000203be006fa89700ffa897000fb197005b
:102f70009fb19700072a0700e0af9f00f1af9f00c5
:102f800082b79f0093b79f000fa49700e90f5400ea
:102f900015003c006022b8006033b8006fa89700ad
:102fa000ffa897000fb197009fb19700ecf70700bb
:102fb0000000e000320032006fa89700ffa89700e1
:102fc0000fb197009fb197000cf80700e00f500079
:102fd000e08f5800e00f5900e08f590028003a00b8
:102fe000e10f54002600340054692d0065822e0044
:102ff000b6e02200170124002fa89700bfa8970071
:103000004fa99700dfa99700d0f707000000e00064
:1030100002003d00730054000100370072005400ac
:1030200080a79f000fa0970094fd0700a0af9f000e
:10303000b1af9f00c2af9f00d3af9f000002be00a0
:103040000203be006fa89700ffa897000fb197007a
:103050009fb19700182b0700e8f707000205be0094
:103060000004be006000b8006011b800a0a79f0077
:10307000b1a79f00c2a79f00d3a79f002e003700d3
:103080006fa89700ffa897000fb197009fb1970016
:10309000daf707000205be000004be00e00f500092
:1030a000e08f5800e00f5900e08f59000200350012
:1030b00003f8070013003700100020000100200073
:1030c0006011b80008006000898060000a0161009a
:1030d0008b8161008b03d1000a83d3008982d300e6
:1030e0000882d30000007200818072000201730028
:1030f00083817300f2f707000002be000203be00e6
:10310000a42907000002be000203be006fa89700ba
:10311000ffa897000fb197009fb1970043280700c1
:10312000a0a79f00b1a79f00c2a79f00d3a79f00a1
:103130000000eb0080a79f0014c0b300457321007e
:103140000b0037000400fb004300dd0005004000d9
:103150005001be004000be000040e10001c8e10097
:1031600002d0e10003d8e100030039000442e80086
:10317000f44f5200f3ff3a00c47f9f000400fb00ad
:10318000bfb09700008040008fa097000100400072
:103190004fb1970000075100bfb197000300e00056
:1031a000010032000e07e900638066000100320072
:1031b0000e07e9000d28a30026003200e18066001a
:1031c0000d18a3000c003200d00220000100e00026
:1031d00001003a000080e900efb09700720207009a
:1031e000e10f4000180032002fb297000402e800ff
:1031f000a4b79f00140037000100e0001200320065
:10320000efb097000002200067020700e10f4000c6
:103210000d003200afb297008502e800a5b79f000d
:1032200009003700efb09700000320005e0207009e
:10323000e10f4000030032002fb697000c06e800b3
:10324000acb79f000e07e9000e00e000f5ff3c0060
:103250003d0037000d38a3000a0032000b00370094
:10326000efb09700000220004f020700e10f40007e
:10327000030032002fb097000000e800a0b79f00c5
:103280000e07e9000e00e000f5ff3c00e18066005b
:103290000d18a3000c003200d00220000100e00055
:1032a00001003a000080e900efb097003e020700fd
:1032b000e10f400024003200afb097008100e80029
:1032c000a1b79f00200037000100e0001e0032007f
:1032d000efb097000002200033020700e10f40002a
:1032e000190032002fb197000201e800a2b79f0039
:1032f000150037000000fb004300dd004173210092
:10330000010040003002be002003be000800be00e5
:103310000a01be007cf60700a40020000500200082
:103320006033b8007ff607000003b000efb09700ed
:103330001d020700e10f400003003200afb197000b
:103340008301e800a3b79f004f7a97000440e9008b
:10335000c07f9f00e14f4000e6ff3a000b003700be
:10336000efb09700000320000f020700e10f4000bc
:1033700003003200afb297008502e800a5b79f00b6
:103380000fa097000000e90080a79f000fa0970002
:103390000000e000f2ff3c003fb6970020c1b30000
:1033a000f20f560001003c006fe09700c07f9f00c5
:1033b000cf7897000100fb003fb19700000051005b
:1033c000e0a79f000104e00008003200efb0970082
:1033d000e0022000f4010700e10f4000030032008a
:1033e000afb197008301e800a3b79f004f7a970021
:1033f0000400fb00a1fc07000002be000203be00a7
:103400002fa09700bfa097004fa19700dfa19700c2
:10341000ae2c0700f9f607001e0037000000fb0085
:103420004300dd004c7321000c0040003002be0060
:103430002003be000800be000a01be0032f60700ed
:10344000a4002000050020006033b80035f6070016
:103450000003b000efb09700d3010700e10f400078
:1034600003003200afb297008502e800a5b79f00c5
:10347000cf7897000100fb004300dd000c00400006
:103480003002be002003be000800be000a01be00dc
:1034900024f607000205be000004be004f79970025
:1034a0000240e900c07f9f00e14f4000dbff3a008f
:1034b0000006eb0009003700efb097000003200082
:1034c000b9010700e10f400003003200afb19700df
:1034d0008301e800a3b79f000c06e8006fa29700e5
:1034e000840f5600f4ff3a000d38a300a10132000a
:1034f0000e00e0009f0134000006eb00efb09700e3
:1035000000022000a8010700e10f40000300320084
:10351000afb297008502e800a5b79f000c06e8004f
:103520008e0f560093013200f4ff37000d00780033
:10353000000cb20028003a000d00e00005003d003c
:103540000fbe97004c05be004c04be008cbf9f0010
:10355000140037000d48a3000b0032000fb997008c
:103560004200be0082bf9f004f89de00cf91de0087
:103570000002be0002037800820378000605be0048
:103580000404be00070037008fb99700430078009d
:1035900083bf9f0000047800cfc4de0009057800d7
:1035a0008a057800e00f5400e08f5c00e00f5d00ba
:1035b000e08f5d0020003d003d00b3006000b800da
:1035c0006011b80008045000898458000a055900a9
:1035d0008b855900180037000d00e00005003d0004
:1035e0000fba97004405be004404be0084bf9f008c
:1035f000110037000d48a300080032008fba970071
:103600004500be0085bf9f0004017800840178005a
:103610000205be000004be00070037000fbe970081
:103620004c0078008cbf9f00000478000900200047
:103630000a0020000b0020003fb097000000e000cf
:1036400007003a00e00f5400e08f5c00e00f5d00df
:10365000e08f5d0002003a0011002000b1b79f002a
:103660000d0778000e0cb20000042000800f5700f8
:103670002f00320003003c000e00e0000700320083
:103680003f00370000082000800f57001400320070
:10369000000c2000800f570039003a0014c0b3001e
:1036a000457321000b0037000400fb004300dd00e0
:1036b000050040005001be004000be000040e10097
:1036c00001c8e10002d0e10003d8e1002b0039007d
:1036d0000442e800f44f5200f3ff3a00270037009d
:1036e00000012000010020006011b80014c0b300e8
:1036f0000040e10001c8e10002d0e10003d8e10090
:103700001e003900450020000000d0008180d2005a
:103710000281d2008381d2008502e900faff3a00db
:103720000442e800f04f5200f1ff3a001300370066
:1037300080002000010020006011b80014c0b30018
:103740000040e10001c8e10002d0e10003d8e1003f
:103750000a0039003c0020000000d0008180d20027
:103760000281d2008381d2000c06e900faff3a0000
:103770000442e800f54f5200f1ff3a00c47f9f0079
:10378000cf7897000100fb003fb19700820f5000f7
:1037900002003d00c27f9f0004003700bfb19700c8
:1037a000808f510001003d00b0b79f004fb29700dd
:1037b0000400e00004003200638066000200320072
:1037c0000402e900c4b79f000de8a3000b0032001b
:1037d000cfb297003fb697008c8f520003003c0099
:1037e0000000eb00c0b79f0004003700cfb0970087
:1037f0003fb1970082805000c1b79f00cf799700fa
:103800000300fb000002eb0094a79f00cfb29700db
:10381000808f5200020034000080520090a79f0069
:103820000d28a30037003200e18066000d18a300c8
:103830000c003200d00220000100e00001003a003c
:103840000080e900efb09700d7000700e10f4000cb
:103850000e0032002fb697000c06e800acb79f00b0
:103860000a0037000100e00008003200efb09700c6
:1038700000022000cc000700e10f400003003200ee
:103880002fb097000000e800a0b79f009fa097000e
:103890000100e0000f0032000006eb00efb09700df
:1038a00000032000c0000700e10f400003003200c9
:1038b0002fb197000201e800a2b79f000c06e800b4
:1038c0009fa19700830f5600f4ff3a000002eb001f
:1038d00094a79f00bfb29700c328dd00c0722100eb
:1038e0008080400091af9f004228dd0064005000be
:1038f00080af9f006328b900f0a79f0063065000c7
:10390000820037001fa697000c00e0001100320073
:10391000688066000f003a0000067800efb097005c
:1039200000022000a0000700e10f40000300320069
:103930002fb097000000e800a0b79f000c06e80039
:103940009fa09700810f5600f4ff3a000001eb00a2
:1039500092a79f00e18066000d18a3000c003200c2
:10396000d00220000100e00001003a000080e900e0
:10397000efb097008c000700e10f4000d5ff320048
:10398000afb197008301e800a3b79f00d1ff3700d4
:103990000100e000cfff3200efb0970000022000ee
:1039a00081000700e10f4000caff32002fb29700ec
:1039b0000402e800a4b79f00c6ff370000042000ff
:1039c000800f57003000320003003c000e00e00082
:1039d000070032003d00370000082000800f57002c
:1039e00011003200000c2000800f570037003a0011
:1039f0001fa897003002be002003be000800be00d2
:103a00000a01be00c0f40700a40020000500200049
:103a10006033b800c3f4070004c3b300044240009d
:103a2000c47f9f0029003700b57d2100d5b79f00d6
:103a30000d58a30002003a00c07e2100d0b79f00bd
:103a400014002000050020006033b8008fa8970004
:103a50008100e900050033000402d0008582d20015
:103a60000683d2008783d200f9ff37000800be002a
:103a70000a01be00a4f407006f0060005fb1970068
:103a8000624078001000370014002000050020007c
:103a90006033b8008c0178008301e9000500330031
:103aa0000402d0008582d2000683d2008783d20030
:103ab000f9ff37000800be000a01be0092f40700bb
:103ac000674060000043b000c07f9f004f7a9700be
:103ad0000400fb00efb0970033000700e10f400047
:103ae00003003200afb297008502e800a5b79f003f
:103af0001fa897006800500090af9f008fa8970004
:103b0000e480500081af9f0063065600d0ff2f0075
:103b10003fb197000090b900ffa1970000804100dd
:103b200063005000800f5600a4ff3a000d38a30038
:103b3000100032001fa297000400e0000d003400c6
:103b40000006eb00efb0970000022000160007000f
:103b5000e10f400003003200afb297008502e80099
:103b6000a5b79f000c06e8001fa09700800f560025
:103b7000f4ff3a007fb19700b2407800f2b79f009f
:103b8000c17f9f000104e0001afb3a002fb09700ac
:103b90004f0778004f06be004f05be004f04be0021
:103ba0008f03b10000000600889fbe00000178006e
:103bb00001047800b10090000118a3003d0032001c
:103bc0000198a30003003a00180090000000e000f4
:103bd00038003a000190a000310498008204780077
:103be000f90fb200180090000000e00002003a0057
:103bf00028009000000c7800ea8f540006003a007c
:103c0000380090000078a30003003a008800780094
:103c1000d0002000e4ff07009800900058009000ba
:103c2000808f50000b0032000100e8001004980063
:103c30001800780009587800000c780011c0b30013
:103c40004083210001487800ea8f540006003200ca
:103c50001900370088007800094078002700070025
:103c60008004780014003700380090000088a3001a
:103c70001100320018019000a80090004800900048
:103c8000aef2070098009000810f5000040032004f
:103c9000380090000003b300300498008084eb00eb
:103ca0000000eb001004980028009000000c780041
:103cb000010037008084eb00090078004f04be004b
:103cc00000000600881f7800b0c180000000e000fe
:103cd0000100320000000100088021000800780087
:103ce000490007006c04440040822100800f54000a
:103cf000faff3a004f047800000006000200fa00c4
:103d0000889fbe00a0ff9f0001047800b1009000d2
:103d1000810478000904b200020032000000fb00b8
:103d2000360037000118a30005003a000103b30074
:103d300031049800190498000080eb002f00370030
:103d4000580090000000e00006003a004800900093
:103d500012002000e680570078f20700190498004e
:103d600024003700280090000000e00008003a001e
:103d70000083210020049800000c7800200020001f
:103d800050049800100498000130a00031049800fd
:103d900018019000a80090004800900067f207000a
:103da00028009000000c78000080eb0010049800c0
:103db00018007800aff8970001587800000c7800e0
:103dc0002ff89700ea4f50000a003a0038009000a0
:103dd0000088a3000700320018019000a80090009e
:103de0004800900055f2070019049800a8009000c0
:103df000010c7800aff897000100fb004f04be00f3
:103e00000080fa0000000600889fbe008a1f78002c
:103e1000000478003000900063006000240032004d
:103e200008007800300007003805900080ef2f0070
:103e30000000650030049800280090000000e000b9
:103e400004003200e804650002003a005f00070049
:103e500029049800480090006ff20700e10f40002d
:103e600013003200b80090000102b20010003a00c6
:103e70000ac8a30018003200d0c180000000e00092
:103e8000150032000001780081047800012a20002a
:103e900012289000880f5000070032004205b00041
:103ea0004905b000818f54000b003200f8ff370045
:103eb0000080eb0009003700020078005ff2070085
:103ec000d0c18000090040008000eb00112898005c
:103ed00001007800010037000000eb004f0578007a
:103ee0004f04be0000000600881f78000004780020
:103ef000300090000008a300070032008000780026
:103f00000120b20004003a0011049800a8009000bb
:103f1000010c7800170037000018a30019003200c8
:103f20000098a30017003200a80090000100e000f4
:103f300014003200180190000200e000110032006d
:103f400048009000fdf1070098009000810f50009c
:103f500003003200380090000003b30030049800e2
:103f60000000eb001004980028009000000c78007e
:103f7000380090000058a300020032000080eb00df
:103f8000010037000000eb004f047800000006003d
:103f9000c1c180000100e000030032001100780080
:103fa000c0c1880003003700200020002cf2070069
:103fb00080007800e18f400002003a00906e2600f9
:103fc00090ae88000100780000000600c1c18000aa
:0c3fd00001087800c0c188000000060055
:020000040000fa
:020000040002f8
:04aff8004ff900000d
:020000040000fa
:020000040002f8
:04affc00893f000089
:020000040000fa
:10000800ec900000ee900000f29000001e910000bd
:1000180022910000ec900000ec900000ec900000b1
:10002800ec900000ec900000ec9000005e91000065
:10003800ec900000ec900000ec900000ec900000c8
:100048004a780000ec900000ec9000005c8300000f
:10005800ec900000ec900000ec900000ec900000a8
:10006800ec900000ec900000ec900000ec90000098
:10007800ec900000ec900000ec900000ec90000088
:10008800ec900000ec900000ec900000ec90000078
:10009800ec900000ec900000be830000ec900000a3
:1000a800ec900000ec900000ec900000ec90000058
:1000b800ec900000ec900000ec900000ec90000048
:1000c800ec900000ec900000ec900000ec90000038
:1000d800ec900000ec900000ec900000ec90000028
:1000e800ec900000ec900000ec900000ec90000018
:1000f800ec900000ec900000ec900000ec90000008
:10010800ec900000ec900000ec900000ec900000f7
:10011800ec900000ec900000ec900000ec900000e7
:10012800ec900000ec900000ec900000ec900000d7
:10013800ec900000ec900000ec900000ec900000c7
:10014800ec900000ec900000ec900000ec900000b7
:10015800ec900000ec900000ec900000ec900000a7
:10016800ec900000ec900000ec900000ec90000097
:10017800ec900000ec900000ec900000ec90000087
:10018800ec900000ec900000ec900000ec90000077
:10019800ec900000ec900000ec900000ec90000067
:1001a800ec900000ec900000ec900000ec90000057
:1001b800ec900000ec900000ec900000ec90000047
:1001c800ec900000ec900000ec900000ec90000037
:1001d800ec900000ec900000ec900000ec90000027
:1001e800ec900000ec900000ec900000ec90000017
:0801f800ec900000ec90000007
:020000040000fa
:10020800ec900000269100002a9100002e91000039
:1002180032910000ec900000ec900000ec9000009f
:10022800ec900000ec900000ec9000005e91000063
:10023800ec900000ec900000ec900000ec900000c6
:100248004a780000ec900000ec9000005c8300000d
:10025800ec900000ec900000ec900000ec900000a6
:10026800ec900000ec900000ec900000ec90000096
:10027800ec900000ec900000ec900000ec90000086
:10028800ec900000ec900000ec900000ec90000076
:10029800ec900000ec900000be830000ec900000a1
:1002a800ec900000ec900000ec900000ec90000056
:1002b800ec900000ec900000ec900000ec90000046
:1002c800ec900000ec900000ec900000ec90000036
:1002d800ec900000ec900000ec900000ec90000026
:1002e800ec900000ec900000ec900000ec90000016
:1002f800ec900000ec900000ec900000ec90000006
:10030800ec900000ec900000ec900000ec900000f5
:10031800ec900000ec900000ec900000ec900000e5
:10032800ec900000ec900000ec900000ec900000d5
:10033800ec900000ec900000ec900000ec900000c5
:10034800ec900000ec900000ec900000ec900000b5
:10035800ec900000ec900000ec900000ec900000a5
:10036800ec900000ec900000ec900000ec90000095
:10037800ec900000ec900000ec900000ec90000085
:10038800ec900000ec900000ec900000ec90000075
:10039800ec900000ec900000ec900000ec90000065
:1003a800ec900000ec900000ec900000ec90000055
:1003b800ec900000ec900000ec900000ec90000045
:1003c800ec900000ec900000ec900000ec90000035
:1003d800ec900000ec900000ec900000ec90000025
:1003e800ec900000ec900000ec900000ec90000015
:0803f800ec900000ec90000005
:020000040000fa
:103fdc000000000089110000122300009b32000039
:103fec0024460000ad57000036650000bf74000089
:103ffc00488c0000c19d00005aaf0000d3be0000e9
:10400c006cca0000e5db00007ee90000f7f8000058
:10401c008110000008010000933300001a220000f8
:10402c00a55600002c470000b77500003e64000048
:10403c00c99c0000408d0000dbbf000052ae0000a8
:10404c00edda000064cb0000fff9000076e8000018
:10405c00022100008b3000001002000099130000b8
:10406c0026670000af76000034440000bd55000008
:10407c004aad0000c3bc0000588e0000d19f000068
:10408c006eeb0000e7fa00007cc80000f5d90000d8
:10409c00833100000a200000911200001803000078
:1040ac00a77700002e660000b55400003c450000c8
:1040bc00cbbd000042ac0000d99e0000508f000028
:1040cc00effb000066ea0000fdd8000074c9000098
:1040dc00044200008d530000166100009f70000028
:1040ec0020040000a915000032270000bb36000098
:1040fc004cce0000c5df00005eed0000d7fc0000d8
:10410c0068880000e19900007aab0000f3ba000067
:10411c00855200000c430000977100001e600000e7
:10412c00a114000028050000b33700003a26000057
:10413c00cdde000044cf0000dffd000056ec000097
:10414c00e998000060890000fbbb000072aa000027
:10415c00066300008f720000144000009d510000a7
:10416c0022250000ab34000030060000b917000017
:10417c004eef0000c7fe00005ccc0000d5dd000057
:10418c006aa90000e3b80000788a0000f19b0000e7
:10419c00877300000e620000955000001c41000067
:1041ac00a33500002a240000b116000038070000d7
:1041bc00cfff000046ee0000dddc000054cd000017
:1041cc00ebb9000062a80000f99a0000708b0000a7
:1041dc0008840000819500001aa7000093b6000027
:1041ec002cc20000a5d300003ee10000b7f0000097
:1041fc0040080000c9190000522b0000db3a0000f7
:10420c00644e0000ed5f0000766d0000ff7c000046
:10421c0089940000008500009bb7000012a60000e6
:10422c00add2000024c30000bff1000036e0000056
:10423c00c118000048090000d33b00005a2a0000b6
:10424c00e55e00006c4f0000f77d00007e6c000006
:10425c000aa5000083b400001886000091970000a6
:10426c002ee30000a7f200003cc00000b5d1000016
:10427c0042290000cb380000500a0000d91b000076
:10428c00666f0000ef7e0000744c0000fd5d0000c6
:10429c008bb5000002a40000999600001087000066
:1042ac00aff3000026e20000bdd0000034c10000d6
:1042bc00c33900004a280000d11a0000580b000036
:1042cc00e77f00006e6e0000f55c00007c4d000086
:1042dc000cc6000085d700001ee5000097f4000016
:1042ec0028800000a19100003aa30000b3b20000a6
:1042fc00444a0000cd5b000056690000df780000e6
:10430c00600c0000e91d0000722f0000fb3e000055
:10431c008dd6000004c700009ff5000016e40000d5
:10432c00a990000020810000bbb3000032a2000065
:10433c00c55a00004c4b0000d77900005e680000a5
:10434c00e11c0000680d0000f33f00007a2e000015
:10435c000ee7000087f600001cc4000095d5000095
:10436c002aa10000a3b0000038820000b193000025
:10437c00466b0000cf7a000054480000dd59000065
:10438c00622d0000eb3c0000700e0000f91f0000d5
:10439c008ff7000006e600009dd4000014c5000055
:1043ac00abb1000022a00000b992000030830000e5
:1043bc00c77b00004e6a0000d55800005c49000025
:1043cc00e33d00006a2c0000f11e0000780f000095
:1043dc007374000072200000213d000020280000b2
:1043ec003029000000730000726300005c6900005b
:1043fc006e6900005c6d0000696e0000496e000083
:10440c00692e000063000000257300003a250000af
:10441c006920000025730000202d00002d200000d5
:10442c00617300007365000072740000696f000016
:10443c006e20000066610000696c0000656400007d
:10444c000a0000006261000073650000202100007a
:10445c003d2000002830000029000000707400008e
:10446c0072200000213d00002028000030290000af
:10447c00006d0000617800006c6500006e3e00006d
:10448c00300000006465000073740000203c0000e4
:10449c003d200000736f0000757200006365000022
:1044ac00207c00007c200000646500007374000018
:1044bc00203e00003d200000736f0000757200006c
:1044cc0063650000202b0000206d00006178000067
:1044dc006c6500006e000000642000003c200000b1
:1044ec006d610000786c0000656e0000003000000b
:1044fc000073000074720000696e000067200000f9
:10450c00213d00002028000030290000007100002f
:10451c00756f00007465000073200000213d0000e1
:10452c0020280000302900000065000070200000e9
:10453c00213d00002028000030290000202600002a
:10454c0026200000282a000065700000203d000095
:10455c003d200000275c000030270000207c00007c
:10456c007c2000002a650000702000003d3d00000a
:10457c00202700003b270000207c00007c2000004e
:10458c002a650000702000003d3d0000202700003f
:10459c002327000029000000667000002021000085
:1045ac003d20000028300000290000002a65000092
:1045bc00702000003d3d0000202700005d2700001a
:1045cc00004b000065790000202100003d20000018
:1045dc0028300000292000007c7c000020690000ad
:1045ec00647800004b650000792000003e3d00001f
:1045fc0020300000002a000065700000203d000003
:10460c003d200000273d0000272000007c7c00009e
:10461c00202a000065700000203d00003d200000b5
:10462c00273a000027000000720000000000000084
:10463c0064650000766300006f6e00006669000020
:10464c00672e0000696e000069000000747800009d
:10465c005f640000656c000061790000004100009f
:10466c0050520000535f00005345000054540000aa
:10467c00494e00004753000000700000726f0000ac
:10468c00706100007468000000610000707200002e
:10469c00735f0000736900006d6200006f6c0000b6
:1046ac005f740000616200006c6500000061000036
:1046bc0070720000735f0000736900006d6200008f
:1046cc006f6c000000730000726300005f610000fb
:1046dc00646400007200000064730000745f0000ea
:1046ec00616400006472000000720000656c0000e0
:1046fc00617900005f6100006464000072000000da
:10470c00736200005f6900006e7400006572000047
:10471c00766100006c5f00006d6900006e000000a7
:10472c00534d000041520000545f00004245000010
:10473c00414300004f4e0000494e0000475f00000f
:10474c005345000054540000494e000047530000ec
:10475c0000730000625f0000706f0000736900005e
:10476c00745f000066610000737400005f730000ea
:10477c006563000000730000625f0000706f000052
:10478c0073690000745f0000736c00006f770000a9
:10479c005f6d0000696e000000730000625f000036
:1047ac006c6f0000775f000073700000656500009f
:1047bc00645f00006c6900006d690000745f0000ac
:1047cc006b6d000068000000736200005f68000001
:1047dc0069670000685f0000737000006565000089
:1047ec00645f00006c6900006d690000745f00007c
:1047fc006b6d0000680000000095000000000000d8
:10480c000000000001f900000000000000000000a2
:10481c0008870000040000000000000009af000041
:10482c0000000000010000000a1b00000000000056
:10483c00010000000cc3000001000000000000009b
:10484c000daf0000020000000000000010ff00008f
:10485c00000000000000000011ff0000000000003c
:10486c000100000012ff0000000000000100000029
:10487c0018ff0000000000000100000019ff0000fc
:10488c00000000000100000020ff000000000000fc
:10489c000000000021ff00000000000000000000ec
:1048ac0026df00000100000000000000377300004c
:1048bc0000000000000000003a2500000400000089
:1048cc00000000003b25000000000000000000007c
:1048dc0029ff0000040000000000000017ff00008a
:1048ec00000000000000000000000000f9180000ab
:1048fc00fb3000001c470000825a00006d6a00006b
:10490c0041760000897d0000ff7f0000897d00005a
:10491c00417600006d6a0000825a00001c470000be
:10492c00fb300000f91800000000000007e7000051
:10493c0005cf0000e4b800007ea5000093950000b0
:10494c00bf890000778200000180000077820000a0
:10495c00bf890000939500007ea50000e4b800001c
:10496c0005cf000007e70000244700005047000077
:10497c00474100000024000047500000524d000049
:10498c00430000002447000050560000544700002c
:10499c0000240000504d0000544b000000000000ab
:1049ac005749000044450000002f0000413d000025
:1049bc0000200000253200002e3100006656000059
:1049cc0000200000253200002e310000664300005c
:1049dc0000000000e4860000028f0000b28d000091
:1049ec00dc7d0000a0910000088d00009a8f000073
:1049fc0048840000d4880000c890000025300000d6
:104a0c003258000000000000202500007300000058
:044a1c000401000091
:020000040000fa
:104a200010c0b300aae8b7000040eb002cf5b700b7
:104a300022f5b7000080eb008080eb00f0a8880032
:104a400001a9880030a9880041a98800061e070036
:104a5000e0d720001e0507008000eb000004e00006
:104a600002003a00c86cef0011002000010078003d
:104a7000000006006f06b000889fbe008a9fbe003f
:104a80008c9fbe008e1f780000077800f1b79f0052
:104a900082f79f0093f79f0060109000f0879f00bf
:104aa000c1109000a1b79f007fb19700d210900075
:104ab000216d88000100e00002003a00a1df9f00a4
:104ac00010003700d2002000811f7800110009007b
:104ad0008280d8000001780001007800cf007800c3
:104ae000824178000004e00004003a00ec8f50009e
:104af00002003600a2df9f00020037008341e80079
:104b0000a3df9f001e189000ae189000301f980081
:104b1000411f9800ffb09700011890000080ea0044
:104b2000d0b79f007f8097000000e00008003a00a7
:104b300012c0b300e1f82f008f8040000e00780013
:104b40004f0807000000e000c4033a00c00337002c
:104b50006f006000c103320012c0b300e1f82f0003
:104b60008f8040000e007800450807000000e0003c
:104b7000ba033a00b60337000041eb00f2df9f00b2
:104b8000e8aa20000af02f00fb0f2000e2f82f0017
:104b90000f01410001f92f008f8040000e007800c6
:104ba0005c0e0700e24f5000ef0332000004e0000b
:104bb0008b033a003f589700ef4f50000b00320034
:104bc000e0aa20008f51970003587800e4f82f00e6
:104bd0000f024200e30042006d01420031587800ac
:104be000810f5100db003200fcff37000f509700af
:104bf0000068a3007c003200ff4060001ff19700b6
:104c00000204e0000c003a00a40de20004003200af
:104c1000afd9970081cf510003003a00060037005a
:104c2000e1cf5000040032007f8297000402e800c8
:104c3000f4879f00d5ff370000027800f40bb20024
:104c40006d22b900840042000180e900ff919700c5
:104c500003307c0064805000ef91970003307c00ab
:104c600066805000cf91970003307c006880500030
:104c7000bf91970003307c006a805000af9197008d
:104c800003307c006c8050009f91970003307c00c3
:104c90006e8050008f91970003307c007080500030
:104ca000ff89970003307c001f5897000080fb00ad
:104cb0008a846400808474002f5897004800dd00c7
:104cc0008b846400808474007280500009307c0002
:104cd0007f5097000080fb008a8464008084740009
:104ce0000f5897004800dd008b84640080847400b6
:104cf0007480500009307c005f5097000080fb00fa
:104d00008a846400808474006f5097004800dd003e
:104d10008b846400808474007680500009307c00ad
:104d20003f5097000080fb008a84640080847400f8
:104d30004f5097004800dd008b846400808474002d
:104d40007880500009307c001f5097000080fb00e5
:104d50008a846400808474002f5097004800dd002e
:104d60008b84640080847400fa80500089307c0059
:104d7000ee0652006d0152000200410008004000a2
:104d80008200780004067800d2c0b3001000e00072
:104d900001003a00010678000241e9000080e800c5
:104da0008100e8000204e000f8ff3a001ff29700db
:104db0000404e00009003a00206d8000800f5600d6
:104dc000060032000000e000040032007f809700ff
:104dd0000000e800f0879f006cff37008c00e900be
:104de00091b79f00530037007fd99700e14f5100e2
:104df0004c003a008d804600ff91970083307c0084
:104e00000180e9006f92970004307c0064805000bc
:104e10004f91970002307c0066805000bf91970050
:104e200003307c00688050002f92970004307c0093
:104e30006a8050001f91970002307c006c80500007
:104e40008f91970003307c006e8050007f8a97001e
:104e500004307c001f5897000080fb008a846400a7
:104e6000808474002f5897004800dd008b84640014
:104e7000808474007080500009307c007f5097005f
:104e80000080fb008a846400808474000f589700bf
:104e90004800dd008b8464008084740072805000c0
:104ea00009307c005f5097000080fb008a8464001a
:104eb000808474006f5097004800dd008b8464008c
:104ec000808474007480500009307c003f5097004b
:104ed0000080fb008a846400808474004f50970037
:104ee0004800dd008b84640080847400768050006c
:104ef00009307c001f5097000080fb008a8464000a
:104f0000808474002f5097004800dd008b8464007b
:104f100080847400f880500089307c00ed86560053
:104f2000040037007f8097000000e800f0879f00b2
:104f300016ff37000d00e00012003400ff809700dc
:104f40008100e800f1879f0012c0b300f2df9f00ec
:104f50000eff370013c0b300e3df9f000042eb00f9
:104f6000d4df9f001ff097000004e0000a00320029
:104f70008000eb00c1b79f00e14f50006b023a0088
:104f8000db0037000041eb00e2df9f0013c0b300fd
:104f9000d3df9f00f3ff37000000eb0001fb2f0081
:104fa00081804700e4aa2000e47078000000e80057
:104fb000eb0f5000fbff3a0065ab200095427800f4
:104fc0007540400080cf5200350032008000eb0079
:104fd0000041780081417800e4aa200061407a0015
:104fe000824f5000040032008141e8008100e80057
:104ff000e88f5000f7ff3a0004fb2f0004824700bf
:105000008380fb00e0c2b30080707a000340e800b8
:105010000080fb0005707a0003c1e80071ab20003e
:105020009140780000c2b30080cf500004003200ed
:105030000280fb0001707a00e3c1410006003700e6
:105040000281fb0001fb2f00818047000040eb0044
:1050500000f17800e3c1410082ab200012417800ea
:1050600000c2b300804f5100060032008380fb0075
:1050700000fb2f0000804700827078008340e8002a
:10508000130037000381fb0001fb2f0081804700e4
:105090000040eb0000f178008340e8000c0037008e
:1050a0000001eb0003fb2f008381470004c2b30023
:1050b0008240780063407900844f50000400320041
:1050c0008240e8000201e800e80f5100f8ff3a00d2
:1050d0000181fb0001fb2f00818047000040eb00b5
:1050e00000f17800206d8000a0a79f000000e00084
:1050f00050003200dfd897000104e0002b0032009e
:105100007fb1970072619000a2c79f000005eb007d
:105110000a007800e3aa2000c3af9f002fc29700c7
:105120000404e0001100320000004000afb097001e
:1051300060c17800cfa9970093007800814578007e
:10514000f00f2000808f50002e023e000280fb00f6
:1051500059ed0700000478000b80fb0056ed0700b6
:10516000800f540008003200260237000000400083
:105170002fb297000400400010007800cfa89700dd
:10518000910f50001f023a000a05e8000a0078005b
:105190004fa997000281e800c2af9f00afa197001e
:1051a0008a8f5100e7013200dcff37006fda970089
:1051b0000404e00013023200ffb097007160900019
:1051c0000004e0000f02320000fb2f0000804700c7
:1051d000f9f307002fa19700800f510009023a0050
:1051e0000005eb000a0078000bfb2f008b854700c1
:1051f00000004000afb19700608079000080fb00a4
:105200002ded0700000478006b407d000080fb005e
:1052100029ed0700800f5400fa013a000a05e80062
:105220000a0078002fa297008a0f5200c8013200ae
:10523000efff37005fd897000004e0001b0032004a
:1052400000fb2f0000804700dbf307008c0f5000ad
:10525000ec013a0038023700bfa89700310078000f
:10526000b1af9f000041780001fb2f008180470013
:10527000e1457d00f10f2000810f5000e1013e006b
:105280000280fb000ced0700000478000b80fb009f
:1052900009ed0700800f5400da013a000a05e80022
:1052a0008a0f5600ecff3a00a60137007fb1970045
:1052b0007c0541008005eb00e3aa20006bc079006b
:1052c0000080fb00fcec0700000478001a80fb0063
:1052d000f9ec0700800f5400ca013a008b05e80082
:1052e0000a05e800eb8f550099013200f2ff370004
:1052f000246d8000e4b79f000400e000e700320066
:105300005fd897000004e000ed013a000f0037007d
:10531000e0022000a10f100005003a000201e900a0
:1053200082b79f0011c0b300c1df9f001900370092
:105330000201e9001fb29700030052000000e900db
:10534000800f5100f2ff3a000e00370061ab2000e1
:105350009140780010c0b300c0df9f0072002000b1
:1053600082b79f007f40400080cf500009003a0084
:105370008041eb00c3df9f007400200084b79f00d2
:10538000040037001fb0970080b79f008040eb00fb
:10539000c1df9f006fb197008206e9004240a9007b
:1053a000d7013c0009003700e0022000a20f1000e6
:1053b00004003a008106e90013c0b300b3df9f0088
:1053c000040037008100e900f7ff3a000042eb00db
:1053d000b4df9f002fb597008005eb00e0aa200006
:1053e000e0a79f009a007800a0022000808f500064
:1053f000310032000fb19700828f550031003c0020
:1054000075004000808f500021003200ffb19700ee
:10541000736090000004e000170032000141780042
:105420005fda97000404e000070032006fa09700e5
:1054300090007800b1c79f00f00f2000808f5000cf
:10544000040036001f003700e4aa20006b427a00f7
:10545000b4c79f000280fb0097ec070000047800af
:10546000bfc097000180fb0093ec0700800f540041
:1054700007003200130037006fa19700928f500091
:1054800010003a00efd997000304e0000d003a0045
:105490008b05e8000a85e8006fa297000482e80007
:1054a000e4a79f008b8f5600ceff3d000fb0970002
:1054b0008b0f500003003d008000eb00c1b79f0040
:1054c00002003700b2002000c2b79f00bfd997008a
:1054d0000304e00004003a004fda9700e14f520065
:1054e00012013a004a0137004fd897000004e0004b
:1054f0004c0132008b002000dfd897000104e0004f
:10550000020032000fb197008285e8008d81e8002b
:10551000f39f9f00038041002fb2970000004200dc
:1055200090af9f008b804500e0aa20008080400063
:1055300081af9f000b004000f0a79f008000eb00b0
:10554000a1af9f001fa9970092007800a002200041
:10555000808f5000f5003200dfd997000304e0008f
:10556000030032001fb297008b0f52002501350057
:105570006fd897000004e00002003200eb8f550066
:1055800020013200f0032000808f50001f00320005
:105590007fb19700726090000004e00015003200b7
:1055a00001417800dfd997000304e00007003200d2
:1055b0000faa97009400780001457800f00f2000b2
:1055c000808f5000030036000e0137007fa0970047
:1055d000104578000280fb0037ec070000047800db
:1055e0000a80fb0034ec0700800f540007003200f3
:1055f000040137000fa99700928f500001013a0073
:10560000efd997000304e000fe003a008b05e800a4
:105610002faa97000402e800a4af9f001fa89700dc
:105620000080e80090af9f008fa897008180e8007d
:1056300081af9f007fa197000201e800f2a79f00c1
:10564000efb197007f9a970004805100afa89700b0
:10565000810f5000bbff3a005fd997000204e000c1
:10566000030032009fb197008b8f5100e5003d0091
:105670006fda97000404e000ac003200ea8f5500b6
:10568000aa003c00e0aa2000eb40780000c2b30072
:1056900080cf5000db003a00a400370071002000ea
:1056a00081a79f005fd997000204e0001300320039
:1056b000f1003700e0022000a10f100005003a00c1
:1056c0000201e90082a79f0013c0b300c3df9f005f
:1056d0000a0037000201e9001fb2970003005200e0
:1056e0000000e900800f5100f2ff3a001fb0970060
:1056f00080a79f008040eb00c1df9f007fb1970033
:10570000c2589000a0c2b30080cf500032003200d7
:10571000fc0541008001eb00d3a79f00e4aa200014
:10572000c4a79f005fd897000004e0000a00320081
:105730004fa1970092007800f00f2000808f50005a
:1057400028003e008fa197005fa29700848f510030
:1057500024003500030037005fa09700e2aa200074
:10576000e04079001b457800a0c2b300804f55008f
:105770001900320075404000804f5500070032008c
:105780000180fb00cceb0700000478000a80fb00de
:10579000c9eb0700800f540012003a00dfa1970008
:1057a0008301e800d3a79f008b05e8004fa2970074
:1057b0000482e800c4a79f00e88f5100d9ff3a0097
:1057c0005fd897000004e000030032008fa097002c
:1057d000e78f500003003c000001eb00c2b79f00c0
:1057e00002003700b3002000c3b79f007fb29700cc
:1057f000c4609000a0c2b30080cf50004b003200c4
:105800004fb097000000e0008a003a008a002000b4
:105810005fd997000204e0000c00320000c2b30020
:1058200080cf500004003a00cfd99700e1cf51005b
:1058300044003a00760037004fda97000404e00095
:10584000780032000fa097000085e800ffb59700b0
:105850004b02b00081c0b300e1c79f005fd9970041
:105860000204e000090032000a004500e3aa20001b
:10587000e0807900f00f2000808f500061003e0032
:105880001fb297008a0f52005e0035009b407800df
:10589000e1e79f005fd997000204e00005003200b5
:1058a0000a004500e3aa200060c179000a05e8006b
:1058b00003003700e4aa20006a417a000a05e800e4
:1058c000a0c2b30080cf50001b00320075404000e2
:1058d00080cf5000080032000280fb0076eb07000a
:1058e00000047800efe097000180fb0072eb0700f6
:1058f000800f540043003a006fc197000241e80056
:10590000e2c79f008b05e800eb4f5100d3ff3a0040
:10591000dfd997000304e0000d0032001fb29700aa
:105920008a0f520037003d00060037004fb0970045
:105930000000e0003f003a00dfd897000104e000db
:10594000030032007f8197000201e800f2879f0088
:10595000e1f82f008f8040000e007800910a0700c8
:10596000dfd997000304e000030032007f82970034
:105970000402e900f4879f000e189000f003b200c3
:105980009ff097000104e00003003200e1cf5000d7
:1059900019003a0003003700e80f500016003a00e3
:1059a000180037005fb1970000006100b3002000cd
:1059b000c3b79f0002003a000002eb00c4b79f008b
:1059c0005fd897000004e000020032005c179800e6
:1059d000180037000000eb00501798001500370042
:1059e0008ff097000104e00012003a000001eb0084
:1059f000c2b79f000f0037008001eb00c3b79f00c4
:105a00000c003700b4002000c4b79f000900370025
:105a1000b0002000c0b79f0011c0b300c1df9f00dd
:105a200004003700b2002000c2b79f008041eb00a5
:105a3000c3df9f007f8297000402e800f4879f0085
:105a40004fb097000000e000470032004afc3700ea
:105a5000b1012000c1b79f00430037008006eb0072
:105a60009db79f000d067800cddf9f00b400200099
:105a7000c4b79f0040fc37001fb097000000e00053
:105a80001aff340080004000e0aa2000e100780006
