:020000040000fa
:080000000002040000000000f2
:020000040000fa
:100400004f9721000e7f22000e018800000000009f
:100410000c000700809c2800010020000f0007004e
:10042000000020000000e000020032000000020096
:100430000000000048a70200000000000040da00b1
:100440000000fe00a05620000000e0000200320084
:10045000002020009001880000000600a102880012
:10046000800078000000eb001a003700e2804000b6
:1004700054a0b4009101ba00e280400054a0b4003e
:100480009102ba00e280400054a0b4000002eb00e8
:10049000472bde00f507b200a6018800602ce100c2
:1004a00008003a000049eb000201e80002003900b0
:1004b0003420ec0002f0a0008301e900f9ff3e00c7
:1004c000040037006128e100010032000082eb00e7
:1004d000040007001101ba000200e000e3ff3a0047
:1004e0000000060004d0a300e20f49001c00390000
:1004f000810278003549ba000201e80002003900a3
:100500003420ec0002f0a0008301e9000f0032006b
:100510002549ba000201e800020039003420ec004d
:1005200002f0a0008301e900080032000400e000ae
:100530000600320015c9ba000201e80002003900c5
:100540003420ec0002f0a0008301e9008180e80083
:1005500054a0b4000300e000e2ff3a0000000600ef
:100560009102ba00055978008301e900f7ff3200d3
:10057000c82ade00055978008301e900f3ff320044
:100580000400e000f1ff320011d9ba00eeff37009d
:10059000aca104000000000034950400000000003d
:1005a0000a94040000000000fc9504000000000014
:1005b0009a9504000000000014960400000000005a
:1005c0006c9d0400000000002aa30400000000004d
:1005d000f0a6040000000000b6990400000000002e
:1005e000bea2040000000000e6a30400000000001a
:1005f000a490040000000000aea60400000000006b
:10060000e2a1040000000000a8a404000000000013
:100610001897040000000000fa9b0400000000008e
:10062000d6a5040000000000800078001106b1008b
:10063000030035009101b10001003c000050a10011
:1006400000000600800078001104b10003003500ae
:100650009101b10001003c000050a0000000060024
:100660006900e100040035006d00e1000300340082
:100670000002b1000100320000000500100005007a
:100680001004b100070035009001b10004003400ef
:100690007000b100030035009001b10001003c0082
:1006a00010000500000005002002e20004003d00eb
:1006b0002342ab00020032002302ab00feff3200f7
:1006c0000040da00feff37000a00fa0080017800df
:1006d000e20f500028003e0060c88000e10f50008b
:1006e00008003200802320000000e00005003200f6
:1006f00004232000252320004623200080017800c9
:100700000400370004222000252220004622200079
:1007100083222000144090000004e0000400350013
:100720008009eb00144090000074a0001042980073
:10073000154090000028a30003003a0015409000e7
:100740000024a000904298008001eb0007003700d1
:10075000154090000008a300fdff320063c0780040
:100760000000fb00000b78008301e800828f51003d
:10077000f7ff3a000800370030002000b0bf9f00ac
:10078000c3bf9f00d1bf9f00e2bf9f006a80570098
:1007900000c0da006fb99700020078000080fa000c
:1007a000000006000a00fa0011002000b1bf9f00ff
:1007b000c0bf9f006a80570000c0da004fb89700a2
:1007c0000080fa00000006000a00fa005100200034
:1007d000b1bf9f00c0bf9f006a80570000c0da0011
:1007e0005fb897000080fa0000000600889fbe00f6
:1007f0008004780070c880000000e00003003a0028
:10080000100007000000e0000a00350070c88000fa
:100810000900e00002003a000004780006003700fa
:100820000004780009004000060007000000e00016
:1008300001003d000084eb00080078004f04be007a
:1008400000000600800078000000e00004003a008c
:100850000091210070c8880001017800060037006f
:100860000081eb0040972100808f500002003e0085
:1008700071c888000001eb0002007800000006004b
:10088000020ab900001bb9000200b8008100420052
:100890008100430000000600889fbe008a9fbe00c2
:1008a000010578000100e0000400350008003c006c
:1008b0000000e0002000320005003700600010005a
:1008c000e080180002003b0001f02c001a00370005
:1008d0000004be006011b8006b0920000982cf003f
:1008e000020039000882cf000441b0006942520082
:1008f0000e00320008003b0082817100610164003b
:100900008904d1000884d3008b05e8000442e80084
:10091000f9ff3a00050037000804440089844c00c0
:100920008b05e9000442e900fbff3a0024000700c0
:100930000af0a70001f0a0004f05be004f04be0062
:100940000000060081037800430007000001be009c
:100950006000b8000478a30013003a006220e100b0
:1009600015003e000d0039008301d1000281d30043
:100970008180d3008301d1000281d3008180d30024
:100980008301d1000281d3008180d3000538b000fb
:10099000c42add00f300b2008381720007f0a700d3
:1009a00003f0a00000000600f3ff2700f2ff2f0075
:1009b0006110b900fbff370003ff2700f7ff370086
:1009c00081002000618055000b003d000b002000dd
:1009d00061fe2f000100e1001d00340082817100e2
:1009e000610164008904d1000884d3000000e8009c
:1009f000faff3a00710020006100640003007000fb
:100a0000020060000900320061044400e0844c00f0
:100a10000988a500050032008b05e8006808e100a0
:100a200002003a008904d1000884d300f20f2000ac
:100a30000258e10005003d00c75ddd00f907b20086
:100a40008980750008007800000006000bf8270078
:100a50008b00780000000500c70ade00f107b20035
:100a6000f50fb20008003200e1cf42000200320070
:100a70000170a00024000500810f70000100320009
:100a80000408050044000500810f700002003a00d0
:100a9000140005008502e9000000400081c0480004
:100aa000fcff3b000170a00024000500881f7800b7
:100ab000000478005001be004000be000400400069
:100ac000858048000601490087814900009cbe00de
:100ad0000294be000400e1000588e1000690e100f8
:100ae0000798e10002003100680044001008e800a7
:100af0004f04780000000600f4874700889fbe007e
:100b00008a9fbe008c9fbe008e1f78000205be002b
:100b10000004be00d4b79f00e5b79f00f6b79f0062
:100b200087bf9f000000eb00c0b79f00b0b79f00d9
:100b3000a0b79f0090b79f0080b79f000d042000d2
:100b4000bfb097004fb09700000140000000e000e8
:100b50000f003d004f08de0000007100c0b79f008d
:100b60009e00070001003d0012002000a1000700c8
:100b700001003d0012002000a6000700b1000700a0
:100b8000b60007000f004000c8ff07002200370032
:100b90004f08de0000067100ccb79f008f000700f1
:100ba00001003d00120020009200070001003d00fe
:100bb0001200200097000700a20007000fb2970064
:100bc0009fb297002fb39700bfb39700a90007000b
:100bd0000000520081805a0002015b0083815b00ab
:100be00080b79f0091b79f00a2b79f00b3b79f0047
:100bf0000007eb009f0007000020e10001a8e100d2
:100c000002b0e10003b8e100010031001e00200045
:100c10000e005600c0b79f004fb297000400e000de
:100c20000700350010002000010020006011b8000e
:100c300008047000898470000a0571008b857100ba
:100c40008d06e900beff3a000400e00003003d000d
:100c5000820007000f00400094ff07004fa8970094
:100c60000000e00004003a000fb497009fb4970022
:100c70002fb59700bfb59700940007004f07780085
:100c80004f06be004f05be004f04be004f01b1002d
:100c900000000600881f780018002000881f7800d8
:100ca00095ff07008f87e9004f04780000000600d9
:100cb000801feb0090ff07008f87e900000006000f
:100cc000889fbe008a9fbe008c1f78006e000700c0
:100cd00007003d0073000700e00f5b00e08f5b0042
:100ce00007003d00320007000006eb00040037005b
:100cf0003400070002003d002a0007001c0020000d
:100d000072000700e3ff07000203be000002be00fe
:100d10000c00e00001003200220007000400be00c9
:100d20000601be004f0678004f05be004f04be000e
:100d300000000600889fbe008a9fbe008c1f7800be
:100d40005100070005003d0056000700e00f5b0062
:100d5000e08f5b0006003d0004003700190007002b
:100d600003003d006000b8006011b80010000700eb
:100d700056000700ceff07000203be000002be00bf
:100d80000c00e00001003200060007000400be0075
:100d90000601be004f0678004f05be004f04be009e
:100da000000006006000b8006011b80000003700c5
:100db00004025000858258000603590087835900b9
:100dc000000006000006eb00e00f5200e08f5a0022
:100dd000e00f5b00e08f5b00000006000180400038
:100de00090b79f000001eb008fb097000100e0007a
:100df000000006000200700090b79f0001804000d4
:100e000080b79f000001eb00ffa897000100e00001
:100e1000000006000200700080b79f0001804000c3
:100e20006faa9700cf20de0001007000f0af9f0096
:100e300004024200250007004f18de000002720085
:100e400000000600e4af9f000804440089844c00c1
:100e50000a054d008b854d00000006003fb297004b
:100e6000cfb297005fb39700efb3970000fe2f005b
:100e7000000006003fb09700cfb097005fb1970029
:100e8000efb19700000006000205be000004be009e
:100e9000e00f5000e08f5800e00f5900e08f59003c
:100ea000000006006000b8006011b800080450009f
:100eb000898458000a0559008b8559001c002000c0
:100ec000e00f5200e08f5a00000006000800be004c
:100ed0000a01be00000006008f1fd100e9000700d4
:100ee0008f87e9000000e00000000600801feb0093
:100ef000e40007008f87e9000000e0000000060022
:100f00001400fa00889fbe008a9fbe008c9fbe001e
:100f1000040678000004be000205be006800470019
:100f20000a90be000890be00ff0007006200e100ca
:100f30000800be000a01be00040020000b003a00b9
:100f40001e029000e43fb1006e009000fe00900091
:100f50000e0990009e099000f300b20005fe2300e8
:100f6000858171000bf0a70003f0a000040e78004b
:100f700028013700809feb00c20007008f87e9003f
:100f80000000e000000006001400fa00889fbe0088
:100f90008a9fbe008c9fbe000004be000205be00fa
:100fa000680047000a90be000890be00de000700ff
:100fb0000070a7000bf0a1000bf8a30020003a007e
:100fc0009e0990000e099000fe0090006e009000b7
:100fd0009e02900034432000848252000d013200b2
:100fe0000a003c00b4fc2f000428e1001400340087
:100ff0008301d1000281d3008180d3000080d3001f
:101000008502e800faff3a0002013700b400200030
:101010000428e10007003c000000400081804800f7
:1010200002014900838149008502e900faff3a0084
:10103000f8003700030028000200200001003700fc
:101040006011b8006000b800f2003700889fbe0051
:10105000830478000300e0002c00350003003c000e
:101060000082700004027100260032003643200026
:10107000c50020008383cf000a0039000541b1007c
:101080008283cf00070039000541b1008183cf0082
:10109000040039000541b1008083cf000100390010
:1010a0000541b10085c353006022b8001200320030
:1010b0000a003b0084827200610260008301d1005b
:1010c0000281d3008180d3000080d3000603e800b2
:1010d0008743e800f7ff3a000700370000004000b0
:1010e0008180480002014900838149000603e9002c
:1010f0008743e900f9ff3a00cb00070009f0a70099
:1011000003f0a0004f04be000000060060001000c5
:10111000e080180060011900e0811900d3ff3b0056
:10112000033e2c00f7ff37001400fa00889fbe0032
:101130008a9fbe008c9fbe000005be000206be0056
:10114000680047000c90be000a90be0076000700c1
:101150006400e1001a00320016003e006100e10068
:101160001a0032006e049000fe0490000e0b9000f6
:101170009e0b90006011b8009e0590000b38b100e6
:10118000d501200082817100610164008703d100d4
:101190000683d3008984d3000884d3008502e90044
:1011a000f8ff3a0006fe07000df0a70001f0a000ce
:1011b00098003700f1ff2700f0ff2f00950037005f
:1011c00001f8270000002000f7ff37006000b8009a
:1011d000f5ff3700c0000700050978000000060091
:1011e0001400fa00889fbe008a9fbe008c9fbe003c
:1011f0000004be000205be00680047000a90be0061
:101200000890be00480007000070a7000bf0a10086
:101210000bf8a30016003a009e0290003043200015
:1012200080825200b0fe2f000028e1000d003c003b
:10123000b0fc2f000028e1000d0034001e099000d2
:101240008e0890007e0090000501b0000201d100e0
:101250008180d3000080d3008502e800fbff3a00c4
:101260006c003700010028000000200069003700f2
:101270006000b800670037004f89de008201780007
:1012800072ff3700889fbe008a9fbe008c9fbe0001
:101290000404be000605be00809fbe00829fbe0003
:1012a0009a000700040678000800be000a01be008c
:1012b00096000700840678004f03be004f02be0070
:1012c0008d4f76007fb0970013003300f0ff2f00a2
:1012d0008b8f6b0006003b000d0666000c00a7001c
:1012e0000a00370007f0a600100020000a003700af
:1012f000880f5200898f5a008a0f5b008b8f5b002a
:10130000030039001000200001003e000000200012
:1013100007f0a7000000ea004f06be004f05be0020
:101320004f04be0000000600800078005002be009e
:101330005003be004439de00f700b200f37f200006
:1013400003016100090032000218e10016003a00b2
:1013500085017200830173008381730000082000ff
:1013600015003a004000200013003700850172008c
:10137000830173008381730005003a0004a8be0056
:1013800006a8be00100020000b0037000201e90093
:101390000402420085824a0006034b0087834b000b
:1013a0000748a300f9ff32000740a00004a8be00d0
:1013b00006a8be002000200080009800920098003f
:1013c00000000600680447000294be000094be00be
:1013d000fc0447008694be008494be000900780097
:1013e000d1ff070008007800cfff070099007800c0
:1013f000814f70000b003b000800be005500070045
:101400004f00b10003003700f3ff2700f2ff2f0069
:101410006110b9004f06be004f05be004f04be006c
:101420000080fa000000060018002000570020008d
:10143000080453000d003d000600200097fc2f001b
:101440000740e1001e0034008482720061026000e7
:101450008301d1000281d3008180d3000080d300ba
:101460000804e800f8ff3a0047002000610460002b
:1014700005047400040464000d00320061004000a3
:10148000e080480060014900e081490003b8a50000
:10149000070032000603e8006538e10004003a0066
:1014a0008301d1000281d3008180d3000080d3006a
:1014b000f87f20000830e1000300350008037800c1
:1014c0006000b8006011b8004433dd00f300b200e2
:1014d00083017300000006000003be005efd0700ec
:1014e0006220e100020032000600be000500050097
:1014f000e507b100f107b20004f02300848070001a
:1015000007f0a70001f0a0002400050005ff270058
:1015100005826100070032000428e100010032006a
:10152000240005000600070001003a004400050001
:101530000408050002000700f9ff3a001400050046
:101540006f82610081027000850271008502720065
:1015500000000600e48240001078a300070032007b
:10156000640240001178a3003400be001401be00e4
:10157000040032000330a700000006003500be0062
:101580001501be000330a00000000600020250005a
:101590008382580061003900030371006200320049
:1015a00005037200590032000300e00055003300cb
:1015b00017003a000100e0004b0032000208e10091
:1015c00006003100110009004288d80001017800ae
:1015d0008001eb008000eb00000006006110e100dc
:1015e000550032000002be00110009008280d800c0
:1015f0008002780004007800110009004288d800b9
:10160000010178008001eb008500780000000600f1
:10161000889fbe008a9fbe008c9fbe000386cf00bd
:101620000c06e9008c1f78008c19dd00f002160012
:101630000512de00848171000c11dd000003be0084
:101640008004eb00053cde008c3bdd000532de0053
:10165000848373000c33dd00070078008800780075
:10166000110009004388d8000202b8000306b80040
:101670008c82420060854e008005eb00040253001e
:1016800085825b000a055c008b855c000b003300e3
:101690008000eb004f0678000c21de00700516007c
:1016a0000a2ddd000a0171008c29de004f06be0004
:1016b0004f05be004f04be000000060002024200bb
:1016c00083824a0060054d00e0854d000000e9007e
:1016d0000b00e000eeff3d000202420083824a0060
:1016e0000000e900eaff37000000e00012003200cd
:1016f000110009000280d800010178008000eb0091
:10170000000006000401be00010037006011b800af
:10171000100020008000eb00000006000001be0069
:101720006000b800000006000001be00f0ff2f00be
:10173000f1ff2f00000006006011b8000000060055
:1017400092ff07000200be000000060007f8270015
:10175000078361000638e10004003a00f707200023
:10176000878361008703710001003a0003f0a20043
:10177000889fbe008a9fbe008c9fbe00470ade0085
:101780000480a100c71ade000580a1000700280020
:101790000785600087856100f70f20000720e100c2
:1017a0009e0032000728e1009c003200010678000c
:1017b0000400e000b4003200f707200087806000da
:1017c0000170a0000500e000c0003200f707200013
:1017d000878161000370a000050652000f003a00e7
:1017e0000b50e1000b0032000308e10002003a0058
:1017f0000200e1007e0032000204500083845800a1
:10180000040031000001fd008101fd008402fd00a3
:101810008a05fd006044b800210037000520e10082
:1018200005003d000001fd008101fd008402fd0076
:101830008a05fd00050652007a60e10005003500ca
:101840000170a1004722dd00848070008a80700052
:10185000630037006044b800ef02660007ff2f0006
:10186000070666000500e00006003400f083120061
:101870008714dd000511de00071bdd000601710085
:101880008519de007060e10005003500090478006c
:1018900082047800030178008001eb007006560096
:1018a0000b50e10003003a00020040008380480032
:1018b0000400370060041400e0841c00020058009b
:1018c000838058000188a300060032008100d10007
:1018d0000080d3008984d3000884d3000402e80088
:1018e000270037000178a30025003a000100e0003e
:1018f000030032008186cf00698656000a00370057
:101900008c0020000000e00004003a00090078008c
:10191000880478000004eb00700252008086cf003b
:101920000d0646000c06e9007060e1000600350077
:101930008000780009007800880478000004eb003b
:1019400070065600700252000c00e0000c003400db
:101950008c08dd00f00316000703de0086807000af
:101960000c00dd00074bde00060070008c4cdd0033
:101970000743de00868474000c44dd000c02520034
:101980006120e100200035006101600007002800af
:1019900087816400f7ff27008783640007037400d2
:1019a0000300e000060032008203730004003200ee
:1019b0000000e800e08048000188a3000e003a0023
:1019c000f70f20000720e1004a003d000170a10050
:1019d0004722dd00810072008a8070000000be0096
:1019e0004f06be004f05be004f04be0000000600bb
:1019f0006000b800faff37008100d1000080d300fa
:101a00000402e800eeff3700040178008901740049
:101a10001b0107008a807000f1ff370042010700b8
:101a2000070278000001fd008101fd003e01070072
:101a300087027800850372000778a3000400320053
:101a40000001fd008101fd0051010700e4ff3700a6
:101a5000850362000768a300080032000b50e10014
:101a600003003200f0ff2f00f1ff2700dcff3700fa
:101a70000001fd008101fd00d9ff37000468a300cb
:101a8000d7ff3200faff3700f8ff27008883600095
:101a90000b003a000000e00009003a0083036400f4
:101aa00082837300020032000200be00ccff3700c8
:101ab0000b50e100ceff3a000200be00c8ff370025
:101ac00014002000810064003eff3700f8ff27006b
:101ad0008883610004003a000200e00002003a003e
:101ae0008c007800beff37001500200083016400e1
:101af00039ff370001f82700000020008100750041
:101b0000b7ff3700889fbe008a9fbe008c9fbe0033
:101b10001b0020000202be000586680006002800a7
:101b2000060666004709de00f20fb20082003200ae
:101b30000243e80080003200c729de00f30fb20044
:101b40007d0032000343e8007b003200f107b20061
:101b50000170a000f507b2000570a000c708dd0005
:101b60004903de00868070004700dd00c72add00e3
:101b70004923de00868272004722dd000305510002
:101b8000040350008583580003003100000040002a
:101b9000818048000a05e9008c1f78008a9fbe00fa
:101ba00004005000858058000402420085824a00eb
:101bb00000004000818048000005eb000004be00ea
:101bc0006033b8000406be000d48e1005600310045
:101bd000110009004dccd8000c01b8000d02b8006e
:101be0008481410060824a008283530003045c00c8
:101bf00084845c0060055d000a00e00025003a0076
:101c0000800578000d40e10049003100880078002f
:101c100007007800110009004d88d8000c01b800b9
:101c20000d02b8008481410060824a006003110007
:101c300083835b0004045c00e0845c000900e00036
:101c400021003a004f01be000300e0002b003200eb
:101c5000e3016000070673008c817100010032000f
:101c6000640070004200de004e5edd000c0070007b
:101c7000c258de0001e0a000ce000700cf017800ce
:101c8000818071004f06be004f05be004f04be00ac
:101c9000000006008c8343000d044c00e0844c00df
:101ca00060054d000000e9000a00e000d4ff3200aa
:101cb0008c8343000d044c00e0844c0060054d0013
:101cc0000000e900ceff37000c0343008d834b007a
:101cd00060044c00e0844c000000e9000900e000d2
:101ce000d8ff32000c0343008d834b0060044c008e
:101cf000e0844c000000e900d2ff37004200de0023
:101d00004e5edd000c007000c258de0001e0a00055
:101d1000cf0178000300e000daff3200600010001d
:101d2000e0801800d7ff3700f0ff2f00aaff370030
:101d3000f0ff2f00b9ff37000404be007a0007004f
:101d4000870678000004fd008104fd00760007008e
:101d5000078366000678a300030032000960a7002d
:101d60000800be002c0037000d78a30002003200ee
:101d70000800be00280037000778a30026003a00bc
:101d800001f0a10009f0a1000668a30003003200e1
:101d9000f1ff2700f0ff2f00baff37000d68a30006
:101da000030032000800be008c807000b5ff3700d1
:101db0000768a30007003a000648a30003003200aa
:101dc000f1ff2700f0ff2f00aeff37000d48a30002
:101dd000030032006000b8008c807000a9ff37005b
:101de0000748a3000400320001f82700000020008b
:101df0008c807000a3ff3700c10007000004fd00c5
:101e00008104fd0002057800bd0007000802be0045
:101e10008a01780059ff37000160a00012022000fb
:101e2000c2ae880097ff37000100e00012003200c8
:101e30000500e00010003200889fbe008a9fbe00af
:101e40008c9fbe000006eb0001f8a30003003200e7
:101e500060001000e08018000cf0a00005f8a3005e
:101e60000300320060021200e0821a000cf0a200af
:101e70008005eb0041ff37006000b800020005005c
:101e80000100e00026003200610111007810e1003d
:101e900023003c006022b8007010e100040035000f
:101ea00080027800010078008000eb007001510092
:101eb0000200e0000900340070031100062add0072
:101ec000822ade008603dd00878272000200de00c7
:101ed000860bdd00070070008208de00848171003f
:101ee000f4ff27000482620084817100040028004e
:101ef000848262006102600005f0a6000000060016
:101f000004827100070032000000e800e080480011
:101f1000000006000002be006000b800efff3700be
:101f20006000b800000006002700200001f0a700b4
:101f300017002000470bde00f60fb200040032004d
:101f40000643e8000a0032004702b3000000060022
:101f500001037800f607b2000603700002003a00a1
:101f60000703b300000006008702b300000006006c
:101f700001037800f607b200060370000200320089
:101f80000770a000000006000760a0000000060027
:101f90000478a300040032000578a3000300320097
:101fa0000168a30001003a000200be000160a00029
:101fb0000000060081017000270032008002eb0063
:101fc00001f8a3000300320060001000e080180058
:101fd00015002000f4072000020242002000340017
:101fe000f70320008703600006042000000363005d
:101ff00002082000000161004700de00c909dd0081
:1020000000807100c708de000600e0000800320012
:1020100087037100060032001000b0000180b0009c
:102020000188a30002003200c108de000402e800bb
:10203000f107b200f30f20000320e10003003d0090
:102040004722dd00810072002900370001f82700d7
:102050000000eb00260037006000b800000006001a
:10206000680212007f20e100020034006000b80026
:102070001f0037006011b8007020e1000400350037
:1020800080017800010078008000eb0070025200af
:102090000400e00009003400f00312000719dd001d
:1020a0008419de000703dd00868171000400de0074
:1020b000070bdd00060070008408de00f7ff270034
:1020c0008383630087037100060028000303630015
:1020d000070032000700e00003003a0061016000e1
:1020e00002817300020032001000b0000180b000d5
:1020f0000500a6000000060001f0a0000000060098
:102100004f0ade004709de00f107b200f20fb2000d
:102110000b003200f207b1000170a000c708dd001b
:10212000c901de00838070004700dd000400a600c6
:102130000000060060001000e080180000000600ab
:10214000810f700001003a00000006008182cf007c
:102150000500e00010003e008082cf00ee824200c9
:102160007028e1000400390007003e00800078007c
:102170000000eb000e003700708312008600de00c6
:102180000500dd000a003700708352008600dd0084
:102190000000eb0006003700e28252008508dd00f7
:1021a000708312000603de00868070000500dd00eb
:1021b0007507b0000501ea000400a6000000060053
:1021c00060001000e0801800000006008001eb00b5
:1021d0000200370061f079008301e800828f51002e
:1021e000fcff3a000000060010417800b1415100a8
:1021f00003003a000000e8000204e000faff3a00a1
:102200000300fb00000006000001780000c2b300dc
:10221000010037000201e8009240780080cf5000b2
:10222000fcff3200e9cf5000faff3200d0c2b30009
:1022300080cf500003003a000201e80014c0b30050
:10224000050037000042eb00b0c2b30080cf500061
:1022500001003a000201e8008000eb0005fd2f00bc
:10226000040037006a08b900008041008500400082
:102270000201e8009201fb0005804100e90f5000d7
:10228000f8ff36000404e000010032008100ea009b
:1022900001007800000006008001eb00020037001a
:1022a000817178008301e800828f5100fcff3a00c1
:1022b0000000060010417800814f510004003200f8
:1022c0000000e8000204e000faff3a000000eb0022
:1022d00000000600800078003004e000feff3a00b5
:1022e000010050000000e900000006000003780033
:1022f00080027800020278008001eb0008003700bd
:102300000402e90063c07800805a78008301e80085
:102310000004e00002003a008000eb0006003700f5
:10232000828f5100f6ff3a00fbff37000040eb00c0
:1023300080f07a008100e800848f5000fbff3a00b3
:1023400006007800000006000000fa00cfb89700f1
:10235000688157000f0a07000080fa00000006009d
:10236000810178000000e9000081eb00e50f5000da
:1023700004003e0080004000408f21006081780012
:1023800003b0780002007800000006000001780029
:102390000000e900e50f50000f003e008000400003
:1023a000408f2100e08078000100e00002003a0048
:1023b0001000200009010700e18f400006003200f4
:1023c0000000eb00e18f50000400320002007800b2
:1023d00001000100000005000080eb000000060085
:1023e00010002000e9ff070010002000fb0007009c
:1023f000e4874700889fbe008a9fbe008c9fbe0076
:102400008e1f7800000578000107780082057800ab
:102410000000eb00c0ae88000100e00001003200c7
:102420008a0878000a047800b84478000900fb00a4
:102430008bf807000000e000020032000805780079
:10244000f8ff3700d0c2b30080cf540005003a0037
:10245000984478000a84e80010c0b30090f79f0009
:10246000070037000041eb0092f79f00b0c2b300b5
:1024700080cf540002003a00984478000a84e800b3
:1024800000c3b30080cf540017003a00080578005d
:10249000ba4478000b00e00002003200f08f5500d3
:1024a00009003a0080c7b30080cf54000300320017
:1024b00080c5b30080cf540007003a009a447800ea
:1024c0000885e8000b0120006066b8000040eb00c2
:1024d00080f79f00100037000b00e000faff3a0081
:1024e0008b002000f8ff37000b00e00003003a00eb
:1024f00008057800ab002000f3ff370008057800de
:10250000f1ff370020022000c0ae880002057800ed
:1025100012c0b300240037000904fb000800780053
:1025200057f807000000e0000500320008007800be
:102530003df8070091ccb30001444000050037008e
:1025400001fd2f0001004400e90f500015003e007e
:1025500001c444000800fb008b0f500011003d0037
:102560006159b9000c00be00c5f807000801fb0066
:10257000cf91de0000004100818049000a01e8009f
:10258000800f5600818f5e00deff3e009a44780087
:102590000205780012c0b30082f79f000006be005b
:1025a000ddff37000041eb000e00e00003003200c9
:1025b0000ff097000004e00004003a009e0078004d
:1025c00000c3b300914f100001003a000a0fe90068
:1025d000e14f510003003a000086eb008086eb00db
:1025e000050037001ff197000204e00002003200ee
:1025f00060061600e0861e000c00be004f07780043
:102600004f06be004f05be004f04be004f00b10094
:1026100000000600889fbe008a9fbe008c1f7800c5
:102620008005780001057800020678000000eb00c4
:10263000c0ae88000b047800010037000804e800f1
:10264000984478000900fb0005f807000000e0004e
:10265000faff3a00d0c2b30080cf54000500320028
:1026600000c0e90080cf54000200320080447800ae
:10267000010037000804e8000c0178008a007800a7
:10268000080078005aff07000001be009a0f5400ae
:1026900001003a000b0d78009a8f550003003a00b4
:1026a000e00f5100e08f59000f003a00b0c2b300b4
:1026b00080cf540004003a00e00f5100e08f590031
:1026c00015003d0008003700d0c2b30080cf540091
:1026d00011003a000000200001002800800f510086
:1026e000818f59000a00360020022000c0ae880009
:1026f00002002000030028006b40400080cf5400ff
:1027000005003200f2ff2f00f3ff27000200370020
:1027100060011100e08119000200be004f06780040
:102720004f05be004f04be00000006000c00fa007a
:10273000889fbe0000047800f0ff2700d0bf9f00f4
:102740008004eb0099bf9f0088bf9f00a8bf9f0037
:10275000200c2000b0bf9f0070805700cc00070005
:102760000fb89700094878000fb897000804500088
:10277000080078004f04be000080fa000000060048
:102780000c00fa00889fbe0000047800cfb09700cc
:10279000f0ff2700d0bf9f008004eb0099bf9f008f
:1027a00088bf9f00a8bf9f00200c2000b0bf9f00e3
:1027b0007881570070805700f60807000fb897001f
:1027c000094878000fb89700080450000800780006
:1027d0004f04be000080fa000000060000047800ec
:1027e0002b0e070008007800aff70700889fbe0097
:1027f0008a9fbe0080407800d0c6b30080cf5000d2
:10280000290036000185fb00420620001100090066
:102810000285d80000017800010478004311dd0032
:10282000ab5d21000b0141006022b80006002000d2
:1028300007fe23000288900092889000b2899000e1
:1028400022899000b8380700a9002000809fbe00b0
:10285000110009000984d800000478004f00be0070
:102860004344dd000b04440048229000d82290002d
:1028700068239000f8239000ab380700801f780091
:1028800001027800110009000985d8000102fd004d
:102890004f0078004322dd000b0242005403be00cb
:1028a0004402be001f0037000180fb00a95d21002b
:1028b000eacf500014003600a200200011000900e9
:1028c0000280d80000017800010478004311dd0087
:1028d000090141006022b8000600200007fe230025
:1028e00042209000d2209000f221900062219000be
:1028f0008d3807004344dd00090444003802be005f
:102900002803be00070037004300dd000900400037
:102910006022b8000600200007fe23005001be0020
:102920004000be00803807004f05be004f04be00c7
:1029300000000600889fbe008a1f78008040780053
:102940000004e00021003d008040ea00d0c6b30052
:1029500080cf5000090034008104fb0042062000b3
:10296000110009008204d8000001780001007800fd
:102970004311dd00aa5d21001f0037000100fb00ac
:10298000a35d210039003700a200200011000900da
:102990000200d80000017800010078004311dd003a
:1029a000030141004300dd00030040003002be008f
:1029b0002003be0042209000d2209000f22190001f
:1029c00062219000583807002e003700d0c6b300af
:1029d00080cf5000230034008104fb004206200019
:1029e000110009008204d80000017800010078007d
:1029f0004311dd00aa6821000a014100a80020005f
:102a0000110009000800d8004300dd000a00400062
:102a100040229000d022900060239000f02390008c
:102a20000288900092889000b289900022899000dc
:102a30003d380700801f780001027800110009006e
:102a40008804d8000102fd004f0078000402fb005a
:102a50004322dd000a0242005403be004402be00cd
:102a6000d8ff37000100fb00a3682100eacf500027
:102a7000c5ff3c004300dd00030040005001be00e4
:102a80004000be004f0578004f04be000000060065
:102a9000ef04b000889fbe008a9fbe008c9fbe00de
:102aa0008e1f78006022b8006033b800e4a79f0052
:102ab000f5a79f0086af9f0097af9f00a0af9f0034
:102ac000b1af9f00c2af9f008002eb00a5a79f009f
:102ad000d00737008001eb0050c2b30080cf500018
:102ae000090032000100fb00afa89700210d07008c
:102af000e10f4000c70732002fa397000603e8004c
:102b0000a6a79f00c3073700bfab97009740780088
:102b1000b0c2b30080cf50001900320007003c0063
:102b20006b40500080cf50001000320063404000e6
:102b300080cf500021003a0016003700d0c2b30009
:102b400080cf5000040032006340400080cf50002e
:102b50001a003a00140037000330a0003fac970081
:102b60000804e800b8af9f00e7ff37000300a000ab
:102b7000bfac97008904e800b9af9f00e2ff3700bf
:102b80000310a0003fad97000a05e800baaf9f0010
:102b9000ddff370003b0a000bfad97008b05e80054
:102ba000bbaf9f00d8ff37000320a0003fa89700cd
:102bb0000000e800b0af9f00d3ff37000318a30068
:102bc000010032000300a1000338a300010032001d
:102bd0000320a1000100fb0002fd2f0002004000c5
:102be000e90f500010003e008000eb00e1979f00cd
:102bf000020278006f9197006a10b900bfaa97008f
:102c00001501fb000001410004014100e2979f0013
:102c10005500fb00b5af9f0004004000e90f5000d5
:102c20000d003e00f3ff37000003eb00e6979f0026
:102c3000a0c2b30080cf500007003a00cfab97008e
:102c400047047800c7af9f00e8979f00bfac97008c
:102c50008904e800b9af9f00e0c2b3003fad970020
:102c60009a4f100021003a00830678000de0a00082
:102c70008a00e80064405000914f100004003200c8
:102c8000b1af9f008005eb00bba79f00100037008d
:102c90004fa89700c0007800c0af9f00b1a79f0069
:102ca0003fa997000281e800b2af9f0013003700f0
:102cb0003fa297006a20b9000000410003004000d5
:102cc000b0a79f00bfaa97008502e800b5af9f009c
:102cd0003fab97001601fb0003fd2f0003004100ee
:102ce000e90f5000f2ff3600040037008306780039
:102cf0000dc0a0008003eb00b7a79f003fac97007a
:102d0000b8407800b8af9f00e1679f0070c6b3007d
:102d100080cf50003c00320017003c00644050005f
:102d200080cf50008f0032000e003c007c405000ed
:102d300080cf50003300320006003c000104e00068
:102d40003a07320000c0e90080cf5000aa003a00e4
:102d50002900370080c5b30080cf5000a6003a009c
:102d60002d00370050c6b30080cf50002300320042
:102d70001f003c00a700370000c7b30080cf500001
:102d8000250032000a003c006440500080cf500013
:102d9000110032006340400080cf50001c00320020
:102da0006640500080cf500093003a0099003700f1
:102db00050c7b30080cf5000950032006340400000
:102dc00080cf5000150032006540500080cf500089
:102dd00089003a0013003700000028000d48a300c6
:102de00001003a000001200080867600c3ff370012
:102df0000da0a000870037000d50a0000d80a0009e
:102e0000840037000d50a0000d90a0008100370015
:102e10000d60a0007f0037000d50a0000d70a000d5
:102e20007c003700cfac970049007800c9af9f0005
:102e3000e0a79f000000e00002003a00ab872100fd
:102e4000eba79f000000eb00f0a79f0002003700f7
:102e50008100e800f1a79f00ffa097006fa19700f5
:102e6000028040001004e000f9ff3a00bfa1970083
:102e70000300e000040032007fa29700848f51001d
:102e800001003100f3a79f007fa097000005eb0031
:102e90006f939700800f5300010036000005530028
:102ea0004368de00e104600019003a00090478007c
:102eb00009003700afa89700000220002d0c070082
:102ec000e10f400003003200afa397008703e80042
:102ed000a7a79f000804e8008a0f5400f5ff3a00f6
:102ee0000085eb000a003700efa097003100fb00df
:102ef000e1a79f00afa897001e0c0700e10f40005c
:102f0000030032002fa497000804e800a8a79f0040
:102f1000ffa597000b00e900f0a79f00e10f40001c
:102f2000f1ff3a000004eb000900e0000a003a005b
:102f3000b8063700afa89700000220000d0c07006c
:102f4000e10f4000030032002fa197000201e800ca
:102f5000a2a79f000804e8008a0f5400f5ff3a007a
:102f6000ac063700cfa9970043007800c3af9f009d
:102f7000cf80de0001017800820178000203be00ec
:102f80000002be00e0a79f00f1a79f0082af9f0054
:102f900093af9f004822de00482cdd00040274003d
:102fa000e4679f000d48a3000c0032000404e00019
:102fb0000a003200e14f42000800320079fa2f0087
:102fc00009804700044878004fcd97001a409800c8
:102fd0002b002000fba79f0003003700f0679f0035
:102fe00010002000f0a79f0071fa2f008180470099
:102ff000e1a79f009dff370062fa2f000f014100fb
:10300000e2a79f0013002000f3a79f0097ff37005f
:103010000d0cb300007020000082660082043200b4
:103020000dc8a3000200320064002000b4a79f0076
:103030000d48a300090032004fa897004005be00cc
:103040004004be00c0af9f00e89f9f00f99f9f0013
:103050008aa79f009ba79f00080037004fa99700f1
:103060004200be00c2af9f0036f60700e09f9f00ff
:10307000f19f9f0082a79f0093a79f006022b80046
:103080006033b8006f989700ff9897000fa19700e2
:103090009fa1970090f707000000e0000a003d00a4
:1030a0006f9a9700ff9a97000fa397009fa397002e
:1030b00007f0a200e49f9f00f59f9f0086a79f0056
:1030c00097a79f003d00b3000000eb00d0979f0042
:1030d0006022b8006033b8006f989700ff9897009f
:1030e0000fa197009fa1970080f707000000e00064
:1030f000340032006f989700ff9897000fa1970057
:103100009fa1970008f80700a5fa2f000581470046
:1031100030f807005f9097000000e9006300b900f5
:10312000a2002000110009000200d8008000fd006c
:10313000d1979f000100e00002003d000100e9007e
:10314000d0979f005f9497000840ea00f9fd0700c0
:103150006f9a9700ff9a97000fa397009fa397007d
:1031600071360700a09f9f00b19f9f00c29f9f00e4
:10317000d39f9f006022b8000600200007ff2300b5
:1031800055f707000000e00002003d000800e900dc
:103190000b0037006022b800060020004702240020
:1031a0002f989700bf9897004f999700df99970045
:1031b00070f707000000e000020035000800e8009a
:1031c000d0979f005f939700d6a79f000600e0006e
:1031d00003003c0010c0b300e0679f00020037000e
:1031e000afcb9700e7679f000d0678000c10b20088
:1031f00008003a000d98a300770232005fa4970000
:10320000e40f440003003500bfa49700890f540069
:10321000f20135003fa597000a00e00004003200eb
:103220000d98a300020032000a05e900baa79f002a
:10323000bfa5970020c1b300f28f550001003e00ea
:103240006fc09700e0679f006022b8006033b8004d
:103250006f989700ff9897000fa197009fa1970084
:1032600022f707000000e0006d0032006f65970054
:10327000afc897000ac05000aefd07000002be00b4
:103280000203be006f989700ff9897000fa1970068
:103290009fa197009f330700e09f9f00f19f9f0031
:1032a00082a79f0093a79f00cdf707000004be00f0
:1032b000f1f70700e00f5400e08f5c0004003d00d0
:1032c0006022b80006002000071f240048320700d3
:1032d0000002be000203be006f989700ff9897009f
:1032e0000fa197009fa19700e73007006022b80068
:1032f0000600200007fe23001ef707000000e00084
:103300000c0035006022b8000600200007fe2300f4
:103310006f989700ff9897000fa197009fa19700c3
:1033200033320700e09f9f00f19f9f0082a79f001c
:1033300093a79f006f989700ff9897000fa19700a1
:103340009fa19700a6f707000002be006033b800f7
:103350000a00fb004304dd00a973210009004400ba
:10336000d000900060019000f001900040009000bb
:103370000020e10001a8e10002b0e10003b8e10093
:10338000100039000400200005002a009699290049
:1033900097fb23006f989700ff9897000fa1970065
:1033a0009fa19700e0350700e09f9f00f19f9f00dd
:1033b00082a79f0093a79f005fa197000200e800eb
:1033c00016003700090044005001be004000be0056
:1033d0000020e10001a8e10002b0e10003b8e10033
:1033e0000f0031006022b8000600200047022400d0
:1033f0006f989700ff9897000fa197009fa19700e3
:10340000c9350700e09f9f00f19f9f0082a79f00a2
:1034100093a79f00dfa197000300e900d0979f00ca
:103420004968de006100600080cf9f000004e0007a
:103430004000320000802000008666003d003a0017
:10344000bfa29700f48f5200020034004601200012
:10345000b6a79f006f989700ff9897000fa197005d
:103460009fa197005ef707000004be000c057800de
:103470008c0578000b003700bfa397008703e90095
:10348000b7a79f00a4002000050020006033b8000b
:103490000800be000a01be00fef507000205be00de
:1034a0000004be00e00f5400e08f5c00e00f5d0000
:1034b000e08f5d000b003200a4002000050020001a
:1034c0006033b8000800be000a01be00f8f507002e
:1034d000e00f5000e08f5800e00f5900e08f5900d6
:1034e000e5ff3200ef6097000100fb003fa497006a
:1034f000800f54000f003d0008c050000dfd070074
:103500000002be000203be006f989700ff9897006c
:103510000fa197009fa19700fe320700e09f9f0038
:10352000f19f9f0082a79f0093a79f00efc4970081
:10353000e9679f006f959700bfa597000b005500a6
:10354000650650000b00e00002003a000db8a30031
:103550000100320066065000638066000100320000
:103560000c06e9000d28a30026003200e180660069
:103570000d18a3000c003200d00220000100e00072
:1035800001003a000080e900afa89700790a07001f
:10359000e10f4000180032002fa097000000e80063
:1035a000a0a79f00140037000100e00012003200c5
:1035b000afa89700000220006e0a0700e10f40004c
:1035c0000d003200afa097008100e800a1a79f0086
:1035d00009003700afa8970000032000650a070024
:1035e000e10f4000030032002fa197000201e80024
:1035f000a2a79f000c06e9000c00e000f5ff3c00cc
:103600002e0037000d38a3000a0032000b003700ef
:10361000afa8970000022000560a0700e10f400003
:1036200003003200afa197008301e800a3a79f0029
:103630000c06e9000c00e000f5ff3c00e1806600ac
:103640000d18a30013003200d00220000100e0009a
:1036500001003a000080e900afa89700450a070082
:10366000e10f4000150032002fa297000402e8008d
:10367000a4a79f0011003700e8a79f00f9a79f00ab
:103680008aaf9f009baf9f008042eb00e5679f00e1
:10369000800037000100e00008003200afa897006a
:1036a00000022000330a0700e10f4000030032004f
:1036b0002fa397000603e800a6a79f006f98970026
:1036c000ff9897000fa197009fa19700c4f60700ed
:1036d0000004be006055b800ef6397000700fb00d0
:1036e0004300dd00ae7321000e0040003002be003a
:1036f0002003be000800be000a01be0065f50700f9
:103700000003b000afa897001a0a0700e10f4000bd
:10371000030032002fa097000000e800a0a79f0040
:10372000ef6097000100fb004300dd000e00400049
:103730003002be002003be000800be000a01be0029
:103740005bf507000205be000004be00e0a79f0075
:10375000f1a79f0082af9f0093af9f00bfa2970089
:103760000500e00002003a000db8a3004900320055
:10377000afa89700e0022000fe090700e10f40001b
:10378000030032002fa397000603e800a6a79f00be
:10379000ef6397000700fb00bfa097000080500078
:1037a000809f9f00240037000fc997000204e000ab
:1037b00005003200e00f5400e08f5c00e00f5d0078
:1037c000e08f5d00acff32000000fb004300dd0035
:1037d000ae7321000e0040003002be002003be0088
:1037e0000800be000a01be002af507000003b00071
:1037f000afa89700df090700e10f40000300320087
:10380000afa197008301e800a3a79f006f62970014
:103810000400fb004300dd000e0040003002be004b
:103820002003be000800be000a01be0020f507000c
:103830000205be000004be00ef6297000540e900eb
:10384000e0679f00e14f4000d7ff3a00e8a79f00e4
:10385000f9a79f008aaf9f009baf9f000004eb0079
:1038600009003700afa8970000032000c109070036
:10387000e10f4000030032002fa397000603e80089
:10388000a6a79f000804e8008f9b9700870f5400ad
:10389000f4ff3a000d58a30009003200afa89700ca
:1038a00050042000b3090700e10f40000c00320073
:1038b0002fa497000804e800a8a79f00080037007d
:1038c000afa8970050062000aa090700e10f4000aa
:1038d00003003200afa497008904e800a9a79f0065
:1038e0005f9097000000e0000b003d000000ea0040
:1038f000d0979f00afa89700d00220009d09070035
:10390000e10f40000c0032002fa597000a05e800e7
:10391000aaa79f0008003700afa89700b0022000b8
:1039200094090700e10f400003003200afa59700a3
:103930008b05e800aba79f005f909700a8002000d0
:10394000110009000800d8000003b000afa89700dc
:1039500088090700e10f4000030032002fa0970004
:103960000000e800a0a79f00df9097001100090069
:103970008800d8008000fd000003b000afa89700c9
:103980007c090700e10f400003003200afa0970060
:103990008100e800a1a79f000d38a3001d0432009c
:1039a0000c00e0001b0434000004eb00afa89700fb
:1039b000000220006f090700e10f40000300320001
:1039c0002fa197000201e800a2a79f000804e800c9
:1039d0008c0f54000f043200f4ff3700dfa1970072
:1039e0000300e00004003d003fa2970003005200e6
:1039f0000000e900b0a79f006f989700ff9897001c
:103a00000fa197009fa197005ff507000205be0078
:103a10000004be000c427800a57321000b003700a3
:103a20000400fb004300dd00050040005001be0023
:103a30004000be000040e10001c8e10002d0e1000a
:103a400003d8e100030039000442e800f44f5200bb
:103a5000f3ff3a00e4679f000400fb00bfa2970059
:103a600000875200f80f57000d003c000e40780010
:103a70005efb07000002be000203be006f989700c5
:103a8000ff9897000fa197009fa19700583007005b
:103a9000e09f9f00f19f9f0082a79f0093a79f0038
:103aa0000e407800a3fb0700d0af9f00e1af9f005e
:103ab000f2af9f0083b79f00e00f5400e08f5c00df
:103ac000e00f5d00e08f5d00040035000800be00df
:103ad0000a01be005df5070013003700100020004a
:103ae000010020006011b8000800600089806000bb
:103af0000a0161008b8161008b03d1000a83d3002e
:103b00008982d3000882d300000072008180720095
:103b100002017300838173004cf507000002be00b0
:103b20000203be00323007000002be000203be00e6
:103b30006f989700ff9897000fa197009fa197009b
:103b4000d12e07000002be000203be005fa897004e
:103b5000efa897007fa997008fb19700f233070075
:103b600009f507000205be000004be000006eb00d8
:103b700008003700a4002000050020006033b800d2
:103b80000800be000a01be0042f407000205be00a4
:103b90000004be000c035700b6a79f008e0f56000e
:103ba0001d0032000c06e800a400200005002000e3
:103bb0006033b8000800be000a01be003cf40700f4
:103bc000e00f5000e08f5800e00f5900e08f5900df
:103bd000e8ff320010003700bfa39700f88f5300b2
:103be0000d003c000740780000fb07000002be000b
:103bf0000203be006f989700ff9897000fa19700ef
:103c00009fa19700fa2f0700e09f9f00f19f9f0060
:103c100082a79f0093a79f005fa49700e90f54001d
:103c200015003c006022b8006033b8006f98970020
:103c3000ff9897000fa197009fa19700abf4070092
:103c40000000e000360032006f989700ff98970060
:103c50000fa197009fa19700cbf40700e00f500041
:103c6000e08f5800e00f5900e08f59002c003a0017
:103c7000e10f54002a0034000400200005002e004b
:103c8000b6e02200170124002f989700bf989700f4
:103c90004f999700df9997008ff407000000e0002c
:103ca00003003d00dfa4970073805400020037003a
:103cb0005fa5970072005500d0979f002f6897006e
:103cc0001cfb0700a09f9f00b19f9f00c29f9f0009
:103cd000d39f9f000002be000203be006f989700b2
:103ce000ff9897000fa197009fa197000931070047
:103cf000a5f40700e0a79f00f1a79f0082af9f00f7
:103d000093af9f006000b8006011b800d0b79f006b
:103d1000e1b79f00f2b79f0083bf9f0034003700d8
:103d20006f989700ff9897000fa197009fa19700a9
:103d300095f40700e0a79f00f1a79f0082af9f00c6
:103d400093af9f00e00f5000e08f5800e00f590044
:103d5000e08f590002003500bcf40700170037005f
:103d600010002000010020006011b8006fa2970031
:103d7000ffa297000fab97009fab97000400600075
:103d80008580600006016100878161008703d100a2
:103d90000683d3008582d3000482d3000000720022
:103da000818072000201730083817300a7f4070011
:103db0000002be000203be008d2f07000002be00fd
:103dc0000203be006f989700ff9897000fa197001d
:103dd0009fa197002c2e0700d0b79f00e1b79f004e
:103de000f2b79f0083bf9f000000eb00d0979f00b9
:103df00014c0b300a57321000f0037000400fb00be
:103e00004300dd00050340003600be002601be0071
:103e10006fa49700ffa497000fad97009fad970088
:103e20000040e10001c8e10002d0e10003d8e10058
:103e3000030039000442e800f44f5200efff3a005b
:103e4000e4679f000400fb00bfa4970000804400cb
:103e5000df909700010040006f9597000006550025
:103e60004b68de0061006000004778000004e0005d
:103e700002003a000900e000010032000c06e900ef
:103e800063806600010032000c06e9000d28a300e3
:103e900026003200e18066000d18a3000c003200fd
:103ea000d00220000100e00001003a000080e9009b
:103eb000afa897002f080700e10f4000180032005c
:103ec000afa597008b05e800aba79f001400370053
:103ed0000100e00012003200afa8970000022000ad
:103ee00024080700e10f40000d0032002fa09700ca
:103ef0000000e800a0a79f0009003700afa89700c6
:103f0000000320001b080700e10f400003003200ff
:103f1000afa097008100e800a1a79f000c06e90070
:103f20000c00e000f5ff3c003f0037000d38a30017
:103f30000a0032000b003700afa8970000022000f3
:103f40000c080700e10f4000030032002fa197008a
:103f50000201e800a2a79f000c06e9000c00e000a7
:103f6000f5ff3c00e18066000d18a3000c00320054
:103f7000d00220000100e00001003a000080e900ca
:103f8000afa89700fb070700e10f400026003200b2
:103f9000afa197008301e800a3a79f00220037008c
:103fa0000100e00020003200afa8970000022000ce
:103fb000f0070700e10f40001b0032002fa297001e
:103fc0000402e800a4a79f00170037000000fb00d0
:103fd0004300dd00a1732100010040003002be005b
:103fe0002003be006fa09700ffa097000fa99700c5
:103ff0009fa9970027f30700a400200005002000d8
:104000006033b8002af307000003b000afa89700a0
:10401000d8070700e10f400003003200afa297006d
:104020008502e800a5a79f006f6397000640e9009e
:10403000e0679f00e14f4000e4ff3a000b003700cb
:10404000afa8970000032000ca070700e10f400057
:1040500003003200afa397008703e800a7a79f00e3
:104060005f9097000000e900d0979f005f90970055
:104070000000e000f2ff3c003fa49700f20f540064
:104080000300340020c1b300e0679f000200370046
:10409000efc49700e9679f00ef6097000100fb0005
:1040a0003fa5970000005500f0979f000104e00035
:1040b00002003a000e04e00008003200afa89700aa
:1040c000e0022000ab070700e10f400003003200d0
:1040d000afa597008b05e800aba79f006f60970026
:1040e00014fa07000002be000203be005fb0970092
:1040f000efb097007fb197008fb997008a32070021
:10410000a1f307001e0037000000fb004300dd00a4
:10411000ae7321000e0040003002be002003be003e
:104120000800be000a01be00daf20700a400200069
:10413000050020006033b800ddf207000003b00086
:10414000afa897008b070700e10f40000300320083
:104150002fa097000000e800a0a79f00ef60970045
:104160000100fb004300dd000e0040003002be00f5
:104170002003be000800be000a01be00ccf207000a
:104180000205be000004be006f6197000240e90016
:10419000e0679f00e14f4000dbff3a00e8a79f0087
:1041a000f9a79f008aaf9f009baf9f000004eb0020
:1041b00009003700afa89700000320006d07070033
:1041c000e10f400003003200afa197008301e80037
:1041d000a3a79f000804e8007f929700840f540073
:1041e000f4ff3a000d38a3000a0232000c00e00090
:1041f000080234000004eb00afa897000002200082
:104200005c070700e10f400003003200afa29700f7
:104210008502e800a5a79f000804e8008c0f540061
:10422000fc013200f4ff37000d007800000cb200f2
:1042300032003a000d00e00009003d004fa8970051
:104240004005be004004be00c0af9f00e8a79f002d
:10425000f9a79f008aaf9f009baf9f001600370011
:104260000d48a300090032004fa997004200be008c
:10427000c2af9f004f89de00cf91de000002be007a
:10428000020378008203780007003700cfa9970067
:1042900043007800c3af9f0000027800cfa2de0089
:1042a0000503780086037800e4a79f00f5a79f0028
:1042b00086af9f0097af9f006fa49700ffa4970061
:1042c0000fad97009fad9700e00f5400e08f5c00aa
:1042d000e00f5d00e08f5d0026003d003d00b30073
:1042e0006000b8006011b8000804500089845800cc
:1042f0000a0559008b8559001a0037000d00e000af
:1043000005003d004faa97004401be004400be00d6
:10431000c4af9f00070037000d48a3000a00320019
:10432000cfaa97004500be00c5af9f0004017800ea
:1043300084017800e0a79f00f1a79f0082af9f0053
:1043400093af9f000b0037004fab970046007800fb
:10435000c6af9f0000047800090020000a0020007a
:104360000b002000e8a79f00f9a79f008aaf9f00dd
:104370009baf9f00bfa497000900e0000b003a002c
:104380006fa09700ffa097000fa997009fa9970023
:10439000e00f5000e08f5800e00f5900e08f590007
:1043a00002003a0011002000b1a79f000d0678001e
:1043b0000c0cb20000042000800f560037003200c1
:1043c00003003c000c00e000070032004b00370007
:1043d00000082000800f560018003200000c20005a
:1043e000800f560045003a0014c0b300a5732100a9
:1043f0000f0037000400fb004300dd000500400013
:104400005001be004000be006fa49700ffa49700bb
:104410000fad97009fad97000040e10001c8e1009b
:1044200002d0e10003d8e100330039000442e80083
:10443000f44f5200efff3a002f0037000001200038
:10444000010020006011b80014c0b3006fa49700f1
:10445000ffa497000fad97009fad97000040e100cb
:1044600001c8e10002d0e10003d8e10022003900d8
:10447000490020000000d0008180d2000281d200db
:104480008381d2008904e900faff3a000442e8007f
:10449000f04f5200edff3a00170037008000200077
:1044a000010020006011b80014c0b3006fa4970091
:1044b000ffa497000fad97009fad97000040e1006b
:1044c00001c8e10002d0e10003d8e1000a00390090
:1044d000390020000000d0008180d2000281d2008b
:1044e0008381d2008904e900faff3a000442e8001f
:1044f000f54f5200edff3a00e4679f006f659700ab
:104500000a00fb00bfa597008b0f500002003d0082
:10451000eb679f0004003700bfa09700808f50001a
:1045200001003d00b0a79f006f9197000200e000de
:104530000400320063806600020032000201e900dc
:10454000e2979f000de8a3000b003200ef91970067
:104550003fa29700848f510003003c008002eb00d3
:10456000e5979f00040037006f939700bfa3970063
:1045700007035300e6979f00408c200000806600f0
:1045800001842000810f500006003a006f949700cc
:104590000800e000110032000804e900e8979f00dd
:1045a0000e003700008c200000806600018820008b
:1045b000810f500009003a00ef949700e28f5400f9
:1045c00003003c000005eb00ea979f000300370062
:1045d000ef9597008b85e900eb979f00ef609700c0
:1045e0000100fb000007eb006f919700800f510066
:1045f00001003400000751000d28a3004b003200d9
:10460000e18066000d18a3000c003200d0022000eb
:104610000100e00001003a000080e900afa8970027
:1046200054060700e10f400027003200afa19700b9
:104630008301e800a3a79f00230037000100e000ea
:1046400009003200afa897000002200049060700c9
:10465000e10f40001c0032002fa297000402e80086
:10466000a4a79f0018003700008c2000008066007f
:1046700001882000810f500013003a00afa8970076
:10468000000320003b060700e10f4000030032005a
:10469000afa297008502e800a5a79f008005200033
:1046a0000d58a30001003a0080072000afa8970032
:1046b00030060700e10f4000030032002fa39700ef
:1046c0000603e800a6a79f000e00e0000d003200e0
:1046d0000004eb00afa897000003200025060700a8
:1046e000e10f400003003200afa397008703e8000a
:1046f000a7a79f000804e8008e0f5400f5ff3a00ba
:104700000007eb003fa49700c340dd0020732100a9
:10471000808540004240dd00640550006340b900e0
:10472000909f9f0063045000a20037000e00e0003d
:104730000f003200688066000d003a000004780027
:10474000afa89700000220000a060700e10f400012
:1047500003003200afa497008904e800a9a79f00d6
:104760000804e8008e0f5400f5ff3a000007eb0044
:10477000e18066000d18a3000c003200d00220007a
:104780000100e00001003a000080e900afa89700b6
:10479000f8050700e10f40000e0032002fa597003a
:1047a0000a05e800aaa79f000a0037000100e00000
:1047b00008003200afa8970000022000ed050700b6
:1047c000e10f400003003200afa597008b05e80021
:1047d000aba79f00008c2000808066000084200032
:1047e000808f500009003a00afa897000003200016
:1047f000e0050700e10f4000c2ff32002fa0970044
:104800000000e800a0a79f00beff3700008820003e
:10481000808f5000bbff3a00afa897000003200034
:10482000d4050700e10f400003003200afa097005d
:104830008100e800a1a79f00800520000d58a3007b
:1048400001003a0080072000afa89700c9050700c3
:10485000e10f4000abff32002fa197000201e800fa
:10486000a2a79f00a7ff370000042000800f56007a
:104870003100320003003c000c00e0000700320071
:104880004000370000082000800f56001200320060
:10489000000c2000800f56003a003a003b02be0098
:1048a0002b03be006fa09700ffa097000fa99700f1
:1048b0009fa99700f7f00700a40020000500200042
:1048c0006033b800faf0070004c3b30004424000ac
:1048d000e4679f002b003700198821000d58a300c2
:1048e00001003a0029892100140020000500200061
:1048f0006033b8000a0078000000e90005003300ca
:104900000402d0008582d2000683d2008783d200c1
:10491000f9ff37006fa09700ffa097000fa997003d
:104920009fa99700dbf007006f006000e944780062
:10493000e9679f00130037001400200005002000e5
:104940006033b800880078008100e900050033007a
:104950000402d0008582d2000683d2008783d20071
:10496000f9ff37006fa09700ffa097000fa99700ed
:104970009fa99700c7f00700674060000043b000a0
:10498000e0679f006f6197000200fb00afa89700ef
:1049900078050700e10f400003003200afa1970047
:1049a0008301e800a3a79f00e88555006405550032
:1049b00063045400d0ff2f003fa2970000a0b9006d
:1049c0009f9a97000080420063005000800f5400bf
:1049d000a5ff3a000d38a3000e0032000e00e000e3
:1049e0000c0034000004eb00afa897000002200088
:1049f00060050700e10f4000030032002fa397007d
:104a00000603e800a6a79f000804e8008e0f5400e4
:104a1000f5ff3a00bfab9700b7407800b7af9f00f3
:104a2000e1679f000104e0002af83a002fa09700f8
:104a30004f0778004f06be004f05be004f04be0072
:104a4000ef04b10000000600889fbe008a1f7800b6
:104a5000000578000000e00020003d000005ea00ad
:104a6000d0062000a15d2100800f550040003400d9
:104a700042062000110009000205d800000178005c
:104a8000010078004311dd00a95d21001e00370000
:104a9000a2002000811f7800110009000205d80043
:104aa0000001780001007800cf0078004311dd009c
:104ab000010141004300dd00010040003002be0062
:104ac0002003be0042209000d2209000f2219000ee
:104ad00062219000143007002b003700d006200020
:104ae000a1682100800f55002100340042062000fb
:104af000110009000205d8000001780001007800cb
:104b00004311dd00a968210009014100a80020002f
:104b1000110009000800d8004300dd000900400032
:104b200040229000d022900060239000f02390005b
:104b30000288900092889000b289900022899000ab
:104b4000f92f0700801f780001027800110009008a
:104b50000805d8000102fd004f0078004322dd0067
:104b6000090242005403be004402be00d9ff3700d0
:104b7000ea0f5500c6ff3c004350dd000100400035
:104b80005001be004000be004f0578004f04be003b
:104b9000000006008f03b000889fbe008a9fbe0001
:104ba0008c9fbe008e1f7800e0b79f00f1b79f007a
:104bb00082bf9f000000eb00a0b79f00e004370019
:104bc0008001eb0050c2b30080cf500009003200da
:104bd0000100fb00efb09700e6040700e10f400082
:104be000d7043200afb097008100e800a1b79f0062
:104bf000d30437007fb1970092407800d0c2b30051
:104c000080cf50000c00320007003c006d40500087
:104c100080cf50000d0032006b40400080cf50002c
:104c200019003a000e00370000c3b30080cf5000d7
:104c300015003a000f0037000330a0007fb2970044
:104c40000402e800f4b79f00eaff37000300a00069
:104c5000ffb297008502e800f5b79f00e5ff370037
:104c60000310a0007fb697000c06e800fcb79f0079
:104c7000e0ff37000320a0007fb097000000e800ad
:104c8000f0b79f00dbff37000318a30001003200dc
:104c90000300a1000338a300010032000320a1009b
:104ca0000100fb0002fd2f0002004000e90f500050
:104cb00010003e008000eb00c1b79f0002027800a8
:104cc0004fb197006a10b900ffb297001501fb00c1
:104cd0000001410004014100c2b79f005500fb00e4
:104ce000f5b79f0004004000e90f50000d003e00a2
:104cf000f3ff37000006eb00ccb79f00a0c2b30063
:104d000080cf500007003a000fb89700c00078002d
:104d100080bf9f00c1b79f007fb197000201e800ec
:104d2000f2b79f00e0c2b3007fb29700944f10002b
:104d300021003a00830678000de0a0008400e8001e
:104d400064405000914f100004003200f1b79f0002
:104d50008002eb00b5b79f00100037000fbe970030
:104d60004c0078008cbf9f00b0b79f00ffb0970049
:104d70008180e800f1b79f00130037003fb2970031
:104d80006a20b9000000410003004000b0b79f0056
:104d9000ffb297008502e800f5b79f007fb6970045
:104da0001c01fb0003fd2f0003004100e90f500030
:104db000f2ff360004003700830678000dc0a00023
:104dc0000000eb00b0b79f007fb19700b2407800c1
:104dd000f2b79f00c17f9f00c0c6b30080cf5000d4
:104de0002700320014003c006840500080cf500083
:104df0009d00320009003c006c40500080cf500004
:104e0000290032006b40400080cf50007200320019
:104e10000104e000500432008e00370060c6b30089
:104e200080cf50001c0032006340400080cf500013
:104e300088003a008c00370030c7b30080cf5000a4
:104e40001c00320007003c006440500080cf50003e
:104e5000130032000040e80080cf50007d003a008f
:104e60001100370050c7b30080cf50007d003200e2
:104e70006340400080cf500076003a000b003700be
:104e8000000028000d48a30001003a0000012000a6
:104e900080867600ccff37000da0a000720037009e
:104ea0000d60a000700037000d50a0000d70a00034
:104eb0006d0037008fb997004300780083bf9f00d3
:104ec000000478000000e00001003a00488a210058
:104ed0008004eb00010037008104e80089007800bd
:104ee000088044001004e000fbff3a003fb2970046
:104ef0000400e00003003200890f5200010031007d
:104f0000840478000007eb00cfb29700898f52002d
:104f100001003600098752004368de00e1066000a8
:104f200019003a000d06780009003700efb097002d
:104f3000000220000f040700e10f400003003200d0
:104f40002fb097000000e800a0b79f000c06e80013
:104f50008e0f5600f5ff3a000087eb000a0037007d
:104f6000880078003100fb0001047800efb0970062
:104f700000040700e10f400003003200afb09700cb
:104f80008100e800a1b79f000900e90080047800d3
:104f9000e10f4000f2ff3a000006eb000d00e000d8
:104fa0000a003a00e6033700efb097000002200045
:104fb000f0030700e10f4000030032002fb197001b
:104fc0000201e800a2b79f000c06e8008e0f560011
:104fd000f5ff3a00da0337008fb9970043007800f5
:104fe00083bf9f00cf80de0001017800820178003e
:104ff0000205be000004be000203be000002be00a7
:105000004822de00482edd0004027600c47f9f00a7
:105010000d48a3000a0032000404e000080032003a
:10502000e14f420006003200d1fb2f000180470013
:10503000044878001840980029002000020037003a
:10504000d07f9f0019002000d2fb2f000284470070
:10505000a6ff3700c3fb2f00038447001900200080
:10506000a2ff37000d0cb300007020000082660024
:10507000210232000dc8a3000200320064002000ab
:10508000b4b79f008fba97006881520082bf9f001b
:105090003200be001201be00e0af9f00f1af9f00e2
:1050a00082b79f0093b79f006022b8006033b800ba
:1050b0006fa89700ffa897000fb197009fb19700c6
:1050c00085ef07000000e0000a003d006fa8970090
:1050d000ffa897000fb197009fb1970003f0a200bf
:1050e000e0af9f00f1af9f0082b79f0093b79f0092
:1050f0003d00b3000000eb0080a79f006022b800d5
:105100006033b8006fa89700ffa897000fb1970011
:105110009fb1970075ef07000000e00033003200f8
:1051200001fc2f00018247006fa89700ffa897009d
:105130000fb197009fb1970071ef07000fa0970084
:105140000000e9006300b900a2002000110009007e
:105150000200d8008000fd0081a79f000100e00050
:1051600002003d000100e90080a79f000fa4970006
:105170000800ea0034fe07006faa9700ffaa970014
:105180000fb397009fb39700672e0700a0af9f0053
:10519000b1af9f00c2af9f00d3af9f006022b800a5
:1051a0000600200007ff23004bef07000000e0008f
:1051b00002003d000800e9000b0037006022b80043
:1051c00006002000470224002fa89700bfa89700e0
:1051d0004fa99700dfa9970066ef07000000e000e5
:1051e000020035000800e80080a79f003fb197004b
:1051f000f80f510057003c00d0c6b300804f51005b
:10520000290036000285fb0042062000110009003b
:105210000285d80000017800010478004311dd0008
:10522000ab5d21000b0141006022b80006002000a8
:1052300007fe23000288900092889000b2899000b7
:1052400022899000382e0700a9002000809fbe0010
:10525000110009000984d800000478004f00be0046
:105260004344dd000b04440048229000d822900003
:1052700068239000f82390002b2e0700801f7800f1
:1052800001027800110009000985d8000102fd0023
:105290004f0078004322dd000b0242005403be00a1
:1052a0004402be001f0037000280fb00a95d210000
:1052b000ea4f510014003600a2002000110009003e
:1052c0000280d80000017800010478004311dd005d
:1052d000090141006022b8000600200007fe2300fb
:1052e00042209000d2209000f22190006221900094
:1052f0000d2e07004344dd00090444003802be00bf
:105300002803be00070037004300dd00090040000d
:105310006022b8000600200007fe23005001be00f6
:105320004000be00002e07000002be000203be00c7
:105330006fa89700ffa897000fb197009fb1970043
:105340002b2a0700e0af9f00f1af9f0082b79f00bc
:1053500093b79f000fa49700e90f540015003c007d
:105360006022b8006033b8006fa89700ffa89700cc
:105370000fb197009fb19700dcee07000000e0003e
:10538000320032006fa89700ffa897000fb1970076
:105390009fb19700fcee0700e00f5000e08f58002f
:1053a000e00f5900e08f590028003a00e10f540047
:1053b0002600340054692d0065822e00b6e02200dc
:1053c000170124002fa89700bfa897004fa99700a6
:1053d000dfa99700c0ee07000000e00002003d00da
:1053e00073005400010037007200540080a79f0032
:1053f0000fa0970094fd0700a0af9f00b1af9f00e2
:10540000c2af9f00d3af9f000002be000203be00e8
:105410006fa89700ffa897000fb197009fb1970062
:105420003c2b0700d8ee07000205be000004be00ba
:105430006000b8006011b800a0a79f00b1a79f004e
:10544000c2a79f00d3a79f002e0037006fa8970028
:10545000ffa897000fb197009fb19700caee070011
:105460000205be000004be00e00f5000e08f5800af
:10547000e00f5900e08f590002003500f3ee0700fd
:105480001300370010002000010020006011b80058
:1054900008006000898060000a0161008b81610062
:1054a0008b03d1000a83d3008982d3000882d30002
:1054b000000072008180720002017300838173001a
:1054c000e2ee07000002be000203be00c82907008a
:1054d0000002be000203be006fa89700ffa897005d
:1054e0000fb197009fb1970067280700a0a79f0002
:1054f000b1a79f00c2a79f00d3a79f000000eb00a9
:1055000080a79f0014c0b300a57d21000b003700c9
:105510000400fb004300dd00050040005001be0018
:105520004000be000040e10001c8e10002d0e100ff
:1055300003d8e100030039000442e800f44f5200b0
:10554000f3ff3a00c47f9f000400fb00bfb0970048
:10555000008040008fa09700010040004fb19700ed
:1055600000075100bfb197000300e00001003200c6
:105570000e07e90063806600010032000e07e900b3
:105580000d28a30026003200e18066000d18a3005c
:105590000c003200d00220000100e00001003a00bf
:1055a0000080e900efb0970072020700e10f4000b1
:1055b000180032002fb297000402e800a4b79f0041
:1055c000140037000100e00012003200efb0970035
:1055d0000002200067020700e10f40000d003200ca
:1055e000afb297008502e800a5b79f000900370019
:1055f000efb09700000320005e020700e10f4000bb
:10560000030032002fb697000c06e800acb79f00ed
:105610000e07e9000e00e000f5ff3c003d003700fa
:105620000d38a3000a0032000b003700efb09700de
:10563000000220004f020700e10f4000030032008b
:105640002fb097000000e800a0b79f000e07e90008
:105650000e00e000f5ff3c00e18066000d18a3009d
:105660000c003200d00220000100e00001003a00ee
:105670000080e900efb097003e020700e10f400014
:1056800024003200afb097008100e800a1b79f006e
:10569000200037000100e0001e003200efb097004c
:1056a0000002200033020700e10f40001900320021
:1056b0002fb197000201e800a2b79f001500370044
:1056c0000000fb004300dd00a17d2100010040003f
:1056d0003002be002003be000800be000a01be006a
:1056e0006ced0700a4002000050020006033b80026
:1056f0006fed07000003b000efb097001d02070038
:10570000e10f400003003200afb197008301e800d1
:10571000a3b79f004f7a97000440e900c07f9f0025
:10572000e14f4000e6ff3a000b003700efb0970072
:10573000000320000f020700e10f400003003200c9
:10574000afb297008502e800a5b79f000fa09700b1
:105750000000e90080a79f000fa097000000e00074
:10576000f2ff3c003fb6970020c1b300f20f560095
:1057700001003c006fe09700c07f9f00cf7897004a
:105780000100fb003fb1970000005100e0a79f001f
:105790000104e00008003200efb09700e0022000b2
:1057a000f4010700e10f400003003200afb19700a1
:1057b0008301e800a3b79f004f7a97000400fb0025
:1057c000a1fc07000002be000203be002fa097004c
:1057d000bfa097004fa19700dfa19700d22c070030
:1057e000e9ed07001e0037000000fb004300dd006c
:1057f000ac7d21000c0040003002be002003be0042
:105800000800be000a01be0022ed0700a40020002f
:10581000050020006033b80025ed07000003b0004c
:10582000efb09700d3010700e10f40000300320002
:10583000afb297008502e800a5b79f00cf78970028
:105840000100fb004300dd000c0040003002be0000
:105850002003be000800be000a01be0014ed0700d0
:105860000205be000004be004f7997000240e90027
:10587000c07f9f00e14f4000dbff3a000006eb00d5
:1058800009003700efb0970000032000b9010700be
:10589000e10f400003003200afb197008301e80040
:1058a000a3b79f000c06e8006fa29700840f560074
:1058b000f4ff3a000d38a300a10132000e00e00011
:1058c0009f0134000006eb00efb0970000022000bb
:1058d000a8010700e10f400003003200afb29700bb
:1058e0008502e800a5b79f000c06e8008e0f560061
:1058f00093013200f4ff37000d007800000cb20075
:1059000028003a000d00e00005003d000fbe9700a2
:105910004c05be004c04be008cbf9f001400370035
:105920000d48a3000b0032000fb997004200be00e3
:1059300082bf9f004f89de00cf91de000002be00d3
:1059400002037800820378000605be000404be004e
:10595000070037008fb997004300780083bf9f008e
:1059600000047800cfc4de00090578008a057800bd
:10597000e00f5400e08f5c00e00f5d00e08f5d0001
:1059800020003d003d00b3006000b8006011b80089
:1059900008045000898458000a0559008b85590075
:1059a000180037000d00e00005003d000fba970019
:1059b0004405be004404be0084bf9f0011003700b0
:1059c0000d48a300080032008fba97004500be00c2
:1059d00085bf9f0004017800840178000205be00a5
:1059e0000004be00070037000fbe97004c0078008f
:1059f0008cbf9f0000047800090020000a002000ee
:105a00000b0020003fb097000000e00007003a00c4
:105a1000e00f5400e08f5c00e00f5d00e08f5d0060
:105a200002003a0011002000b1b79f000d07780076
:105a30000e0cb20000042000800f57002f0032002f
:105a400003003c000e00e000070032003f0037007a
:105a500000082000800f570014003200000c2000c6
:105a6000800f570039003a0014c0b300a57d210013
:105a70000b0037000400fb004300dd000500400080
:105a80005001be004000be000040e10001c8e1003e
:105a900002d0e10003d8e1002b0039000442e80005
:105aa000f44f5200f3ff3a002700370000012000b6
:105ab000010020006011b80014c0b3000040e100f4
:105ac00001c8e10002d0e10003d8e1001e00390066
:105ad000450020000000d0008180d2000281d20069
:105ae0008381d2008502e900faff3a000442e8000f
:105af000f04f5200f1ff3a00130037008000200001
:105b0000010020006011b80014c0b3000040e100a3
:105b100001c8e10002d0e10003d8e1000a00390029
:105b20003c0020000000d0008180d2000281d20021
:105b30008381d2000c06e900faff3a000442e80033
:105b4000f54f5200f1ff3a00c47f9f00cf789700d5
:105b50000100fb003fb19700820f500002003d00a2
:105b6000c27f9f0004003700bfb19700808f5100b3
:105b700001003d00b0b79f004fb297000400e00065
:105b80000400320063806600020032000402e90073
:105b9000c4b79f000de8a3000b003200cfb29700fe
:105ba0003fb697008c8f520003003c000000eb00d2
:105bb000c0b79f0004003700cfb097003fb19700f7
:105bc00082805000c1b79f00cf7997000300fb008f
:105bd0000002eb0094a79f00cfb29700808f520085
:105be000020034000080520090a79f000d28a300ff
:105bf00037003200e18066000d18a3000c0032006f
:105c0000d00220000100e00001003a000080e9001d
:105c1000efb09700d7000700e10f40000e00320000
:105c20002fb697000c06e800acb79f000a003700bb
:105c30000100e00008003200efb0970000022000f1
:105c4000cc000700e10f4000030032002fb09700a6
:105c50000000e800a0b79f009fa097000100e000af
:105c60000f0032000006eb00efb0970000032000a9
:105c7000c0000700e10f4000030032002fb1970081
:105c80000201e800a2b79f000c06e8009fa1970060
:105c9000830f5600f4ff3a000002eb0094a79f0028
:105ca000bfb29700c328dd00207d21008080400026
:105cb00091af9f004228dd006400500080af9f003c
:105cc0006328b900f0a79f006306500082003700e8
:105cd0001fa697000c00e0001100320068806600eb
:105ce0000f003a0000067800efb097000002200095
:105cf000a0000700e10f4000030032002fb0970022
:105d00000000e800a0b79f000c06e8009fa09700e5
:105d1000810f5600f4ff3a000001eb0092a79f00ac
:105d2000e18066000d18a3000c003200d0022000b4
:105d30000100e00001003a000080e900efb09700a8
:105d40008c000700e10f4000d5ff3200afb1970093
:105d50008301e800a3b79f00d1ff37000100e000f6
:105d6000cfff3200efb09700000220008100070053
:105d7000e10f4000caff32002fb297000402e80092
:105d8000a4b79f00c6ff370000042000800f570013
:105d90003000320003003c000e00e000070032003b
:105da0003d00370000082000800f5700110032002e
:105db000000c2000800f570037003a001fa8970002
:105dc0003002be002003be000800be000a01be0073
:105dd000b0eb0700a4002000050020006033b800ed
:105de000b3eb070004c3b30004424000c47f9f002c
:105df00029003700b58a2100d5b79f000d58a300b0
:105e000002003a00c08b2100d0b79f001400200090
:105e1000050020006033b8008fa897008100e900da
:105e2000050033000402d0008582d2000683d20030
:105e30008783d200f9ff37000800be000a01be00c8
:105e400094eb07006f0060005fb19700624078003c
:105e50001000370014002000050020006033b80057
:105e60008c0178008301e900050033000402d000b2
:105e70008582d2000683d2008783d200f9ff3700e3
:105e80000800be000a01be0082eb07006740600008
:105e90000043b000c07f9f004f7a97000400fb00d2
:105ea000efb0970033000700e10f4000030032001d
:105eb000afb297008502e800a5b79f001fa8970022
:105ec0006800500090af9f008fa89700e4805000ba
